:020000040200F8
:10200000001F1240492100027B210002252100020D
:102010007F210002812100028321000200000000D4
:102020000000000000000000000000006530000219
:102030008721000200000000FD2E00023531000261
:102040008D2100028D21000229300002FD2B0002AB
:10205000ED2B0002613100025131000241310002DA
:10206000A13100028D2E0002452B0002592D0002E5
:10207000090F00208D210002592B000209300002B7
:1020800049300002192D0002813100027131000235
:10209000092D0002F92C00028D2B0002492D0002AF
:1020A0005D2E00028D210002292D0002392D000233
:1020B000F92F0002E92F0002D92F0002913100020E
:1020C000C52D0002B52D000219300002AD2E000210
:1020D0009D2E00026D2E00027D2E0002BD2E0002FC
:1020E000CD2E0002DD2E0002ED2E00028D21000219
:1020F0008D2100028D210002352B00020200021604
:1021000000500202DFF810D000F028F90048004724
:1021100001C50102AFF30080B430002030B5804724
:1021200030BD00BF1EF0040F0CBFEFF30880EFF3CB
:10213000098081694DF2C532C0F2012210470000CA
:1021400040BA7047C0BA7047114880F308881148F8
:10215000016821F0020101600F4880470F480168C3
:1021600011F0806F41F08061016002D10C4800687D
:1021700000470C4800470C480047FEE7FEE7FEE733
:10218000FEE7FEE7FEE7FEE7FEE7FEE7FEE700000C
:10219000001F12400800004021540002102010408F
:1021A000C02E00205D23000201C501022DE9F003CD
:1021B0005FEA930C6FD000BF30F8024B31F8026B2E
:1021C00030F8025B31F8027B14FB06F84FEA6848EE
:1021D00015FB07F9A8EB694822F8028B14FB07F4FA
:1021E000641415FB06F504EB654422F8024B30F845
:1021F000024B31F8026B30F8025B31F8027B14FBC2
:1022000006F84FEA684815FB07F9A8EB694822F879
:10221000028B14FB07F4641415FB06F504EB65440C
:1022200022F8024B30F8024B31F8026B30F8025BB7
:1022300031F8027B14FB06F84FEA684815FB07F9F2
:10224000A8EB694822F8028B14FB07F4641415FB11
:1022500006F504EB654422F8024B30F8024B31F8E6
:10226000026B30F8025B31F8027B14FB06F84FEA90
:10227000684815FB07F9A8EB694822F8028B14FBA4
:1022800007F4641415FB06F504EB654422F8024BD1
:10229000BCF1010C90D113F0030304BFBDE8F003BF
:1022A000704700BF30F8024B31F802CB30F8025BC8
:1022B00031F8026B14FB0CF77F1415FB06F8A7EB43
:1022C000684722F8027B14FB06F4641415FB0CFC2F
:1022D00004EB6C4C22F802CB5B1EE3D1BDE8F003AB
:1022E0007047000000F5005000B20028BCBF00F5A8
:1022F000004000B281090B4BA0EB8110400233F982
:10230000112003EB410100B2C0F5004349885A4354
:10231000121410FB01F000EB02400014400000B268
:10232000704700005821020281090B4BA0EB81107D
:10233000400233F9112003EB410100B2C0F5004324
:1023400049885A43121410FB01F000EB02400014BC
:10235000400000B27047000058210202064C074DB1
:1023600006E0E06840F0010394E807009847103465
:10237000AC42F6D3FFF7CAFE502B0202902B0202AA
:102380002DE9F05F0546002092469B4688460646AA
:10239000814640241BE0284641464746224600F03D
:1023A0009EF853465A46C01A914110D3114618461A
:1023B000224600F085F82D1A67EB01084F462246A9
:1023C0000120002100F07CF817EB00094E41201E8F
:1023D000A4F10104DFDC484631462A464346BDE805
:1023E000F09F00000649074A0868504343F239024B
:1023F00010440860400870470149086070470000B9
:10240000DC2400206D4EC64110B5431A934209D218
:102410008318881803E010F8011D03F8011D521EEF
:10242000F9D210BD40EA01039B0703D009E008C9B7
:10243000121F08C0042AFAD203E011F8013B00F889
:10244000013B521EF9D210BDD2B201E000F8012BBF
:10245000491EFBD270470022F6E710B513460A4624
:1024600004461946FFF7F0FF204610BD421C10F845
:10247000011B0029FBD1801A704730B504460020AB
:10248000034600E05B1C934203D2E05CCD5C401B42
:10249000F8D030BD30B50B46014600202022012483
:1024A00009E021FA02F59D4205D303FA02F5491B22
:1024B00004FA02F52844151EA2F10102F1DC30BD38
:1024C000202A04DB203A00FA02F1002070479140F4
:1024D000C2F1200320FA03F3194390407047202AE9
:1024E00004DB203A21FA02F00021704721FA02F3BE
:1024F000D040C2F1200291400843194670472DE9AF
:10250000FE4F804681EA0300C00F0C46009021F088
:10251000004123F00045B8EB0200A94105D2404636
:10252000214690461C460B46024623F000401043CD
:1025300047D0270DC7F30A00C3F30A510290401A8F
:10254000019040286BDAC3F3130040F4801B00981D
:10255000924620B10023D2EB030A63EB0B0B0198E8
:102560005946C0F140025046FFF7AAFF06460D4605
:1025700050465946019A00F07BF910EB0800614182
:10258000002487EA115284EAE7731A4340D0009A84
:1025900062B3019A012A4FEA075215DC001B61EB76
:1025A00002014FF0004202EA0752CDE90042001C4E
:1025B00041F5801132462B4600F07BF903B0BDE8AF
:1025C000F08F40462146F9E7001B61EB0201001C39
:1025D00041F5801300185B412018A2F5001747EB66
:1025E000030140EAD570B6196D4111E06D084FEA5C
:1025F000360645EAC0754FEA0752001B61EB02013F
:10260000001C41F5801149084FEA30000019514182
:1026100032462B4603B0BDE8F04F00F03BB90098BE
:10262000012240000023D0EB020263EBE07300982C
:1026300021464FEAE074B8EB000061EB0401E9E7E2
:1026400083F000435BE781F0004158E72DE9FE4F3E
:1026500081EA030404F0004421F0004100944FF0AB
:10266000000B23F0004350EA01045ED052EA030459
:102670005BD0C3F30A54C1F30A552C44A4F2F334DB
:102680000194A0FB0254C1F3130141F48011C3F380
:10269000130343F4801301FB024400FB034E840A3E
:1026A000970A44EA815447EA8357A4FB07680295D6
:1026B0008D0A05FB07854FEA932C04FB0C54270574
:1026C000029D4FEA065847EA1637B5EB08056EEB50
:1026D000070C870E920E47EA811742EA8312A7FB86
:1026E0000201B6EB0B0164EB00042B0D43EA0C3343
:1026F0005E1844EB1C50DA465146E7FB0201C5F375
:1027000013044FEA0B3343EA14534FEA0432019C9B
:1027100043EA0603A4F10C040294009CCDE900B442
:1027200000F0C7F803B0BDE8F08F00200146F9E7DC
:102730002DE9F04D81EA030404F0004B21F000453F
:1027400014464FF0000A23F0004150EA050220D061
:1027500054EA01021DD0C5F30A570246C5F313031C
:10276000C1F31300C1F30A5640F4801543F48013FB
:10277000A7EB0608101BD64608F2FD3873EB0500E0
:1027800002D308F1010801E092185B41B8F1000F93
:1027900003DA00200146BDE8F08D00204FF48011DF
:1027A000064684460EE0171B73EB050705D3121B84
:1027B00063EB050306434CEA010C49084FEA30007D
:1027C00092185B4150EA0107EDD152EA030012D0A2
:1027D00082EA040083EA0501084305D0101BAB41DF
:1027E00006D20122002306E000224FF0004302E05F
:1027F0006FF0010253101AEB06004CEB085110EB7E
:102800000A0041EB0B01BDE8F04D00F043B8C1F305
:102810000A52C1F3130140F2FF3341F480119A428E
:1028200002DA00200146704740F233439A42A2F296
:10283000334202DC5242FFF752BEFFF741BE0000B6
:1028400030B5041E71F1000404DB4FF00044404237
:1028500064EB0101141E73F1000405DB1C464FF00C
:102860000043524263EB0403994208BF904230BDDB
:10287000202A06DBCB17203A41FA02F043EAE07344
:1028800006E041FA02F3D040C2F120029140084331
:102890001946704710B5141E73F1000408DA401C85
:1028A00041F1000192185B411A4301D120F001006F
:1028B00010BD2DE9F04D92469B4611B1B1FA81F25F
:1028C00002E0B0FA80F220329046FFF7F9FD0446AC
:1028D0000F4640EA0A0041EA0B0153465A460843B4
:1028E00013D0114653EA010019D0C8F140025046F6
:1028F000FFF7F5FD05460E46504659464246FFF79E
:10290000DFFD084305D0012004E020463946BDE83C
:10291000F08D0020054346EAE0762C4337430A98C1
:102920006305E40AA0EB08000022FD0A44EA4754CC
:102930000A3002D500200146E9E701051019694176
:10294000DDE9084500196941BDE8F04DA2E770B521
:102950008C1810F8015B15F0070301D110F8013B4A
:102960002A1106D110F8012B03E010F8016B01F8D1
:10297000016B5B1EF9D12B0705D40023521E0DD429
:1029800001F8013BFAE710F8013BCB1A921C03E077
:1029900013F8015B01F8015B521EF9D5A142D8D3AF
:1029A000002070BD41F2153CC2F2000C604741F2BC
:1029B000131CC2F2000C604740F2550CC2F2000C2E
:1029C000604741F2C52CC2F2000C604741F2E12C95
:1029D000C2F2000C604740F2D32CC2F2000C6047F8
:1029E00041F23D1CC2F2000C604741F27D1CC2F274
:1029F000000C604741F28D2CC2F2000C604741F29E
:102A0000CD3CC2F2000C604740F6D16CC2F2000C23
:102A1000604741F6F52CC2F2000C604740F2534C7F
:102A2000C2F2000C604740F2BB3CC2F2000C6047AF
:102A300040F2393CC2F2000C604740F2613CC2F205
:102A4000000C604740F6DB0CC2F2000C604740F21D
:102A5000F90CC2F2000C604740F2773CC2F2000C65
:102A6000604740F6251CC2F2000C604740F2A56C9E
:102A7000C2F2000C604740F2217CC2F2000C6047B9
:102A800040F2755CC2F2000C604740F2417CC2F239
:102A9000000C604740F2697CC2F2000C604740F2D3
:102AA000DB7CC2F2000C604740F27F5CC2F2000C9B
:102AB000604741F2E74CC2F2000C604740F6F11C5F
:102AC000C2F2000C604741F2415CC2F2000C604768
:102AD00041F6BB2CC2F2000C604741F2854CC2F2B9
:102AE000000C604740F26D2CC2F2000C604740F6CB
:102AF0002D6CC2F2000C604740F66F5CC2F2000C15
:102B0000604740F6693CC2F2000C604740F6EB2C8F
:102B1000C2F2000C604740F6C12CC2F2000C6047C4
:102B200040F6BD6CC2F2000C604740F67F6CC2F20A
:102B3000000C604702482421C06807F061B800001B
:102B4000482200200348016841F020010160012073
:102B5000FFF728BF0000134002480921C06807F0B2
:102B60004FB80000482200201AF0B4FA054C064D78
:102B70002068416A286888470028F9D11AF058FA75
:102B8000F6E700004C2200205C22002002481021C1
:102B9000C06807F035B800004822002004480068EB
:102BA0000122C0F308010920891E07F051B8000076
:102BB00004ED00E004480068C00503D10348406804
:102BC000406B00477047000004ED00E04822002001
:102BD00004480068C00503D103484068806B004783
:102BE0007047000004ED00E0482200200248012167
:102BF000C06807F005B80000482200200248022102
:102C0000C06806F0FDBF00004822002010B5C36870
:102C1000D9B280290FD98468E06800B101204B2225
:102C200013A101F071FAE16819B12069BDE8104003
:102C3000084772B6FEE70446008A616982B2D8B2DC
:102C4000124B1B68984706F0EBFC00280FD1E06898
:102C5000022806D004280AD1A069BDE8104006F079
:102C6000D9BCA08BA169BDE8104006F0D1BC10BD55
:102C70004863695F696E7465726E616C5F747261DE
:102C80006E73706F72742E63000000008823002042
:102C90001FB541680A2914D007DC09B105291FD1E5
:102CA00004B0BDE81040FFF7B1BF0B2919D00C29C3
:102CB00016D1018AC268406904B089B2BDE81040EB
:102CC00010470C491EC98DE81E00C1680191416979
:102CD0000291008AADF80C001021684606F0ACFAAB
:102CE0001FBD018A8AB24169C06804B0BDE81040C6
:102CF00008F098B87C0B020202480E21C06806F06A
:102D00007FBF00004822002002480F21C06806F063
:102D100077BF00004822002002480B21C06806F05F
:102D20006FBF00004822002002481221C06806F050
:102D300067BF00004822002002481321C06806F047
:102D40005FBF00004822002002481121C06806F041
:102D500057BF00004822002070B50B4D686D40063B
:102D600011D52C6E4020FFF722FE286EA043286666
:102D7000002C08D005480078400604D52046BDE860
:102D800070401DF0A9BA70BD0000114074220020EF
:102D9000074A131D5980116860F30701116010681C
:102DA00040F40070106010688005FCD4704700008B
:102DB0000804114002481C21C06806F021BF000031
:102DC0004822002002481B21C06806F019BF0000FD
:102DD0004822002000F01F0201219140400980009C
:102DE00000F1E020C0F88012704700F01F020121BE
:102DF00091404009800000F1E020C0F800117047C8
:102E0000C906090E002806DA00F00F0000F1E020E4
:102E100080F8141D704700F1E02080F8001470471E
:102E2000024A1140014302480160704780FFFF1FC2
:102E300008ED00E000B589B0816803910021CDE97B
:102E40000110044869460068826903480068904799
:102E500009B000BD4C22002060220020024814214D
:102E6000C06806F0CDBE00004822002002481521AF
:102E7000C06806F0C5BE00004822002002481621A6
:102E8000C06806F0BDBE00004822002002480721AD
:102E9000C06806F0B5BE00004822002002481E218E
:102EA000C06806F0ADBE00004822002002481D2187
:102EB000C06806F0A5BE00004822002002481F217D
:102EC000C06806F09DBE0000482200200248202174
:102ED000C06806F095BE000048220020024821216B
:102EE000C06806F08DBE0000482200200248222162
:102EF000C06806F085BE00004822002001484068F6
:102F0000806C0047482200202F492E48C1F89001CC
:102F10002E48C1F894014FF40040086342F241206A
:102F200048632B48826942F080428261026922F044
:102F30007F7202F540020261826922F4700202F59A
:102F400080128261826942F47022826182696FF329
:102F50000F02103282614A6A22F4601202F50022E6
:102F60004A624A6A22F4F85202F500724A628269A1
:102F700022F07C5202F1C8528261D1F8602122F421
:102F8000FC0202F5B402C1F86021016801680E225A
:102F900062F31F7101608168C90D21F0F00141F0F9
:102FA0003002816862F3DE518160C168C16802222B
:102FB00062F38A11C16001680168092262F3440169
:102FC0000160704707060204000010400103040579
:102FD000002010407047000002481721C06806F02A
:102FE0000FBE00004822002002481821C06806F0E9
:102FF00007BE00004822002002481921C06806F0E0
:10300000FFBD00004822002002480821C06806F0E9
:10301000F7BD00004822002002482321C06806F0C6
:10302000EFBD00004822002002480021C06806F0E1
:10303000E7BD00004822002010B512F00DFF1E224F
:103040000023FFF79DF910BD02480A21C06806F071
:10305000D7BD000048220020014948727047000097
:103060002023002001484068406C0047482200208F
:1030700010B54FF080446068400409D500F00CF8AA
:10308000216811F00F0100D10121B0FBF1F010BD5A
:10309000004810BD00366E010C48D0F8A801C002EF
:1030A00011D54FF08041086C0A6CC0F34500C2F3A3
:1030B000C53210FB02F0064A096CB2FBF0F0C1F316
:1030C000C7114843704700207047000000001040BF
:1030D00000366E014FF08041012806D0022803D14E
:1030E000C86820F08000C8607047886820F4844079
:1030F000886070474FF08041012806D0022803D134
:10310000C86840F08000C8607047886840F4844018
:10311000886070474FF08041012806D0022803D113
:10312000C86840F08000C8607047886840F48440F8
:103130008860704701484068006C004748220020C2
:1031400002480321C06806F05BBD00004822002051
:1031500002480421C06806F053BD00004822002048
:1031600002480521C06806F04BBD0000482200203F
:1031700002480C21C06806F043BD00004822002030
:1031800002480D21C06806F03BBD00004822002027
:1031900002481A21C06806F033BD00004822002012
:1031A00002480621C06806F02BBD0000482200201E
:1031B0000FB4054B10B503A9044A029800F0FEF8BD
:1031C00010BC5DF814FB00001D5D0002E02400202F
:1031D0000FB4084B10B504A902AA039800F0EEF84A
:1031E000044602A9002000F097FE204610BC5DF8BE
:1031F00014FB0000193F0002014B024A00F0E0BA44
:103200001D5D0002E0240020704770477047704742
:10321000704770477047704702E008C8121F08C126
:10322000002AFAD170477047002001E001C1121F47
:10323000002AFBD1704700002DE9FF5F82B000211A
:10324000DDE90430020DDDF840B0034318D044F648
:103250001050A2F2FF3242431514119801281FD0DA
:10326000A5EB0B00401C5FEA000A4FF000064E4F32
:10327000DFF83891B046504615D5CAF1000413E086
:10328000119801244AA3012801D16FEA0B01029889
:10329000119AC0E90031C0E9024206B0BDE8F09FD2
:1032A000CBF10000DFE704460021404A491842EB19
:1032B0000450CDE9001012E0E00707D032463B464B
:1032C00040464946FFF7C2F98046894632463B46AA
:1032D00010461946FFF7BAF906460F466410002C4F
:1032E000EAD1DDE90401DDE90023BAF1000F06DAD5
:1032F000FFF7ACF942464B46FFF7A8F905E0FFF7A8
:1033000017FA42464B46FFF713FA04460E460022D0
:10331000284BFFF795FA03D84FF0FF30014607E03E
:103320000022254B20463146FFF7E9F8FFF76FFAF8
:10333000102409E0002C0ADB0A220023FFF720F802
:10334000039B30321A55641E50EA0102F2D1641C0C
:10335000039AC4F111031444119A012A03D00122E3
:1033600008430DD10AE0084304D000204FF0110BB0
:10337000119072E7A3EB0B056D1E0DE05B4504DDBC
:103380004FF0000205F1010504E003DA4FF00002FE
:10339000A5F10105002AECD002981199C0E902318B
:1033A000C0E9004579E70000000014400000F03F4C
:1033B000300000000000F0430000E03F2DE9FF4F27
:1033C0008DB00F460546002606E025280BD0DDE926
:1033D0000F1290476D1C761C28780028F5D111B08B
:1033E0003046BDE8F08F0024A246A1460122E949FB
:1033F00000E0044315F8013F203B02FA03F00842C5
:10340000F7D128782A2810D06FF02F022878A0F161
:103410003001092914D80AEB8A0102EB410144F07A
:10342000020400EB010A6D1CF0E701CF5FEA000A1D
:1034300003D544F40054CAF1000A44F002046D1CA0
:1034400028782E2817D115F8010F44F004042A28F3
:103450000ED06FF02F022878A0F1300109290AD888
:1034600009EB890102EB410100EB01096D1CF2E758
:1034700057F8049B6D1C28786C280FD006DC4C286C
:1034800017D068280DD06A2814D104E0742810D011
:103490007A280FD10DE044F400140AE044F48014BB
:1034A00001E044F440146978814202D104F58014AB
:1034B0006D1C6D1C28786E281ED00CDC632830D063
:1034C00004DC00288BD0582811D19FE0642867D0F5
:1034D00069280CD164E073282DD004DC6F2872D0E9
:1034E000702804D194E075286ED078286DD0DDE97D
:1034F0000F129047761C4BE1C4F30250022806D00D
:10350000032809D0042801CF09D0066040E101CF8B
:10351000F117C0E900613BE101CF068038E1067098
:1035200036E117F8040B8DF8000000208DF801003B
:10353000EB46012003E057F804BB4FF0FF30610772
:103540004FF0000102D40DE008F101018846494521
:103550000FDA8045F8DB1BF808100029F4D108E0E9
:1035600008F1010188468142FADB1BF808100029A6
:10357000F6D1DDE90F23AAEB08008146214600F0D1
:103580009DFC304400EB080604E0DDE90F121BF857
:10359000010B9047B8F10108F7D221464846F2E006
:1035A0000A21C4F302524FF0000B0891022A04D002
:1035B00001CFC117032A09D00AE0FF1D27F0070732
:1035C000F7E8020108E02CE01EE01FE000B2C1179E
:1035D000042A01D140B2C117021E71F1000206DABD
:1035E0000023D0EB030063EB01012D2202E0220552
:1035F00004D52B228DF82420012203E0E20701D01C
:103600002022F7E7904653E00A210BE0102109E061
:1036100010214FF0000B44F004044FF0080908910A
:1036200003E008214FF0000B0891C4F30252022A74
:1036300004D001CF0021032A06D006E0FF1D27F0A9
:103640000707F7E8020103E080B2042A00D1C0B204
:103650004FF0000822072BD52A78702A07D0DDF812
:1036600020C08CF0100C5CEA0B0C05D00EE0402260
:103670008DF82420012208E050EA010306D030230F
:103680008DF824308DF8252002229046089B83F087
:10369000080353EA0B030BD150EA010201D1620780
:1036A00006D530228DF824204FF00108A9F1010938
:1036B0002A78582A04D038A20B9208AA0A920BE062
:1036C0003AA2F9E75B46089AFEF75AFE0B9B9B5C11
:1036D0000A9A521E0A92137050EA0102F2D10A9815
:1036E000ADEB000000F1200B600702D524F480341C
:1036F00001E04FF00109D94502DDA9EB0B0000E024
:10370000002000EB0B0141440890AAEB010AE00302
:1037100006D4DDE90F232146504600F0CFFB0644D6
:103720004FF0000908E009A911F80900DDE90F12BE
:10373000904709F10109761CC145F4DBE0030CD583
:10374000DDE90F232146504600F0B8FB064404E0B3
:10375000DDE90F1230209047761C0899481E08902A
:103760000029F5DC08E00A980A990078491C0A91BA
:10377000DDE90F129047761CBBF10001ABF1010BA4
:10378000F1DC21465046DDE90F2300F073FB0644CF
:103790006D1C21E6092801003031323334353637CB
:1037A000383961626364656600000000303132338D
:1037B000343536373839414243444546000000002D
:1037C0002DE9FF4F95B09A46884606460025EEE162
:1037D000252877D100242746F94A0121039400E0E7
:1037E000044316F8013F203B01FA03F01042F7D1E1
:1037F00030782A2811D06FF02F033078A0F13002F2
:10380000092A16D8039A44F0020402EB820203EB61
:1038100042021044761C0390EFE758F8042B039201
:10382000002A03DA504244F40054039044F00204A6
:10383000761C30782E2816D116F8010F44F00404B7
:103840002A280DD06FF02F023078A0F13003092B19
:1038500009D807EB870302EB4303C718761CF3E78D
:1038600058F8047B761C30786C280FD006DC4C2886
:1038700017D068280DD06A2814D104E0742810D01D
:103880007A280FD10DE044F400140AE044F48014C7
:1038900001E044F440147278824202D104F58014AD
:1038A000761C761C307866280BD013DC582877D02D
:1038B00009DC002875D04528F6D04628F4D04728E2
:1038C0001AD193E118E0632835D0642879D06528AF
:1038D00012D18BE1702873D008DC6728F1D06928F9
:1038E0006FD06E280DD06F2806D1ACE073282CD095
:1038F000752874D0782853D05246179990476D1C7C
:1039000054E1C4F30250022809D003280DD0D8F89E
:10391000001004280DD00D6008F1040846E1D8F825
:103920000010EA17C1E90052F6E7D8F800100D8040
:10393000F2E70D70F0E718F8041B8DF80010002076
:103940008DF80100EB46012003E058F804BB4FF06E
:10395000FF3061074FF0000102D40DE009F10101D1
:103960008946B9420FDA8145F8DB1BF809100029B6
:10397000F4D108E009F1010189468142FADB1BF824
:1039800009100029F6D103985346A0EB09072146F8
:103990003846179A00F0A9FA284400EB090507E019
:1039A00044E008E10DE01BF8010B524617999047DF
:1039B000B9F10109F7D2534621463846179AF2E089
:1039C00039E00A21C4F302524FF0000B0091022AA1
:1039D00006D058F8040BC117032A09D00AE023E0E7
:1039E00008F1070020F00702F2E80201904605E026
:1039F00000B2C117042A01D140B2C117002906DA6A
:103A00000A460021404261EB02012D2202E022051C
:103A100004D52B228DF80420012203E0E20701D017
:103A20002022F7E7914657E00A2100E010214FF0ED
:103A3000000B00910BE010214FF0000B44F0040448
:103A40000827009103E008204FF0000B0090C4F31A
:103A50000252022A05D058F8040B0021032A08D08C
:103A600008E008F1070020F00702F2E802019046A2
:103A700003E080B2042A00D1C0B24FF0000922074F
:103A80002AD53278702A07D0DDF800C08CF0100CEF
:103A90005CEA0B0C05D00EE040228DF804200122D8
:103AA00008E050EA010306D030238DF804308DF889
:103AB000052002229146009B83F0080353EA0B0382
:103AC0000AD150EA010201D1620705D530228DF8F2
:103AD00004204FF001097F1E3278582A04D039A201
:103AE0000C920CAA02920BE03BA2F9E75B46009A0B
:103AF000FEF746FC0C9B9B5C029A521E02921370CE
:103B000050EA0102F2D1029804A9081A00F1200B30
:103B1000600702D524F4803400E001275F4502DD10
:103B2000A7EB0B0000E0002000EB0B0100900398D6
:103B30004944401A0390E00306D453462146179A9D
:103B4000039800F0D2F90544002706E001A8524688
:103B5000C05D179990476D1C7F1C4F45F6DBE00355
:103B60000CD553462146179A039800F0BEF9054438
:103B700004E030205246179990476D1C0099481E6A
:103B800000900029F5DC08E002980299524600787E
:103B9000491C0291179990476D1CBBF10001ABF1D4
:103BA000010BF1DC5BE100F077F90544761C30781D
:103BB00000287FF40DAE19B02846BDE8F08F000054
:103BC00009280100303132333435363738396162F3
:103BD00063646566000000003031323334353637B7
:103BE000383941424344454600000000600700D494
:103BF000062708F1070020F00700F0E802238046BE
:103C000003F0004C5FEA0C0001D097A009E020050A
:103C100001D596A005E0E00701D095A001E0AFF244
:103C20004C001390307823F0004365280CD006DC5C
:103C3000452809D046281DD047287FD13BE066287B
:103C400018D067287AD136E00021112F01DB11202E
:103C500000E0781CCDE9000104A90CA8FFF7ECFAFC
:103C6000DDE90D010C9A4FF0000B07F101091092EC
:103C700000914EE04FF000400097CDE9011004A9FB
:103C80000CA8FFF7D9FADDE90D020C9B0F994FF054
:103C9000000B91461093009211B9791C00EB0109B9
:103CA000B7EB090003D4C0F1FF3B07F10109A9EB11
:103CB0000700019042E0012F00DA01270021112FB7
:103CC00001DD112000E03846CDE9000104A90CA86F
:103CD000FFF7B2FADDE90D010C9A00914FF0000BED
:103CE000B946109221070FD4009A4A4503DA91464B
:103CF00001E0A9F10109B9F1010F05DD109AA9F15F
:103D00000101515C3029F4D0B84202DA10F1040FFD
:103D100003DA0121CDE9011010E0002803DC83441F
:103D2000A9EB000102E0411C494500DD8946A0EBFA
:103D30000B00401C01904FF000400290200705D47A
:103D40000198484502DB4FF0FF30019000208DF8CC
:103D50004B0002980DF14B07B0F1004F25D0022027
:103D60000C902B200D90029800280CDA4042029013
:103D70002D200D9007E00A210298FEF78BFB3031D1
:103D8000029007F8011D0C99481E0C900029F2DCE6
:103D900002980028EFD1791E0D980870307800F055
:103DA000200040F0450007F8020D11A8C01BC01DFF
:103DB00002901398007800B1012000EB09010198EE
:103DC00001EBE071029801440398401A401E0390F1
:103DD000E00306D453462146179A039800F085F86D
:103DE00005441398007818B15246179990476D1CF6
:103DF000E00323D553462146179A039800F075F83F
:103E000005441BE0BBF1000F07DB0098584504DDBB
:103E10001098179910F80B0001E0179930205246BE
:103E2000904701980BF1010B401E05F1010501902F
:103E300004D12E205246179990476D1CB9F100010C
:103E4000A9F10109DEDC05E017F8010B52461799CC
:103E500090476D1C0299481E02900029F4DC5346DD
:103E60002146179A03989EE62D0000002B000000C3
:103E7000200000002DE9F041044600251E461746AB
:103E8000880404D405E039462020B0476D1C641E28
:103E9000F9D52846BDE8F0812DE9F041044600251A
:103EA0001E461746880404D405E039462020B04752
:103EB0006D1C641EF9D52846BDE8F0812DE9F0415E
:103EC000044600251E469046C80301D5302700E071
:103ED0002027880404D505E041463846B0476D1CCC
:103EE000641EF9D52846BDE8F0812DE9F04104466D
:103EF00000251E469046C80301D5302700E0202744
:103F0000880404D505E041463846B0476D1C641E60
:103F1000F9D52846BDE8F0810A68531C0B60107083
:103F2000704700002DE9F05F06460088C0F30B00E3
:103F3000824605F0F1F80400707875884FEA101792
:103F400009D005F10408884508D02A1DBDE8F05FB6
:103F50003448FFF75DB9514633A01DE001F014F974
:103F600007F00301002740F2031B6063012903D01F
:103F700002292BD03BA00FE0A08F58B14119B1F519
:103F8000827F0DD353465A464648FFF741F9A7872B
:103F9000BDE8F09F514644A0BDE8F05FFFF738B997
:103FA000A16B2A460844311D0E30FEF72DFAA08F72
:103FB000284481B2A187E08F083081422ED3A06BC4
:103FC0000E3005F013F9E787A78727E0A08F20B10F
:103FD00051464448FFF71CF9A787B788381D81462A
:103FE000854205D31FFA88F1304605F0FFF815E049
:103FF000FF2D07D953465A46291DBDE8F05F3A48C0
:10400000FFF706B9A06B2A1D31460E30FEF7FCF90A
:10401000A4F83C80E787A16BA1F81090BDE8F05FA1
:1040200005F03CBC142802026863692E633A2061E3
:10403000636C5F68616E646C65722063616C6C6553
:10404000642077697468206E6F6E2D72656769737E
:1040500074657265642068616E646C6520257521E5
:10406000000000006863692E633A2061636C5F683A
:10407000616E646C65722063616C6C656420776945
:10408000746820696E76616C6964207061636B6529
:104090007420626F756E6461727920666C616773FB
:1040A00020257500D028020241434C20436F6E74D6
:1040B00020467261676D656E7420627574206E6F44
:1040C00020666972737420667261676D656E742014
:1040D000666F722068616E646C65203078253032BE
:1040E00078000000C02702022429020210B5054909
:1040F0004FF6FF7302E084788C54C01C02889A4209
:10410000F9D110BD0000124010B50B46002803D1B4
:104110001146184607F080FC10BD70471CB50649D3
:104120008C68002C07D0002100910191B0F80601A5
:104130000B460322A0471CBD7C22002070B50D4613
:1041400000281FD1002D1DD10F4C4FF4947620680C
:1041500018B9304600F05CFF2060040012D03146F0
:104160002046FEF778F9A4F8065104F58071284638
:1041700002F036FF06F054FEA4F802014FF0FF30C3
:10418000A4F8080170BD000090220020F8B5164682
:10419000028A069F521A94B2C288D2050AD50B4AE7
:1041A00055683DB1009300890A46014633463846BA
:1041B000A847F8BD9C4200D91C46406922460144EC
:1041C0003046FEF721F92046F8BD00007C22002091
:1041D000042105F023BF042106F032BF0249086024
:1041E0000421024806F0A2BE8822002031470002C6
:1041F000024948600421024806F098BE8822002047
:1042000031470002042105F009BF042106F018BF60
:1042100000B58BB0D0F82401009023E0684600F090
:1042200025FABDF8081000291ED0BDF806200FA001
:10423000FEF7EAFFBDF806008005039808D506A939
:1042400019F0B6F906A81CF0C1FA014611A001E068
:10425000018811A0FEF7D8FFBDF8101010A0FEF7DE
:10426000D3FF00980028D9D10BB000BD48616E641F
:104270006C653A203078253034782C20666C616784
:10428000733A203078253034782C20757569643A7B
:104290002000000025730000253034780000000065
:1042A0002C2076616C75655F6C656E3A2025752CE7
:1042B0002076616C75653A2000000000064A30B433
:1042C0005468002C06D00B46A4460246002130BCA0
:1042D0000420604730BC7047902200207CB5144613
:1042E000042819D120783E283FD016DC052846D076
:1042F000082801D030280FD1B2F80350284600F02A
:10430000BDF8040008D028461AF051F804F8FD0F53
:10431000284619F025FD60707CBDD7284CD0D828E0
:104320003BD0DA28F8D1608800F0A8F80500F3D077
:10433000B5F8060104F0F0FE0600EDD02079317AE0
:104340008842E9D16946601D19F041F906223146DB
:104350006846FEF792F80028DED1E07A85F8FF0083
:10436000B5F80601FFF751FF7CBDA078012801D008
:104370000A28F9D19188D078FFF7E0FE7CBDB2F829
:104380000340204600F07AF80028F7D000F046FEFF
:104390000F49002041F824007CBD608800F06EF8D1
:1043A0000500F9D0B4F80B0001B2A5F8081109A076
:1043B000FEF72BFF284608E0508800F05FF8002841
:1043C000EAD04FF0FF31A0F8081100F093FA7CBD5D
:1043D00090220020534D5F4556454E545F49444559
:1043E0004E544954595F5245534F4C56494E475FBE
:1043F0005355434345454445442069642025750091
:104400003EB50C468DF8080000208DF8092000907C
:104410000190022302AA0421204607F00DF83EBDB8
:104420007FB50DF1200C14469CE864008DF808005F
:10443000ADF80930ADF80B20ADF80D10CDE9005600
:10444000072302AA0421204606F0F6FF7FBD70B5BF
:1044500015000C4603D0D0F82401206008E00020AD
:1044600070BD204600F002F92089A84203D02068E0
:104470000028F6D170BD012070BD000008B10020F9
:104480007047014800687047902200202DE9FF41E5
:104490000F7815460024B0F800214E1DBC460E2FA3
:1044A00074D00BDCA7F102070B2F15D2DFE807F061
:1044B0001C142E1438144B145C146300182F6FD086
:1044C00006DC102F70D0122F7FD0162F04D181E080
:1044D000522F68D0D22F66D0614646A0FEF794FED8
:1044E00004B02046BDE8F081B1F80110B0F8022117
:1044F0008A4202D9A0F8001101E0A0F800210324AB
:104500001C70B0F80001A3F80100E9E71C46B1F8FF
:1045100003300093B1F80130214603F0FBFA10E0BC
:104520001C46ED1FB1F80570B1F80360CB1DADB2AC
:10453000CDE90253CDE90067B1F80130214603F01F
:1045400055FA0446CCE70C461946072D01D802233C
:1045500000E01023B4F80350CDE900530296B4F8FC
:10456000013003F0B7FCECE71C46B1F801302146FE
:1045700003F0CCFDE5E71C46B1F803300093B1F839
:104580000130214603F09CFBDBE7FFE71C46491C9A
:104590006D1E0091C5F34F03214603F045FDD0E7A2
:1045A0001DE001E011E01FE00C461946072D01D87F
:1045B000022300E01023B4F80350CDE90053029623
:1045C000B4F8013003F0ECFBBBE700922A4603F09D
:1045D00029FEB6E700922A4603F014FBB1E70092E9
:1045E0002A4603F0D1F9ACE700922A4603F0EAFD2F
:1045F00076E70000556E68616E646C656420415416
:104600005420436F6D6D616E643A20253032582C12
:1046100020444154413A20001CB50B4B5C68002CEF
:1046200010D0B6238DF8003005238DF801308DF8B9
:104630000200ADF80310ADF80520072300216A46FB
:104640000420A0471CBD00009022002010B580B2BD
:10465000FFF714FF002808D0B0F80A21B0F80611BF
:10466000BDE810409120FFF7D7BF10BD10B501681D
:104670000A8882806AB14B88C3808C8804818C1D33
:10468000C4609B050CD5A2F11603038201F1160349
:104690000BE00021C1800181C1600182416106E01F
:1046A000A2F10803038201F1080311444361016090
:1046B00010BD70B5044600890D4600281BD0022AA3
:1046C00008D0E08880050BD51022E068FDF7D5FE04
:1046D00080B111E009882046BDE8704000F00EB8B6
:1046E000084605F011FB002805D0E168A889098873
:1046F000884201D1012070BD002070BD70B5044614
:1047000000890D46002810D0E0888005E06808D5B3
:1047100005F0FAFA002808D0E0688089A84203D0A2
:1047200004E00088884201D1012070BD002070BDE6
:104730002DE9F041194C06461F46154688460428C7
:1047400009D0082E28D12878C00720D0D4F800C07E
:104750001FE03046E047287878281DD1D4F804C0FF
:10476000BCF1000F08D03B462A4641463046E047A0
:1047700004F0CEFB00280FD02468002C0CD03B4660
:104780002A4641463046A446BDE8F0416047D4F889
:1047900004C0BCF1000FDCD1BDE8F081882200200C
:1047A0002DE9F0410F461546044601461E46127893
:1047B00028A0FEF72AFD042C0CD0082C48D138463E
:1047C000FFF75CFE040043D029781E2909D0522946
:1047D00019D01FE0287878283AD1BDE8F04100F0E0
:1047E00011B9B4F80A01A8B104F5867000F0CEFC46
:1047F000B4F80A210020A4F80A01B4F80611BDE8B3
:10480000F041FFF709BF32462946BDE8F0410023D9
:10481000FFF73CBEFB2E06D93246BDE8F041FB2334
:104820001948FEF7F2BC227822B1BDE8F0411748E2
:10483000FEF7EBBC01202070A4F804613246294643
:10484000A01CFDF7E1FD2046BDE8F04100F052B8A4
:10485000BDE8F0816174745F7061636B65745F685B
:10486000616E646C65723A207479706520307825C9
:104870003032782C207061636B65745B305D203062
:104880007825303278000000AC2602026026020251
:1048900010B5B0F80001029CC01E80B21970A3F8D8
:1048A0000120844200D8204610BD1FB514468DF863
:1048B0000800069AADF80930ADF80B20ADF80D10E0
:1048C000002000900190072302AA0421204606F050
:1048D000B3FD1FBD3EB50C468DF80800ADF80920AC
:1048E000002000900190032302AA0421204606F034
:1048F000A3FD3EBD2DE9FF410446017824A0FEF74B
:1049000084FC207801282DD1A078D22808D003205B
:104910002070B4F8060104B0BDE8F041FFF775BCA3
:1049200019F0F0FB0027E0B1B4F804010F2818D308
:10493000B4F8060119F0C2FF002813D1B4F9080138
:1049400006F022FF05000CD0B4F80411A4F10A000F
:104950000E58696C324611A0FEF757FC686CB042E5
:1049600002D92770BDE8FF8102202070B4F803202F
:104970001749601DCDE90006CDE90214B4F8040121
:10498000A1780F3883B205F1340019F0C5FBE9E7CF
:104990006174745F72756E3A20256400415454202E
:1049A0005369676E65642057726974652C204442B0
:1049B00020636F756E7465722025752C207061639D
:1049C0006B657420636F756E7465722025750000C9
:1049D000894C0002FFF716BC0EB50B21CDE9002370
:1049E0008DF80810012302AA042106F025FD0EBD52
:1049F00000B5FFF743FD10B1B0F8000100BD17206E
:104A000000BD000038B513480468002C20D0207881
:104A100003280CD1204600F0A5F840B160780028AA
:104A200016D0B4F80601BDE83840FFF7EEBB607859
:104A300000280DD00020607007A000680090054895
:104A40004468002C04D0022300216A460420A047B9
:104A500038BD000090220020B70000002DE9FE4381
:104A60001F4616460D468046FFF708FD040005D098
:104A7000B4F80A0120B19020BDE8FE835920FBE77D
:104A80004046FFF7BFFB88B102AB2A461D212046F6
:104A90000097FFF7FDFECDE90060032302AA042181
:104AA000404606F0C9FC060002D014E05720E3E7B8
:104AB000A4F80A5104F5867042460849044600F0FD
:104AC00097FB47F2305240F28241204600F07CFBD7
:104AD000204600F051FB3046CEE700004D46000274
:104AE00070B505460B480A4C0E46446004F0E4F9E4
:104AF00008480830446018F0D7FE0748FFF778FBF5
:104B0000284600F0B5F83046BDE8704000F0B6B871
:104B1000DD42000298220020A14700022DE9FE4359
:104B20001E4615460F468046FFF7A8FC040014D029
:104B30004046FFF767FB90B102AB3A461B21204687
:104B40000096FFF7A5FECDE90050032302AA042139
:104B5000404606F071FCBDE8FE835920FBE7572074
:104B6000F9E700002DE9FC412F4E002707700446AD
:104B7000B0F804213346811CFFF788FC0546A0F5F8
:104B80007F40FF3823D0042D0FD3307801280CD17B
:104B90003079082809D194F8FE0030B1B4F8060144
:104BA00019F005F978B1012811D085B10097019766
:104BB000B4F806012B463246042106F03DFC30785D
:104BC000032807D02DE0B4F806011AF00FFB0020EF
:104BD000BDE8FC81154AB4F80611B4F80001556827
:104BE00075B1B5228DF8002004228DF80120ADF8B2
:104BF0000210ADF80400062300216A460420A847ED
:104C0000B4F8060100F084F809480078C00708D01D
:104C1000B4F800010022001D81B2B4F8060101F0D1
:104C200007FC0120D4E70000742A00209022002015
:104C3000A82200200149486070470000902200200F
:104C400010B50246FFF71AFC002806D0012141707A
:104C5000BDE810401046FFF7D8BA10BD10B50C469D
:104C6000FFF70CFC002801D0C0F8244110BD000063
:104C700001494860704700007C220020014988609B
:104C8000704700007C2200207CB5044600780A466C
:104C900002280ED16946104618F096FCB4F80411AB
:104CA000A01F014408226846FDF7E7FB10B1002071
:104CB00020707CBDB4F80411A4F10A000E58B4F9B8
:104CC000080106F061FD050001D0012000E0002090
:104CD000E52207A1FFF718FA45B1761C6E640320A0
:104CE0002070B4F80601FFF790FA7CBD72B6FEE7BB
:104CF0006174745F7365727665722E6300000000E4
:104D00000A6882654968C1653521017002F0FABA06
:104D100070B5054602F02AFE04000BD02846FFF7C6
:104D2000ADFB002806D0E28AB0F800118A4202D911
:104D3000A0F8002170BDE18270BD0000F8B5044606
:104D4000C0880E46C0050BD506484568002D07D023
:104D5000002000900346024621893046A847208261
:104D6000F8BD00007C2200207CB50E46C9880446B0
:104D70000D0B00D06D1C94F8FD2094F8FE00CDE9D9
:104D8000000294F8FF302A461048FEF73DFAF088FA
:104D9000410502D594F8FE1079B1000502D594F8CA
:104DA000FF0060B1002D02DD94F8FD0048B194F8D9
:104DB000FD00A84207DA0C207CBD05207CBD082040
:104DC0007CBD0F207CBD00207CBD0000F0250202D0
:104DD0003EB50C468DF808000699ADF80920CDE9DE
:104DE0000013032302AA0421204606F025FB3EBD42
:104DF0002DE9F047994617460C460646DFF86080D5
:104E000011E0301900EBD070451049462846B847EC
:104E1000404502D1A8B2BDE8F08702D905F10106EC
:104E200001E0A5F10104A642EBDD49463046B84752
:104E3000054649462046B847094B014640465B4275
:104E4000854201D3EA1800E0421B814201D3C81811
:104E500001E0A8EB0100824200D83446A0B2DAE7B4
:104E600080841E000622FDF708BB0A68026089885C
:104E70008180704710B50C49002203463A24985CA3
:104E8000000900F08AFA0870985C00F00F0000F04A
:104E900084FA48708C70C91C521C062AEFDB002073
:104EA00001F8010C004810BD552500200844008879
:104EB00040BA70474218405C5378528852BA63F344
:104EC0001F4242EA00607047130A4354491C89B2EA
:104ED00042547047130E4354491C89B2130C435477
:104EE000491C89B2130A4354491C89B24254704781
:104EF00010B503F041FBBDE81040012000F008B8F8
:104F000010B5012100F0A6FBBDE81040FDF754BD2F
:104F100010B50446FDF74EFE034801882143018089
:104F2000BDE81040FDF754BE582400200248006838
:104F3000816A0248006808474C2200205C22002059
:104F40000149086070470000A8220020026813464B
:104F500002E08A4204D01268002AFAD10B60016094
:104F6000704702E08A4205D010460268002AF9D153
:104F70000A6001607047006808B100207047012096
:104F8000704704E0884201D1012070470068002882
:104F9000F8D170470268816832B140680068884281
:104FA00000D1086808B9704709B101207047002096
:104FB00070470022C0E900210968816070470168DC
:104FC00051B141680A6881688A4203D14160096829
:104FD000816003E0826001E0012101608068704728
:104FE0008168096881604268116000210160704732
:104FF0004FF0FF3351B107E002688A4203D10968DC
:1050000001600020704710460028F5D1184670470F
:1050100001490968C96A08474C220020014909680A
:10502000096B08474C220020FFF7F8BF7820FFF7F4
:10503000EFBF10B50446806B06F032FC2046BDE899
:105040001040FFF7EBBF70B59820FFF7E1FF0400B9
:105050000CD040F2111006F055FC050008D0982144
:105060002046FDF7F8F92046A56370BD002070BD0D
:105070002046FFF7D3FFF9E77047FFF7CFBF542073
:10508000FFF7C6BFFFF7CABF1420FFF7C1BF2DE966
:10509000F04106460020984617460C46054630600B
:1050A00005E02146304600F007F844446D1CBD423F
:1050B000F7DBBDE8F081000030B40268134607E07A
:1050C0008B4204D1024630BC04A0FEF79FB81B6897
:1050D000002BF5D10A60016030BC704762747374B4
:1050E00061636B5F6D656D6F72795F706F6F6C5F21
:1050F000667265653A20626C6F636B20257020666E
:105100007265656420747769636520666F722070CC
:105110006F6F6C2025700000016819B10A68026089
:105120000846704700207047FFF778BF0C20FFF754
:105130006FBF000000B589B00DF1080C0190064862
:10514000006805928CE80B00044909688A69694681
:10515000904709B000BD0000602200204C220020D2
:1051600013460A4601460A20FFF7E4BF13460A46E3
:1051700001460C20FFF7DEBF024940690968496813
:10518000084700004C2200200020704710B504465C
:10519000406928B103490968C968884700206061EF
:1051A000002010BD4C22002070B5064D0446406919
:1051B000296889688847296860694968BDE870403E
:1051C000084700004C22002070B504468160054865
:1051D0001546054A006821460368284698476061DD
:1051E00070BD00004C220020352E00020161704786
:1051F000C0E90312704700000249406909688968E4
:10520000084700004C2200202DE9F04107461148D4
:1052100015460E46046898463888B4F8BC2034F821
:10522000BA1F00F051F9388062882188308800F078
:105230004BF93080E288A188288800F045F9288061
:1052400062892189B8F8000000F03EF9A8F8000052
:10525000BDE8F0813C09020270B50C00054601D0A2
:10526000012000E000206A2206A1FEF74DFF28463B
:1052700000F014F810B100206C60206028682060F5
:105280002C6070BD6C6973745F62617369632E63B7
:10529000000000000021016041607047006808B113
:1052A0000020704701207047006808B10020704757
:1052B00001207047016819B10A68026012B103E069
:1052C0000022FAE7002242600846704770B50546A2
:1052D00000680C4600B10120C32209A1FEF714FFAB
:1052E000206800B10120C42205A1FEF70DFF696806
:1052F000206808606068686000202060606070BDA1
:105300006C6973745F62617369632E6300000000EF
:1053100070B5034600200246012513F80240002123
:1053200005FA01F6344201D0401C80B2491CC9B2D2
:105330000829F5D3521CD2B2052AEED370BD70B540
:105340000446008918F05EF92521B0FBF1F201FB5B
:105350001201CA0801F00705A25C0123AB401A4202
:1053600001D0084670BDE18841432046BDE8704049
:10537000C1F3074102F0CABA30B504461068206094
:1053800010790D4600F01F0020712046FFF7C0FF86
:10539000E08085EA1540208130BD0A2801DA3030EE
:1053A00003E00A38062802DA4130C0B270473F20D5
:1053B000704770B50446C08E88B0002822D0258F73
:1053C00094F83430A2268DF800601A268DF801601A
:1053D000A6890A46ADF80400ADF8082004F11C01C6
:1053E000ADF80260ADF80650ADF80A30102203A8FF
:1053F000FDF70AF8A1891C236A46A06800F06AF943
:105400000020E08608B070BD04481144814203D9F1
:10541000012018600320704700207047372A0020C1
:10542000234810B5016841F470010160214CD4F8A3
:10543000A80120F4C050C4F8A801D4F800018007E6
:105440002FD5FDF761FD1C4881681C4A21F4F0410D
:1054500011438160016921F080010161816921F0BE
:1054600000418161C16841F00401C160D4F80011BC
:105470008907FBD44169124A01F0C04111434161DF
:10548000016921F078410161BFF34F8F08487C38F2
:1054900001680C4A01F4E06111430160BFF34F8FD2
:1054A000FEE7D4F82C0140F08000C4F82C0110BDB8
:1054B00088ED00E00000104000201040002800802F
:1054C000C7E8948A0400FA0519B1884201D2084657
:1054D0007047002AFCD09042FAD9104670474368C2
:1054E0008B4204D18068904201D101207047002096
:1054F00070470000F8B5114C2021606842694020D7
:105500009047A0616068006A804760610120009058
:1055100060684FF48066334605690022084909A097
:10552000A847E061002000906068334600220569CA
:10553000064907A0A8472062F8BD000048220020C5
:10554000692B00026374726C0000000079D20102C2
:10555000686F73740000000010B508780C4648B1FD
:105560000848007800070AD50022BDE81040022054
:1055700004F06EBB04F0A3FB00222146F5E70020F7
:1055800010BD00004822002070B51D4606460C469E
:10559000012809D120782968884205D10622211DD9
:1055A0006868FCF76AFF08B1002070BDC5E90264B5
:1055B000032070BD0248417A491C417270470000C7
:1055C0002023002010B5044603F0C4F8002010F09A
:1055D000B5FB11F06DF810F0A5FA08F0CFFA0CF059
:1055E000A3FC12F041FB16F04FF9002C03D0BDE8EC
:1055F000104011F096BC10BD70B50446B0F1A53F47
:1056000019D0B4F1C33F16D001231A0205211D2081
:10561000FDF7D7F90546B4F1F23F09D0922206A171
:105620000020FEF771FD2846BDE87040FDF7CEB9B9
:1056300007202870F7E770BD6474626C652E630004
:1056400003484FF40031C1644FF40831816470475E
:1056500000001140F8B505461B480E4600210180A8
:1056600010F0A4FB1AF002FD17F064F9684610F080
:10567000DFFB0446009840F68C114FF4A567884282
:1056800001D3012000E00020842210A1FEF73CFDA0
:105690003A462146002017F0A5F9009804F5A561C7
:1056A000A0F5A56082B2012017F09CF91AF06AFCFF
:1056B0003046FFF787FF002D04D02846BDE8F840AC
:1056C000FFF79ABFF8BD0000582400206474697089
:1056D0002E63000030B4040003D0A44630BC042084
:1056E000604730BC7047FEB51E4617460C4605465F
:1056F00002F03CF9002816D0011D6846FFF759FC5E
:105700000CE06846FFF75BFC0189A14206D1D0F8A6
:1057100004C033463A4629460420E0476846FFF76E
:1057200039FC0028EDD1FEBD1CB5A0228DF800206B
:1057300003228DF801208289ADF802208DF8041033
:105740008189806805236A46FFF7C4FF1CBD30B518
:1057500087B00446A3250A988DF8005018258DF8C7
:105760000150A589ADF80410ADF806200146ADF84A
:105770000250ADF8083010220DF10A00FCF744FE8B
:10578000A1891A236A46A068FFF7A4FF07B030BDBD
:1057900010B586B00446A1208DF8000016208DF8C3
:1057A0000100A089ADF80410ADF80200ADF80620A4
:1057B0001022194602A8FCF727FEA18918236A4681
:1057C000A068FFF787FF06B010BD00002DE9F05F6D
:1057D00000249246894605462746264626E000BF15
:1057E00005EB8400B0F9021035F9240017F038FFFA
:1057F000834605EB8800B0F9021035F9280017F050
:105800002FFFABEB000043F6FF71884203DBA0F5EE
:10581000FE40FF3806E043F6FF71C84202DC47F65F
:10582000FF710844074404EB4904761C04EB0908A3
:10583000D045D5DB97FBF6F0BDE8F09F2DE9F043AE
:1058400042780446901C89B00E46814206D009B0C9
:10585000EA48BDE8F043921CFDF7DABC2178E8A0E5
:10586000FDF7D6FC2078DFF8A8834FF00009122856
:1058700074D00CDC0E2811D004DC05286FD0082869
:1058800052D17AE00F2846D010284DD198E0132845
:1058900051D03E2870D0572846D190E1D8F800006A
:1058A000A278454690F84210DAA0FDF7B1FC617984
:1058B000E1A0FDF7ADFC2968A07881F84200E3493A
:1058C000B4F80300098888422AD0E149098888424F
:1058D00026D0E0490988884222D0DF4909888842D9
:1058E0001ED0DE490988884203D12968601D243111
:1058F0000EE0DB490988884203D12968601D283100
:1059000006E04FF6014188420AD12968601D2C311A
:1059100003F0EEFA04E0D8F80000E17880F84210D5
:10592000D8F80010A1F87690D8F8000090F8580048
:10593000012878D04FE10325002719E0625BAD1CF8
:10594000615B1046AD1C03F0E7FB48B190F84020C6
:105950008A420AD3511A80F8401008E035E026E068
:105960001146C0A0FDF754FC01E080F840907F1C78
:10597000A078B842E2DCD7E733E0B4F80350284619
:1059800003F0CAFB0028CFD0A17849B9617900297A
:10599000816902D041F4004101E021F400418161BC
:1059A00000F034FC0146284603F098FCBCE7B4F84C
:1059B000030003F0B1FB0028B6D007214174B3E720
:1059C00003F0F0FE03F002FFAEE7A0780028ABD1B1
:1059D000B4F8030003F0A0FB0028A5D0617A01749D
:1059E000A2E7A07806287DD012DC012820D0042868
:1059F0009AD1E078002876D1A08803F08DFB0028AA
:105A000071D0A17980F88910012180F888108BE786
:105A10000A280DD0122887D12079082884D2E1786D
:105A2000002973D000E0D2E09CA0FDF7F1FB7BE7FA
:105A3000E07800289FD1A7884FBBD8F800004546E2
:105A4000406918B9FFF7FFFA296848612868A84635
:105A50004569E5B1EF800220C5F81890A8742A4680
:105A6000974905F11C00FFF7C3FBFFF78DFB686347
:105A7000E0792872294604F1080017F0A8FD0520F6
:105A80006874A0792874A0780A2804D012E0A0884D
:105A900000F0AEF948E7D4F80E10C5F88A10618A14
:105AA000A5F88E106169C5F89010218B05F1800072
:105AB000A5F89410E089A5F85200287C60B9D8F8C0
:105AC000001091F84010E973D8F8000005F10901C1
:105AD00090F8400000F046FA2846FFF7CBF902465E
:105AE000E98801E013E06FE076A0FDF791FB03F099
:105AF000CBFBD8F8000090F84E00C00687D5E988A7
:105B000040F6B832774803F03BFC0DE72DE034F85F
:105B1000037F384603F000FB05006088ADF81400F1
:105B2000A088ADF81000E088ADF818002089ADF825
:105B30001C00A4F10304ADD007AB06AA04A905A874
:105B4000FFF762FBBDF81800B5F85630B5F85420E1
:105B5000BDF81C108DE80F00BDF81030BDF8142002
:105B60003946614803F00CFCDEE6B4F80520104627
:105B700003F0D2FA054621795CA0FDF749FB2079B4
:105B8000D8F80020C0EBC001114491F88110E973EE
:105B900069B12179D8F80000C1EBC101014401F1DC
:105BA0008000D1F8821045F8091FC08805E0D8F8B8
:105BB0000000416B45F8091F008FA880B4E660889B
:105BC00003F0AAFA0028A0D109B0BDE8F083B1B271
:105BD000204603F07BFCB1B2204603F02DFB207879
:105BE000052806D1B4F8030003F096FA08B103F0D3
:105BF0003DFF09B0BDE8F04303F050BE702802023B
:105C00004843493A4556454E543A253032780000CB
:105C10003C090202434D445F434F4D504C455445AF
:105C200020636D6473206F6C64202575202D206EB9
:105C30006577202575000000636D645F636F6D708C
:105C4000207374617475732025750000040B0202C3
:105C50000C0B0202EC0A0202FC0A02028C0A02028B
:105C6000940A02026863695F6E756D6265725F63B4
:105C70006F6D706C657465645F7061636B657420D3
:105C80006C6973747320756E7573656420636F6ED1
:105C90002068616E646C6520257500006164762063
:105CA000736574207465726D696E617420647565C6
:105CB00020746F20636175736520307825780A0041
:105CC0002D9100024E657720636F6E6E6563746977
:105CD0006F6E3A2068616E646C652025752C2025F6
:105CE000730000002C0A0202B40A020261647620EA
:105CF00068616E646C6572203078257820636F6E01
:105D00006E656374656420746F20636F6E206861D4
:105D10006E646C6520307825780A000010B5044662
:105D200003F0C6FF204610BD70B5064615460C466A
:105D30000C20FFF76DF901463046C1E90145BDE889
:105D40007040FFF70EB9000013460A4601460148AD
:105D500003F016BB5C0B02020246014803F010BBC5
:105D60005C0A020270B588B00C461D4616466946AC
:105D700017F01EFC04A9204617F01AFC04AA694675
:105D8000074803F0FDFA040006D106482A463146CA
:105D900000682430FFF7C8FF08B0204670BD00003F
:105DA0008C0A02023C090202014803F0E9BA000031
:105DB000540A0202014803F0E3BA00000C0B02028D
:105DC000014803F0DDBA00006C0B0202014803F049
:105DD000D7BA00004C0A020208B5009313460A46DF
:105DE0000146024803F0CCFA08BD0000A0090202F7
:105DF00010B5034603F090F940B106214174132217
:105E00001946054803F0BCFA002010BD00211846D1
:105E100003F0FEF9F8E70000140A020238B54FF06B
:105E2000FF30ADF80200ADF8000006250DE0684631
:105E300003F0C0F90446407C062806D0E18813220E
:105E4000054803F09DFA00B96574684603F092F9BD
:105E50000028ECD138BD0000140A02022DE9FF4FE2
:105E6000DFF8A8A085B00024DAF80020DDE9126987
:105E70001268DFF894808B460A2000EB0611536904
:105E80002746B8F8000003AA9847050001D0012171
:105E90000FE0562009B0BDE8F08F00BF04EBC4024C
:105EA00019F81220521E01FA02F03843641CC7B2DE
:105EB000E4B2B442F2D3DDE907018DE883005B462A
:105EC000D8F804102846059A03F01DF9C7B200243B
:105ED0000DE000BF04EBC40109EB4101E8191022F9
:105EE000891CFCF791FA1037641CFFB2E4B2B4428B
:105EF000F0D3DAF80010404681F840B02946039A02
:105F000003F07AFD0020C5E73C0B02023C090202C7
:105F100070B506460D46074803F032FA040006D174
:105F200005482A46314600682830FFF7FDFE204626
:105F300070BD0000940A02023C0902020248006897
:105F400090F87800704700003C0902020449096893
:105F500051F8BA2F02604A684260896881607047D0
:105F60003C090202064A0028106804D0D0F83A2002
:105F70000A60C08F02E0426B0A60008F8880704721
:105F80003C0902020146014803F0FAB97C0A020208
:105F9000034909684A6B0260098F818070470000DD
:105FA0003C09020210B50446014604A0FDF730F991
:105FB000022C01D9012010BD002010BD6761705F67
:105FC0006D69746D5F70726F74656374696F6E5F15
:105FD00072657175697265645F666F725F73656320
:105FE00075726974795F6C6576656C202575000043
:105FF0007FB50DF1200C9CE870008DE87800134609
:106000000A460146024803F0BBF904B070BD000027
:10601000440B0202014803F0B3B900004C0B02022A
:1060200013460A460146014803F0AAB99009020244
:1060300013460A460146014803F0A2B98809020244
:106040001CB5049CCDE9003413460A4601460248BB
:1060500003F096F91CBD00009809020201460148B0
:1060600003F08EB9540B02020448817A012903D14E
:106070000221817219F01EB9704700002023002010
:10608000074810B5026C40F282210648FFF79CF8E1
:106090000448FFF771F8BDE81040FFF7E5BF0000C6
:1060A00020230020C02B002010B5002207490848FB
:1060B000FFF79EF8074840F28221026C0448FFF780
:1060C00083F8BDE810400248FFF756B8816000022F
:1060D000C02B002020230020014803F051B900000C
:1060E000440A0202014803F04BB900007809020299
:1060F000014803F045B90000740B02020146014853
:1061000003F03EB9C40A02020146014803F038B95F
:10611000840A02020146014803F032B91C0A020255
:106120000146014803F02CB9340A02020246014834
:1061300003F026B9640A02022DE9F0410E46074633
:1061400002F0EAFF050010D0384600F055F804468A
:106150000246314608A0FDF75BF8B44207D321465A
:106160003846BDE8F04103F0B9B80121F8E7AE7454
:10617000BDE8F04103F092BB6761705F72657175B5
:106180006573745F73656375726974795F6C657646
:10619000656C2025752C2063757272656E74206C99
:1061A0006576656C202575000146014803F0E8B866
:1061B000040B020213460A460146014803F0E0B808
:1061C000640B020213460A460146014803F0D8B8A0
:1061D000B0090202F0B585B00DF1280C9CE8F00082
:1061E0008DE8F80013460A460146024803F0C8F855
:1061F00005B0F0BDC009020210B502F08DFF18B164
:10620000BDE8104000F002B8012010BD10B1008BB5
:10621000000401D40120704702207047022070471B
:10622000074BC0EBC0021B681A440B6842F8823F60
:106230008B8893800A460146024803F0A1B800000B
:106240003C090202DC0A020200B10120024909688D
:1062500081F87800704700003C0902020149096892
:10626000086370473C0902021CB5049CCDE9003468
:1062700013460A460146024803F082F81CBD00009E
:10628000680902020A460146014803F079B8000095
:10629000700902022DE9FE4F144E8846A6F11C013A
:1062A0001D4609681746814609683088DDF830A028
:1062B0004B6902AA691D9847040014D0CDE9007506
:1062C00043464A46716802F01EFFC0B220442A4687
:1062D0005146FCF799F821463046029A03F08CFBB0
:1062E0000020BDE8FE8F5620FBE70000580902029F
:1062F0002DE9FC47124D0F46A5F124019946096886
:10630000164680460968288801AA4B69311D9847BE
:10631000040013D000963B464246696802F0F3FE43
:10632000C0B2204432464946FCF76EF82146284662
:10633000019A03F061FB0020BDE8FC875620FBE7D3
:106340006009020204490268096841F8BA2F4268EC
:106350004A608068886070473C0902020A4601462C
:10636000014803F00DB80000480902022DE9FF5F63
:10637000154D8946291FDDE90E6B09681F469046B9
:106380000968824628884B6903AA711D9847040052
:1063900018D0CDF80080CDE901764B465246204614
:1063A000696802F0B0FEC0B2204432465946FCF79C
:1063B0002BF821462846039A03F01EFB002004B068
:1063C000BDE8F09F5620FAE7400902022DE9FF5F81
:1063D000164D8946A5F11401DDE90E6B09681F46CB
:1063E00090460968824628884B6903AAB11D9847E0
:1063F000040018D0CDF80080CDE901764B46524616
:106400002046696802F07FFEC0B2204432465946F9
:10641000FBF7FAFF21462846039A03F0EDFA002025
:1064200004B0BDE8F09F5620FAE7000050090202D0
:106430000AB944F2902213460A460146014802F086
:106440009FBF0000BC0A020213460A4601460148EB
:1064500002F096BFCC0A020208B50B460092024633
:106460000021024800F070F808BD0000EC0A0202AA
:106470002DE9FC4791461B4A194F8846126804468D
:106480000221126801EB88013888536901AA9847F4
:10649000060007D043462246796802F034FEC5B2B2
:1064A000002414E05620BDE8FC8700BF04EB440044
:1064B00009EB40010A7900924B8819F810207019F5
:1064C00009A102F020FE2D1D641CEDB2E4B244458A
:1064D000ECD331463846019A03F08EFA0020E2E709
:1064E000FC0A02023C090202313231002DE9F04F70
:1064F0008DB01AAFDFF848C097E8604FDCF800C0F5
:10650000C0EBC0076744179C87F8814008AF87E855
:10651000004EDDF864C005AFCDF810C087E860011B
:10652000169E189DCDE9003613460A4601460548D9
:10653000CDE9024502F024FF0DB0BDE8F08F000068
:106540003C090202E40A02022DE9FC471C460A9DAE
:10655000174688468146F72B26D9F720CDE9000556
:106560000B4601223946484602F00AFF002823D193
:10657000F73CA4B2F73515E0F72C01D3F72600E07D
:106580002646A01BCDE900650404240C01D000229E
:1065900000E0022243463946484602F0F1FE002858
:1065A0000AD13544002CE7D14346032239464846F8
:1065B000CDE9004502F0E4FEBDE8FC8708B5009394
:1065C00013460A460146024802F0DAFE08BD000002
:1065D000340B02022DE9FC4716460F4602EB8601FA
:1065E000244ADFF88C80994612688246002412689B
:1065F000B8F80000C91C536901AA9847050002D0E9
:10660000002001220DE05620BDE8FC8700EB40038E
:1066100019F813305B1E02FA03F12143401CCCB27F
:10662000C0B2B042F2D300943B4652462846D8F856
:10663000041002F068FDC7B200240FE004EB44012F
:1066400009EB41008188009143884278E8190AA14A
:1066500002F059FD7F1D641CFFB2E4B2B442EDD3D9
:1066600029464046019A03F0C7F90020CCE7000014
:106670002C0B02023C0902023132320008B50B46F3
:106680000092024600210248FFF75EFF08BD0000AD
:10669000F40A02020A460146014802F071BE0000F7
:1066A000740A02022DE9F843194F15460C4680463C
:1066B000F82923D90146F82301223846009502F033
:1066C0005FFE002821D1F83CA4B2F83514E0F82C84
:1066D00001D3F82600E02646A01B0404240C0095F4
:1066E00001D0002200E0022233464146384602F043
:1066F00047FE002809D13544002CE8D12346032267
:1067000041463846009502F03BFEBDE8F8830000A4
:106710001C0B02020A460146014802F031BE00008D
:10672000240B020208B5009313460A4601460248AC
:1067300002F026FE08BD0000140B02020A460146C4
:10674000014802F01DBE0000800902021CB5049C35
:10675000CDE9003413460A460146024802F010FE15
:106760001CBD0000D40A0202054902680968C1F88C
:106770003A208288CA870146024802F001BE000022
:106780003C0902023C0A02020249096881F8410000
:10679000704700003C0902022DE9F04788B00DF176
:1067A0000C0EDDE91367DDE91145DDE916A9DDF819
:1067B00054C0DDF840808DE8081113468EE8F000E3
:1067C0000A460146084802F0DBFD040007D10648EE
:1067D0004A466C38514600682C30FFF7A5FA08B0DD
:1067E0002046BDE8F0870000A8090202014802F037
:1067F000C7BD0000D009020208B5009313460A463F
:106800000146024802F0BCFD08BD0000B8090202C2
:10681000F0B587B00DF1300E9EE8F0108DE8F8105D
:1068200013460A460146024802F0AAFD07B0F0BD31
:10683000C80902022DE9FF410446DDE90A570C9E12
:1068400002F06AFC002805D0007C30B1204600959B
:1068500004F015FC04B0BDE8F08103968DE8A800B3
:1068600013460A462146024802F08AFDF2E700007C
:106870006C0A020208B59200921C0B460092014677
:106880000722024802F07CFD08BD0000D809020280
:106890002DE9F047DFF88CA48AB01E4615468846DD
:1068A00004280AD008287DD128781B280FD01D285D
:1068B00008461FD001F05AF81EE02978782971D1D6
:1068C000DAF80040002C50D04146A0474DE0B5F822
:1068D00001700C46DE1E3946A720D21C16F0CCFFF4
:1068E0000246F61C0AB0B3B239462046BDE8F0476E
:1068F000FEF7F9BE16F0F6FC040053D02978771E97
:106900004FF001090D2973D009DC0C2915D2DFE8FD
:1069100001F014EF143114EE14ED148614F017295D
:1069200067D006DC0F2978D0112952D0132904D161
:1069300067E1192972D01D295CD0FBA0FCF767FC28
:1069400028788DF808908DF80900002006218DF830
:106950000A008DF80C108DF80B0000900190A089B2
:10696000052302AA042104F067FD0AB0BDE8F04740
:1069700000F0C8BCB5F8015004F052FA854200D2CC
:106980002846E08284F81890DAF8005095B1AB20E0
:106990008DF8000004208DF80100A089ADF80200F8
:1069A000E08A00E0F7E1ADF804000623A1896A4619
:1069B0000420A8474046FEF7ABF9E6480078800778
:1069C000D3D4E08A0022001D81B2A089FFF730FDF8
:1069D000CBE720780228C8D132462946204616F057
:1069E000A9FD69782046711A294401224988A7E047
:1069F0000FE13CE14746B5F80180EA1C4146A8207A
:106A0000F61E16F039FFF61C0246B3B24146384670
:106A1000FEF769FE84F85190A7E76AE15BE1207810
:106A20000C281BD011DC062801D008289DD1324645
:106A30002946204616F031FD3146284600F09EFFDB
:106A40000146204619F006FD8FE7142833D024288C
:106A50008BD16888A4F84C0025203AE195F8018094
:106A6000B8F1070F07D26888A085A8882086E88833
:106A700060860D202DE1022716E000BFE91935F8E8
:106A800007904A8822868A886286C98801A819F0F8
:106A9000C9FE01A80090638E228E49462046FEF76B
:106AA00056FE07EB080087B2B742E7D36978204665
:106AB000711A695A43E095F8018000210227A8F174
:106AC000020A0DE035F80790EA191FFA8AF34946E1
:106AD0002046921C16F0D2FC07EB0800494687B20C
:106AE000B742EFD3204613222AE002E035E04CE023
:106AF00009E120780E2814D0102824D028288BD122
:106B0000204600F07DFA218F6A1CA92016F0B4FE01
:106B100002460837BBB2A189A068FEF7DBFD002161
:106B200035E101A9681C16F043FDA18D01AA009270
:106B30002046638E228EFEF70AFEA18D20460B2290
:106B400019F0A8FC11E7204600F05AFABBB2218FD9
:106B50006A1C204616F092FCE1E74FF004094FF65C
:106B6000FF78012704F11C0A09E0E819E95B408875
:106B70005346804602462046FEF70AFE4F44B7427F
:106B8000F3DB204641460322DAE76878042702282F
:106B900000D11227F01BB61E1FFA86F835F800A0A8
:106BA0000026AD1C22E000BF35F80690042F05EB4F
:106BB000060021D006A9801C16F0FAFCA4228DF84C
:106BC000002014228DF80120A289ADF8022006A928
:106BD000ADF8049010220DF10600FBF715FCA18919
:106BE00016236A46A068FEF775FD3E444645DBDB8A
:106BF000204651460922A3E7418806A819F012FE53
:106C0000DCE72078182803D0262801D02C2899D139
:106C1000ACE0761E2078B6B2761DBFB2122815D031
:106C20002A288FD1218F628F6B1CAA20009716F023
:106C300031FE020004D0B3B2A189A068FEF74AFD7C
:106C40003A462921204619F0EDFB8EE6218F628F0E
:106C50006B1CA620009716F01DFE020004D0B3B2F4
:106C6000A189A068FEF736FD3A461121EAE72078AF
:106C70001A2812D01C281CD02E2814D03228E4D177
:106C8000204600F0BDF932462946204603F066F85A
:106C900000287FF461AF7E2179E0B5F803001D2262
:106CA0006087192110E0B5F803002F2260872D219D
:106CB0000AE032462946204603F050F840B1B5F8C4
:106CC00003001D2260871B21204619F0D2FB4CE6F1
:106CD0002120207049E620781E2847D0202845D062
:106CE000222802D03028B0D140E0204600F088F9B8
:106CF000D1E720781628A8D1BBB26A1C0021204613
:106D000016F0BCFB32E029790A292BD1207808281B
:106D100030D021DC022829D0042827D0062821D110
:106D200028E00000AC2200204154542048616E64E9
:106D30006C65722C20756E68616E646C656420727F
:106D40006573706F6E736520747970652030782577
:106D500030327800A82200200A2807D00C2805D05D
:106D600014280CD0204600F0BCFAFEE5204600F0C6
:106D700047F9D4E6E18D2046FEF71BFBF6E72046F7
:106D800000F03EF9A08D218E8842F2D10A212046E2
:106D9000FEF7CAFCE9E50AB0BDE8F08710B5044685
:106DA000084616F0D5FA18B1017819B1952010BD32
:106DB000562010BD1F218460017000F0A3FA00204E
:106DC00010BD70B505461446084616F0C1FA18B154
:106DD000017819B1952070BD562070BD856061881D
:106DE000A288914203D10021FEF79EFC07E0491CD6
:106DF0008185A188C1850921017000F083FA0020F6
:106E000070BD2DE9F04107461D4616460846DDF8DF
:106E1000188016F09DFA040004D0207820B1952047
:106E2000BDE8F0815620FBE7A760A685E585012037
:106E300084F85000002565831022414604F11C00AF
:106E4000FBF7E2FAE5860720207000F05BFA0020ED
:106E5000E6E72DE9F04107461D4616460846DDF8EF
:106E6000188016F075FA040004D0207820B195201F
:106E7000BDE8F0815620FBE7A760A685E5850120E7
:106E800084F85000A4F81A80414604F11C0019F05F
:106E9000C9FC0020E0860720207000F033FA0020B3
:106EA000E6E770B506461C461546084616F050FA49
:106EB00018B1017819B1952070BD562070BD86605B
:106EC0008585C485002180F85010C1860521017098
:106ED00000F018FA002070BD10B50446084616F000
:106EE00037FA18B1017819B1952010BD562010BDA0
:106EF0000121846081854FF6FF72C28501700021F7
:106F0000418300F0FFF9002010BD70B5054616461C
:106F1000084616F01DFA040003D0207818B1952019
:106F200070BD562070BD0120A560A0854FF6FF7092
:106F3000E085002060831022314604F11C00FBF73D
:106F400063FA0320207000F0DDF9002070BD70B5F9
:106F500005461446084616F0FBF918B1017819B138
:106F6000952070BD562070BD0121856081854FF64A
:106F7000FF71C185032100F81A1B214620F8024B3E
:106F800019F050FC00F0BEF9002070BD10B50446A9
:106F9000084616F0DDF918B1017819B1952010BD39
:106FA000562010BD1D218460017000F0ABF9002057
:106FB00010BD70B506461C461546084616F0C8F9C1
:106FC00018B1017819B1952070BD562070BD86604A
:106FD0008585C4850B21017000F094F9002070BDF7
:106FE00000B500F0C3FC10B1027E012A03D01720C7
:106FF0000880952000BDC08A0880002000BD0000E8
:1070000010B5002101700446818904A0FCF7FFF847
:1070100004F16000BDE81040FEF7B8B84741545491
:1070200020636C69656E742074696D656F7574207A
:1070300073746F702C2068616E646C6520307825E5
:107040003032780070B5042817D11078052810D197
:10705000B2F80350284600F089FC040009D01F2133
:1070600000F03FF90549002041F825002046FDF7D2
:10707000DBFFBDE8704000F045B970BDB0220020D4
:10708000064910B504484860084601F015FFBDE800
:1070900010400348FDF7A2B845700002B42200205A
:1070A0009168000210B516F01DF9002802D0007892
:1070B00008B1002010BD012010BD10B50C460146DE
:1070C000104600F053FC002806D04C600B81BDE850
:1070D0001040001DFDF73ABF10BD2DE9F0410646F6
:1070E000DDE906781C461546084616F031F920B150
:1070F000017821B19520BDE8F0815620FBE786603C
:107100000587878744873121C0F84080017000F0EF
:10711000F9F80020EFE770B505461446084616F06A
:1071200017F918B1017819B1952070BD562070BDBE
:10713000856004872721017000F0E4F8002070BD0D
:107140000023AFF3008070B506461C46154608467E
:1071500016F0FEF818B1017819B1952070BD5620CF
:1071600070BD8660058744872921017000F0CAF848
:10717000002070BD0023AFF3008070B506461C46AA
:107180001546084616F0E4F818B1017819B19520B3
:1071900070BD562070BD866005874487112101703F
:1071A00000F0B0F8002070BD70B506461D461446CC
:1071B000084616F0CDF818B1017819B1952070BDC8
:1071C000562070BD8660A0F844401521856401708A
:1071D00000F098F8002070BD70B5054614460846CA
:1071E00016F0B6F818B1017819B1952070BD562087
:1071F00070BD85600487002141870F21017000F078
:1072000081F8002070BD2DE9F04107461D46164665
:107210000846DDF8188016F09BF8040004D02078AA
:1072200020B19520BDE8F0815620FBE7A760A68538
:10723000E58526866586002060831022414604F19C
:107240001C00FBF7E1F81320207000F05BF8002031
:10725000E8E72DE9F04107461D4616460846DDF8E9
:10726000188016F075F8040004D0207820B195201D
:10727000BDE8F0815620FBE7A760A685E585268658
:107280006586A4F81A80414604F11C0019F0CAFA78
:107290001320207000F036F80020E9E7014908606B
:1072A00070470000AC2200202DE9F04106461C4644
:1072B00015460846069F16F04BF820B1017821B11B
:1072C0009520BDE8F0815620FBE78660058784871E
:1072D000002141871B210764017000F013F8002092
:1072E000EFE770B5044600780D46002808D0204628
:1072F000FFF786FE29462046BDE87040FEF714BA27
:1073000070BD00002DE9F04FC84889B00468002C1A
:1073100079D0A089FCF75CFFB0B12278217EC4A0AF
:10732000FBF775FF207E01286DD194F851000025F0
:107330004FF01E0970B184F85150A0898DF8089063
:1073400000950123019594E0A08909B0BDE8F04FB4
:10735000FCF741BF2078172801D02B2818D12046F0
:1073600015F08FFDA18FC01E884211DA204615F05E
:1073700088FD0246A18FBCA0FBF749FF2046FFF71E
:107380003FFE09B02046BDE8F04F0D21FEF7CCB915
:10739000606D04F0F9F906462178BEA0FBF737FFCF
:1073A00094F800C00423022008220E274FF4205135
:1073B0004FF0100A4FF00C0BBCF1360F3FD2DFE854
:1073C0000CF03E1B3E233E413E443E4B3E5B3E6442
:1073D0003E673E6A3E6C3E913EA43EA63EAA3EAC4F
:1073E0003EAF3EB13EB93EDB3EC13ECB3ED33EE872
:1073F0003EF03EA83EF83EFD2070E08D0090A38D4B
:10740000A289102052E01AE023700D46618B39B139
:10741000ADF81C10E18D07AA0091CDE9012008E02C
:1074200003A904F11C0016F0C3F8E18D03AA8DE84E
:107430000604A38DA28929460620FCF7F1FF09B0B6
:10744000BDE8F08F0620207000E0227009B02046D1
:10745000BDE8F04F16F09BB92270A089A18DE28D96
:107460008DF80830ADF80910ADF80B200095052314
:10747000019502AA042132E084F800B0E08D00906A
:10748000A38DA28942F602010FE02770228E5CE0F4
:1074900084F800A058E012205FE014202070618B77
:1074A00039B1E08D0090A38DA2890820FDF7FDF988
:1074B000C5E7A689A18DE08D8DF80820ADF80910EB
:1074C00004F11C03ADF80B000DF10D01184616F088
:1074D0006FF80095152302AA04213046019503F0A8
:1074E000ABFFACE716202070B4F844104FF6FF72E3
:1074F000A589A06C02EA4101CDE9000101238DF8C4
:10750000087002AA04212846E9E718202DE01A2075
:1075100040E032203EE01C203CE084F8009042E055
:10752000202000E02220207009B02046BDE8F04F66
:1075300016F028B92420207009B02046BDE8F04F8D
:1075400016F065B928202070228FA18909B00A2081
:10755000BDE8F04FFDF7BEB92A20207009B02046E3
:10756000BDE8F04F16F03EB92C20207009B020463F
:10757000BDE8F04F16F056B92620207004F14E00F9
:107580000090B4F84C20A18902231220FDF720FCC2
:1075900055E72E20207009B02046BDE8F04F16F0C8
:1075A00006B93020207009B02046BDE8F04F16F033
:1075B000F9B816F0A7FD002893D000E010E03420C1
:1075C0002070B06D216C01AB0091384A83E8150042
:1075D000A38F228FD22106F1480016F09DFD2EE7E1
:1075E00036202070B16DB4F80C90228FB4F83C8036
:1075F000D223276C8DF81030ADF81120059104F1DD
:1076000058000DF1140A06A915F0DEFF8DE8800D73
:10761000032304AA0421484603F056FF25702046A0
:10762000FFF7EEFCB06D401CB06508E7B02200200B
:107630002D2068616E646C655F7065726970686545
:1076400072616C5F6C6973742C206D747520737437
:107650006174652025752C20636C69656E742073D8
:107660007461746520257500676174745F636C696B
:10767000656E745F72756E3A2076616C7565206C0C
:10768000656E202575203E204D5455202575202DF2
:1076900020330A00676174745F636C69656E745FA0
:1076A000737461746520257500000000014D0002AF
:1076B0002DE9F04707461D46164689460846DDF87F
:1076C000208015F00FFE0446007850B9484617F0A8
:1076D000A9FA014660650AA0FBF799FD606D0028D4
:1076E00002DA9520BDE8F087A7602687A5873320BA
:1076F000C4F840802070FFF705FE0020F2E700008C
:107700006C655F6465766963655F6B657920697335
:10771000203A307825780A0070B50A4E05460024D4
:1077200056F82400A84207D1A98907A0FBF76FFDEE
:107730007F212846FFF7D5FD641C2404240CEFD0DC
:1077400070BD0000B02200204741545420636C6992
:10775000656E742074696D656F75742068616E6400
:107760006C652C2068616E646C6520307825303241
:10777000780000002DE9F04106461C4615460846F3
:10778000069F15F0E5FD20B1017821B19520BDE8F7
:10779000F0815620FBE786600587848700214187BA
:1077A0002B2107640170FFF7ADFD0020EFE770B5F6
:1077B00006461D461446084615F0CAFD18B1017864
:1077C00019B1952070BD562070BDE90704D0A1798C
:1077D000C90601D4982070BDA90704D5A1798906EE
:1077E00001D4992070BD866061888185A188C1859A
:1077F000A0F84E5023210170FFF784FD002070BDDA
:107800001CB5049CCDE90034002300F001F81CBD38
:107810002DE9F0410646DDE906781C461546084686
:1078200015F096FD20B1017821B19520BDE8F081D9
:107830005620FBE786600587878744872D21C0F89F
:1078400040800170FFF75EFD0020EFE71CB5049C4F
:10785000CDE90034002300F001F81CBD2DE9F04112
:107860000646DDE906781C461546084615F070FD0B
:1078700020B1017821B19520BDE8F0815620FBE7C9
:1078800086600587878744871921C0F8408001708A
:10789000FFF738FD0020EFE72DE9F04106461C46D2
:1078A00015460846069F15F053FD20B1017821B119
:1078B0009520BDE8F0815620FBE786600587848728
:1078C000172107640170FFF71DFD0020F1E7F8B5EF
:1078D0001E4615460F4615F005FD040003D020781E
:1078E00018B19520F8BD5620F8BD204615F0C9FA0C
:1078F000C01EA84201DA9720F8BD0096A1892B4648
:107900003A465220FDF764FAC0B2F8BDF0B5002443
:1079100023460125C65C002205FA02F73E4207D045
:107920008C4203D102EBC300C0B2F0BD641CA4B210
:10793000521CD2B2082AEFD35B1CDBB2052BE9D371
:10794000FF20F0BD10B500214FF4FA5200BF491CD2
:107950009142FBDB80B215F0C7FA00BF18F0D6FBEE
:107960000028FBD1BDE8104018F0C2BB08B10020D0
:107970007047014800687047B02200204278891A99
:107980000844B0F8030070472DE9FC41164C182755
:107990001E46D4F808C0BCF1000F11D04978D9B107
:1079A0002178002579B1FCF7B9FB2378628825702E
:1079B000658002B039463046BDE8F04115F062BF3F
:1079C00003230022F5E7002300950195B0F8060196
:1079D00002221946E04701E0FCF7A0FB19203070B5
:1079E0000120BDE8FC8100007C2200202DE9FF4F32
:1079F00087B01D46DDE914738946824600264FF0A4
:107A0000060B0124B0463A4629463248FBF7FCFBF8
:107A1000BD4204D81DB1DAF82401009046E00123EC
:107A200051E06846FCF722FEBDF8080008B1A84204
:107A30003CD3B8423DD8CEB158B14FF4205168463E
:107A4000FCF75CFE28B942F601016846FCF756FED9
:107A500060B1414620A0FBF7D7FB29F80480A41CA5
:107A6000A4B209990026201D884222D8BDF808003A
:107A7000B0F100081AD068461599FCF73FFEA8B18E
:107A8000BDF810201698824210D105991798FAF780
:107A9000F4FC58B9BDF8081016A0FBF7B5FBBDF80B
:107AA000081029F80410A41CA4B20126009800288C
:107AB000B7D1012C06D0072189F8001020460BB061
:107AC000BDE8F08F0A232A465946484615F0DAFEEB
:107AD000F5E70000A8250202456E64206F66206766
