:020000040200F8
:10200000007F0020C9220002FB22000225210002DD
:10201000FF2200020123000203230002000000004F
:102020000000000000000000000000003F2100024E
:102030000723000200000000992100025D33000226
:102040000D2300020D2300025D320002152C000258
:10205000052C0002A93300029933000289330002E3
:10206000E9330002CD300002352B0002712D000251
:10207000A92D00020D230002492B00023D3200026F
:102080007D320002312D0002C9330002B933000253
:10209000212D0002112D0002B52B0002612D00023E
:1020A0009D3000020D230002412D0002512D00023F
:1020B0002D3200021D3200020D320002D93300021F
:1020C00005300002F52F00024D320002ED30000213
:1020D000DD300002AD300002BD300002FD300002F4
:1020E0000D3100021D3100022D3100020D230002CE
:1020F0000D2300020D230002252B00020200021610
:1021000000800202DFF810D000F0E8F90048004734
:102110007DDE0102AFF300807C55002030B58047A2
:1021200030BD00BF1EF0040F0CBFEFF30880EFF3CB
:10213000098081694FF26D52C0F2012210472C4B89
:1021400019680868B0E8F04F80F30988BFF36F8F13
:102150004FF0000080F31188704700BF00000000BE
:1021600007480068006880F308884FF0000080F39B
:10217000148862B661B6BFF34F8FBFF36F8F00DF75
:1021800014000020DFF80C00016841F470010160C8
:10219000704700BF88ED00E0EFF30980BFF36F8F59
:1021A000134B1A681EF0100F08BF20ED108A20E9AB
:1021B000F04F106009B44FF0080080F31188BFF3AE
:1021C0004F8FBFF36F8F21F005FF4FF0000080F3BA
:1021D000118809BC19680868B0E8F04F1EF0100FAC
:1021E00008BFB0EC108A80F30988BFF36F8F704787
:1021F00048000020EFF30580704700002DE9FE5FE6
:102200000746EFF31080EFF31181EFF31282EFF343
:1022100013830FB445F23030C2F20000224901604E
:10222000EFF30881EFF30982EFF31483EFF30384F4
:1022300041608260C3600461781E0DD0B81E05D075
:102240001A48016841F0010101600AE0184801687C
:1022500041F00101016004E01548016841F004010A
:10226000016044F6206000BF401EFCD11148416867
:102270008268C368046981F3088882F3098883F35C
:10228000148884F30388BFF34F8FBFF36F8F0FBCA5
:1022900080F3108881F3118882F3128883F3138806
:1022A000BDE8FE5F704700BF6D22000204031140CD
:1022B000A80110403053002040BA704740BA704720
:1022C000C0BA7047C0BA7047114880F308881148F7
:1022D000016821F0020101600F4880470F48016842
:1022E00011F0806F41F08061016002D10C480068FC
:1022F00000470C4800470C480047FEE7FEE7FEE7B2
:10230000FEE7FEE7FEE7FEE7FEE7FEE7FEE700008A
:10231000007F0020080000401D58000210201040DF
:1023200030530020DD2400027DDE01022DE9F003A0
:102330005FEA930C6FD000BF30F8024B31F8026BAC
:1023400030F8025B31F8027B14FB06F84FEA68486C
:1023500015FB07F9A8EB694822F8028B14FB07F478
:10236000641415FB06F504EB654422F8024B30F8C3
:10237000024B31F8026B30F8025B31F8027B14FB40
:1023800006F84FEA684815FB07F9A8EB694822F8F8
:10239000028B14FB07F4641415FB06F504EB65448B
:1023A00022F8024B30F8024B31F8026B30F8025B36
:1023B00031F8027B14FB06F84FEA684815FB07F971
:1023C000A8EB694822F8028B14FB07F4641415FB90
:1023D00006F504EB654422F8024B30F8024B31F865
:1023E000026B30F8025B31F8027B14FB06F84FEA0F
:1023F000684815FB07F9A8EB694822F8028B14FB23
:1024000007F4641415FB06F504EB654422F8024B4F
:10241000BCF1010C90D113F0030304BFBDE8F0033D
:10242000704700BF30F8024B31F802CB30F8025B46
:1024300031F8026B14FB0CF77F1415FB06F8A7EBC1
:10244000684722F8027B14FB06F4641415FB0CFCAD
:1024500004EB6C4C22F802CB5B1EE3D1BDE8F00329
:102460007047000000F5005000B20028BCBF00F526
:10247000004000B281090B4BA0EB8110400233F900
:10248000112003EB410100B2C0F5004349885A43D3
:10249000121410FB01F000EB02400014400000B2E7
:1024A000704700001C6C020281090B4BA0EB8110ED
:1024B000400233F9112003EB410100B2C0F50043A3
:1024C00049885A43121410FB01F000EB024000143B
:1024D000400000B2704700001C6C0202064C074D21
:1024E00006E0E06840F0010394E8070098471034E4
:1024F000AC42F6D3FFF70AFE1476020234760202EB
:102500002DE9F05F0546002092469B468846064628
:10251000814640241BE0284641464746224600F0BB
:102520009EF853465A46C01A914110D31146184698
:10253000224600F085F82D1A67EB01084F46224627
:102540000120002100F07CF817EB00094E41201E0D
:10255000A4F10104DFDC484631462A464346BDE883
:10256000F09F00000649074A0868504343F23902C9
:102570001044086040087047014908607047000037
:10258000A40400206D4EC64110B5431A934209D2EF
:102590008318881803E010F8011D03F8011D521E6E
:1025A000F9D210BD40EA01039B0703D009E008C936
:1025B000121F08C0042AFAD203E011F8013B00F808
:1025C000013B521EF9D210BDD2B201E000F8012B3E
:1025D000491EFBD270470022F6E710B513460A46A3
:1025E00004461946FFF7F0FF204610BD421C10F8C4
:1025F000011B0029FBD1801A704730B5044600202A
:10260000034600E05B1C934203D2E05CCD5C401BC0
:10261000F8D030BD30B50B46014600202022012401
:1026200009E021FA02F59D4205D303FA02F5491BA0
:1026300004FA02F52844151EA2F10102F1DC30BDB6
:10264000202A04DB203A00FA02F100207047914072
:10265000C2F1200320FA03F3194390407047202A67
:1026600004DB203A21FA02F00021704721FA02F33C
:10267000D040C2F1200291400843194670472DE92D
:10268000FE4F804681EA0300C00F0C46009021F007
:10269000004123F00045B8EB0200A94105D24046B5
:1026A000214690461C460B46024623F0004010434C
:1026B00047D0270DC7F30A00C3F30A510290401A0E
:1026C000019040286BDAC3F3130040F4801B00989C
:1026D000924620B10023D2EB030A63EB0B0B019867
:1026E0005946C0F140025046FFF7AAFF06460D4684
:1026F00050465946019A00F07BF910EB0800614101
:10270000002487EA115284EAE7731A4340D0009A02
:1027100062B3019A012A4FEA075215DC001B61EBF4
:1027200002014FF0004202EA0752CDE90042001CCC
:1027300041F5801132462B4600F07BF903B0BDE82D
:10274000F08F40462146F9E7001B61EB0201001CB7
:1027500041F5801300185B412018A2F5001747EBE4
:10276000030140EAD570B6196D4111E06D084FEADA
:10277000360645EAC0754FEA0752001B61EB0201BD
:10278000001C41F5801149084FEA30000019514101
:1027900032462B4603B0BDE8F04F00F03BB900983D
:1027A000012240000023D0EB020263EBE0730098AB
:1027B00021464FEAE074B8EB000061EB0401E9E761
:1027C00083F000435BE781F0004158E72DE9FE4FBD
:1027D00081EA030404F0004421F0004100944FF02A
:1027E000000B23F0004350EA01045ED052EA0304D8
:1027F0005BD0C3F30A54C1F30A552C44A4F2F3345A
:102800000194A0FB0254C1F3130141F48011C3F3FE
:10281000130343F4801301FB024400FB034E840ABC
:10282000970A44EA815447EA8357A4FB0768029554
:102830008D0A05FB07854FEA932C04FB0C542705F2
:10284000029D4FEA065847EA1637B5EB08056EEBCE
:10285000070C870E920E47EA811742EA8312A7FB04
:102860000201B6EB0B0164EB00042B0D43EA0C33C1
:102870005E1844EB1C50DA465146E7FB0201C5F3F3
:1028800013044FEA0B3343EA14534FEA0432019C1A
:1028900043EA0603A4F10C040294009CCDE900B4C1
:1028A00000F0C7F803B0BDE8F08F00200146F9E75B
:1028B0002DE9F04D81EA030404F0004B21F00045BE
:1028C00014464FF0000A23F0004150EA050220D0E0
:1028D00054EA01021DD0C5F30A570246C5F313039B
:1028E000C1F31300C1F30A5640F4801543F480137A
:1028F000A7EB0608101BD64608F2FD3873EB05005F
:1029000002D308F1010801E092185B41B8F1000F11
:1029100003DA00200146BDE8F08D00204FF480115D
:10292000064684460EE0171B73EB050705D3121B02
:1029300063EB050306434CEA010C49084FEA3000FB
:1029400092185B4150EA0107EDD152EA030012D020
:1029500082EA040083EA0501084305D0101BAB415D
:1029600006D20122002306E000224FF0004302E0DD
:102970006FF0010253101AEB06004CEB085110EBFC
:102980000A0041EB0B01BDE8F04D00F043B8C1F384
:102990000A52C1F3130140F2FF3341F480119A420D
:1029A00002DA00200146704740F233439A42A2F215
:1029B000334202DC5242FFF752BEFFF741BE000035
:1029C00030B5041E71F1000404DB4FF000444042B6
:1029D00064EB0101141E73F1000405DB1C464FF08B
:1029E0000043524263EB0403994208BF904230BD5A
:1029F000202A06DBCB17203A41FA02F043EAE073C3
:102A000006E041FA02F3D040C2F1200291400843AF
:102A10001946704710B5141E73F1000408DA401C03
:102A200041F1000192185B411A4301D120F00100ED
:102A300010BD2DE9F04D92469B4611B1B1FA81F2DD
:102A400002E0B0FA80F220329046FFF7F9FD04462A
:102A50000F4640EA0A0041EA0B0153465A46084332
:102A600013D0114653EA010019D0C8F14002504674
:102A7000FFF7F5FD05460E46504659464246FFF71C
:102A8000DFFD084305D0012004E020463946BDE8BB
:102A9000F08D0020054346EAE0762C4337430A9840
:102AA0006305E40AA0EB08000022FD0A44EA47544B
:102AB0000A3002D500200146E9E7010510196941F5
:102AC000DDE9084500196941BDE8F04DA2E770B5A0
:102AD0008C1810F8015B15F0070301D110F8013BC9
:102AE0002A1106D110F8012B03E010F8016B01F850
:102AF000016B5B1EF9D12B0705D40023521E0DD4A8
:102B000001F8013BFAE710F8013BCB1A921C03E0F5
:102B100013F8015B01F8015B521EF9D5A142D8D32D
:102B2000002070BD02482421806807F0BFBA000071
:102B3000000000200348016841F0200101600120ED
:102B40001BF056BE0000134002480921806807F0C0
:102B5000ADBA00000000002070B51349D1E90001B2
:102B600006F06AFB002002F02DFB104C4FF0FF3600
:102B70000F4D11E02078000604D5002211460420F4
:102B800020F072FA02F034FB2078000604D500220F
:102B90001146052020F068FA3146286821F07AFFB6
:102BA0000028E7D170BD00001C5302024000002045
:102BB0001000002002481021806807F077BA00005A
:102BC00000000020044800680122C0F30801092029
:102BD000891E07F093BA000004ED00E00348006886
:102BE000C00501D120F03CBE7047000004ED00E0BC
:102BF00003480068C00501D120F054BE70470000B2
:102C000004ED00E002480121806807F04FBA00009F
:102C10000000002002480221806807F047BA000047
:102C20000000002010B5C368D9B280290FD984688C
:102C3000E06800B101204B2213A101F09FFBE16885
:102C400019B12069BDE81040084772B6FEE7044696
:102C5000008A616982B2D8B2124B1B68984706F0AD
:102C600027FF00280FD1E068022806D004280AD1E7
:102C7000A069BDE8104006F015BFA08BA169BDE8B2
:102C8000104006F00DBF10BD4863695F696E746542
:102C9000726E616C5F7472616E73706F72742E63AA
:102CA00000000000B40100201FB541680A2914D0BB
:102CB00007DC09B105291FD104B0BDE81040FFF7BA
:102CC000B1BF0B2919D00C2916D1018AC2684069FD
:102CD00004B089B2BDE8104010470C491EC98DE808
:102CE0001E00C168019141690291008AADF80C0093
:102CF0001021684606F0E8FC1FBD018A8AB24169CE
:102D0000C06804B0BDE8104008F0DEBA40560202C8
:102D100002480E21806807F0C9B9000000000020B9
:102D200002480F21806807F0C1B9000000000020B0
:102D300002480B21806807F0B9B9000000000020AC
:102D400002481221806807F0B1B90000000000209D
:102D500002481321806807F0A9B900000000002094
:102D600002481121806807F0A1B90000000000208E
:102D700070B50B4D686D400611D52C6E402002F0E9
:102D8000ADFD286EA0432866002C08D005480078C9
:102D9000400604D52046BDE8704020F083B970BDE0
:102DA00000001140400000202DE9F04F814EDFF877
:102DB00008B2DFF808828FB04FF0000A42F26C5977
:102DC000B06D0A90706D4D460A9C0B902C402840C7
:102DD000A04208D098F80000800604D508220AA96D
:102DE000052020F0C5F9002C73D098F800000006EB
:102DF00004D5E1B2220A082020F036F9204602F07C
:102E00006DFD0027A946A00602D5012002F012FAA6
:102E1000A00401D514F090FD60077DD5D6F80C51C3
:102E2000002D7DD045EA0B052D1F049595F8C600B1
:102E30008DF8180095F826008DF81900D5F8BC001B
:102E40000590D5F8B800B5F8C620C3B28246D1B215
:102E5000032B02D0042B2FD126E0052906D01629FA
:102E60001CD017291AD0182926D117E05448016B15
:102E70000291097901F00F0107291DD102994979C1
:102E8000890619D50021C6F80C11806B14F02CFDB1
:102E90004B480299103011F0E9F821E00020C6F803
:102EA0000C01D5F8C00019E04649CAF30B2051F8CF
:102EB000200008B1172A0DD0524604A94FF4003063
:102EC00014F0D5FD47B300BF95F8B800032810D122
:102ED0000DE06BE00021C6F80C1140690EF03EFFDA
:102EE0000127524604A9780414F0C1FDECE711F063
:102EF00027F98FB1E00513D4756D05EA0905284659
:102F000002F0ECFC42F2040084432C434FF4A07224
:102F10002DA1C4F3002000E002E001F02FFA72E7D7
:102F2000600502D503201BF063FC600615D5356EE5
:102F300035B198F80000400602D5284620F0B2F8D6
:102F4000280E800709D5D6F80C0130B140EA0B00F5
:102F500010F8C01F41F001010170E0051BD5C7B199
:102F6000049830F8681FADF81C104188ADF81A10AD
:102F70009DF81900814204D2ADF81A000020ADF886
:102F80001C00524604A94FF0021014F070FD6006B8
:102F900001D513F085FC98F8000000067FF510AF0E
:102FA000E1B2220A092020F05FF809E70FB0BDE87E
:102FB000F08F000000001140000010404000002091
:102FC000604F0020645500206474626C652E6300BD
:102FD000074A131D5980116860F3070111601068DA
:102FE00040F40070106010688005FCD47047000049
:102FF0000804114002481C21806807F057B80000FF
:103000000000002002481B21806807F04FB8000034
:103010000000002000F01F020121914040098000C3
:1030200000F1E020C0F88012704700F01F0201217B
:1030300091404009800000F1E020C0F80011704785
:10304000C906090E002806DA00F00F0000F1E020A2
:1030500080F8141D704700F1E02080F800147047DC
:10306000024A1140014302480160704780FFFF1F80
:1030700008ED00E000B589B01CF054FE81680391B2
:103080000021CDE9011004480B464A1E694600683C
:1030900021F084F909B000BD2C0000200248142161
:1030A000806807F003B800000000002002481521E6
:1030B000806806F0FBBF00000000002002481621D7
:1030C000806806F0F3BF00000000002002480721DE
:1030D000806806F0EBBF00000000002002481E21BF
:1030E000806806F0E3BF00000000002002481D21B8
:1030F000806806F0DBBF00000000002002481F21AE
:10310000806806F0D3BF00000000002002482021A4
:10311000806806F0CBBF000000000020024821219B
:10312000806806F0C3BF0000000000200248222192
:10313000806806F0BBBF0000000000202F492E4829
:10314000C1F890012E48C1F894014FF40040086383
:1031500042F2412048632B48826942F080428261FA
:10316000026922F07F7202F540020261826922F454
:10317000700202F580128261826942F470228261DB
:1031800082696FF30F02103282614A6A22F4601280
:1031900002F500224A624A6A22F4F85202F50072ED
:1031A0004A62826922F07C5202F1C8528261D1F8EF
:1031B000602122F4FC0202F5B402C1F8602101682A
:1031C00001680E2262F31F7101608168C90D21F050
:1031D000F00141F03002816862F3DE518160C16824
:1031E000C168022262F38A11C16001680168092284
:1031F00062F34401016070470706020400001040BA
:103200000103040500201040704700000248172108
:10321000806806F04BBF0000000000200248182123
:10322000806806F043BF000000000020024819211A
:10323000806806F03BBF0000000000200248082123
:10324000806806F033BF0000000000200248232100
:10325000806806F02BBF000000000020024800211B
:10326000806806F023BF00000000002010B513F0B6
:1032700097FC1E220023FFF743F910BD02480A21E4
:10328000806806F013BF000000000020014948726A
:10329000704700004C01002010B54FF0804460687A
:1032A000400409D500F00CF8216811F00F0100D19D
:1032B0000121B0FBF1F010BD004810BD00366E01D9
:1032C0000C48D0F8A801C00211D54FF08041086C1D
:1032D0000A6CC0F34500C2F3C53210FB02F0064A87
:1032E000096CB2FBF0F0C1F3C711484370470020EE
:1032F000704700000000104000366E014FF0804122
:10330000012806D0022803D1C86820F08000C860D8
:103310007047886820F48440886070474FF080418F
:10332000012806D0022803D1C86840F08000C86098
:103330007047886840F48440886070474FF080414F
:10334000012806D0022803D1C86840F08000C86078
:103350007047886840F484408860704710B5082042
:1033600080F31188BFF34F8FBFF36F8F21F02AFDD9
:1033700018B104494FF080500860002080F3118894
:1033800010BD000004ED00E002480321806806F053
:103390008DBE00000000002002480421806806F075
:1033A00085BE00000000002002480521806806F06C
:1033B0007DBE00000000002002480C21806806F05D
:1033C00075BE00000000002002480D21806806F054
:1033D0006DBE00000000002002481A21806806F03F
:1033E00065BE00000000002002480621806806F04B
:1033F0005DBE0000000000200FB4054B10B503A90E
:10340000044A029800F0FEF810BC5DF814FB0000BE
:1034100065610002A80400200FB4084B10B504A990
:1034200002AA039800F0EEF8044602A9002000F07A
:1034300097FE204610BC5DF814FB000061410002BD
:10344000014B024A00F0E0BA65610002A8040020C6
:1034500070477047704770477047704770477047B4
:1034600002E008C8121F08C1002AFAD1704770474D
:10347000002001E001C1121F002AFBD170470000AB
:103480002DE9FF5F82B00021DDE90430020DDDF897
:1034900040B0034318D044F61050A2F2FF3242432A
:1034A0001514119801281FD0A5EB0B00401C5FEAF2
:1034B000000A4FF000064E4FDFF83891B0465046F4
:1034C00015D5CAF1000413E0119801244AA301287C
:1034D00001D16FEA0B010298119AC0E90031C0E9ED
:1034E000024206B0BDE8F09FCBF10000DFE70446E2
:1034F0000021404A491842EB0450CDE9001012E087
:10350000E00707D032463B4640464946FFF75EF9A2
:103510008046894632463B4610461946FFF756F923
:1035200006460F466410002CEAD1DDE90401DDE90E
:103530000023BAF1000F06DAFFF748F942464B467E
:10354000FFF744F905E0FFF7B3F942464B46FFF7B2
:10355000AFF904460E460022284BFFF731FA03D894
:103560004FF0FF30014607E00022254B2046314650
:10357000FFF785F8FFF70BFA102409E0002C0ADBAF
:103580000A220023FEF7BCFF039B30321A55641E4B
:1035900050EA0102F2D1641C039AC4F111031444ED
:1035A000119A012A03D0012208430DD10AE00843F1
:1035B00004D000204FF0110B119072E7A3EB0B0524
:1035C0006D1E0DE05B4504DD4FF0000205F10105C5
:1035D00004E003DA4FF00002A5F10105002AECD067
:1035E00002981199C0E90231C0E9004579E700006D
:1035F000000014400000F03F300000000000F043E5
:103600000000E03F2DE9FF4F8DB00F460546002634
:1036100006E025280BD0DDE90F1290476D1C761CC3
:1036200028780028F5D111B03046BDE8F08F00248D
:10363000A246A1460122E94900E0044315F8013FF2
:10364000203B02FA03F00842F7D128782A2810D04C
:103650006FF02F022878A0F13001092914D80AEB65
:103660008A0102EB410144F0020400EB010A6D1CE7
:10367000F0E701CF5FEA000A03D544F40054CAF131
:10368000000A44F002046D1C28782E2817D115F882
:10369000010F44F004042A280ED06FF02F0228787E
:1036A000A0F1300109290AD809EB890102EB410197
:1036B00000EB01096D1CF2E757F8049B6D1C28789C
:1036C0006C280FD006DC4C2817D068280DD06A284B
:1036D00014D104E0742810D07A280FD10DE044F4FE
:1036E00000140AE044F4801401E044F440146978C2
:1036F000814202D104F580146D1C6D1C28786E285F
:103700001ED00CDC632830D004DC00288BD0582875
:1037100011D19FE0642867D069280CD164E0732838
:103720002DD004DC6F2872D0702804D194E0752865
:103730006ED078286DD0DDE90F129047761C4BE1F2
:10374000C4F30250022806D0032809D0042801CF70
:1037500009D0066040E101CFF117C0E900613BE10B
:1037600001CF068038E1067036E117F8040B8DF8BA
:10377000000000208DF80100EB46012003E057F81F
:1037800004BB4FF0FF3061074FF0000102D40DE0A1
:1037900008F10101884649450FDA8045F8DB1BF83E
:1037A00008100029F4D108E008F10101884681429F
:1037B000FADB1BF808100029F6D1DDE90F23AAEB8C
:1037C00008008146214600F09DFC304400EB0806CD
:1037D00004E0DDE90F121BF8010B9047B8F1010876
:1037E000F7D221464846F2E00A21C4F302524FF0D4
:1037F000000B0891022A04D001CFC117032A09D077
:103800000AE0FF1D27F00707F7E8020108E02CE0B7
:103810001EE01FE000B2C117042A01D140B2C11757
:10382000021E71F1000206DA0023D0EB030063EB05
:1038300001012D2202E0220504D52B228DF824203F
:10384000012203E0E20701D02022F7E7904653E08F
:103850000A210BE0102109E010214FF0000B44F089
:1038600004044FF00809089103E008214FF0000B11
:103870000891C4F30252022A04D001CF0021032A86
:1038800006D006E0FF1D27F00707F7E8020103E076
:1038900080B2042A00D1C0B24FF0000822072BD515
:1038A0002A78702A07D0DDF820C08CF0100C5CEA72
:1038B0000B0C05D00EE040228DF82420012208E0F8
:1038C00050EA010306D030238DF824308DF82520EE
:1038D00002229046089B83F0080353EA0B030BD1A6
:1038E00050EA010201D1620706D530228DF824206A
:1038F0004FF00108A9F101092A78582A04D038A20A
:103900000B9208AA0A920BE03AA2F9E75B46089AE2
:10391000FEF7F6FD0B9B9B5C0A9A521E0A921370EF
:1039200050EA0102F2D10A98ADEB000000F1200B41
:10393000600702D524F4803401E04FF00109D94535
:1039400002DDA9EB0B0000E0002000EB0B0141447D
:103950000890AAEB010AE00306D4DDE90F23214613
:10396000504600F0CFFB06444FF0000908E009A9DB
:1039700011F80900DDE90F12904709F10109761CE1
:10398000C145F4DBE0030CD5DDE90F2321465046A9
:1039900000F0B8FB064404E0DDE90F123020904748
:1039A000761C0899481E08900029F5DC08E00A9862
:1039B0000A990078491C0A91DDE90F129047761C9C
:1039C000BBF10001ABF1010BF1DC21465046DDE912
:1039D0000F2300F073FB06446D1C21E6092801004B
:1039E0003031323334353637383961626364656675
:1039F0000000000030313233343536373839414237
:103A000043444546000000002DE9FF4F95B09A461B
:103A1000884606460025EEE1252877D10024274672
:103A2000F94A0121039400E0044316F8013F203BCA
:103A300001FA03F01042F7D130782A2811D06FF044
:103A40002F033078A0F13002092A16D8039A44F0E7
:103A5000020402EB820203EB42021044761C039044
:103A6000EFE758F8042B0392002A03DA504244F49B
:103A70000054039044F00204761C30782E2816D1AE
:103A800016F8010F44F004042A280DD06FF02F021D
:103A90003078A0F13003092B09D807EB870302EB3C
:103AA0004303C718761CF3E758F8047B761C30787C
:103AB0006C280FD006DC4C2817D068280DD06A2857
:103AC00014D104E0742810D07A280FD10DE044F40A
:103AD00000140AE044F4801401E044F440147278C5
:103AE000824202D104F58014761C761C3078662858
:103AF0000BD013DC582877D009DC002875D0452876
:103B0000F6D04628F4D047281AD193E118E063286C
:103B100035D0642879D0652812D18BE1702873D014
:103B200008DC6728F1D069286FD06E280DD06F2887
:103B300006D1ACE073282CD0752874D0782853D0E7
:103B40005246179990476D1C54E1C4F30250022865
:103B500009D003280DD0D8F8001004280DD00D602E
:103B600008F1040846E1D8F80010EA17C1E900524C
:103B7000F6E7D8F800100D80F2E70D70F0E718F8BE
:103B8000041B8DF8001000208DF80100EB46012089
:103B900003E058F804BB4FF0FF3061074FF000011D
:103BA00002D40DE009F101018946B9420FDA8145DD
:103BB000F8DB1BF809100029F4D108E009F1010134
:103BC00089468142FADB1BF809100029F6D10398D7
:103BD0005346A0EB090721463846179A00F0A9FA88
:103BE000284400EB090507E044E008E10DE01BF87C
:103BF000010B524617999047B9F10109F7D2534684
:103C000021463846179AF2E039E00A21C4F30252FD
:103C10004FF0000B0091022A06D058F8040BC11790
:103C2000032A09D00AE023E008F1070020F0070288
:103C3000F2E80201904605E000B2C117042A01D162
:103C400040B2C117002906DA0A460021404261EB62
:103C500002012D2202E0220504D52B228DF804203A
:103C6000012203E0E20701D02022F7E7914657E066
:103C70000A2100E010214FF0000B00910BE0102111
:103C80004FF0000B44F004040827009103E00820E3
:103C90004FF0000B0090C4F30252022A05D058F8EE
:103CA000040B0021032A08D008E008F1070020F0E7
:103CB0000702F2E80201904603E080B2042A00D134
:103CC000C0B24FF0000922072AD53278702A07D0F7
:103CD000DDF800C08CF0100C5CEA0B0C05D00EE097
:103CE00040228DF80420012208E050EA010306D0AA
:103CF00030238DF804308DF8052002229146009B78
:103D000083F0080353EA0B030AD150EA010201D100
:103D1000620705D530228DF804204FF001097F1E7F
:103D20003278582A04D039A20C920CAA02920BE0E5
:103D30003BA2F9E75B46009AFEF7E2FB0C9B9B5C1B
:103D4000029A521E0292137050EA0102F2D10298B6
:103D500004A9081A00F1200B600702D524F480346E
:103D600000E001275F4502DDA7EB0B0000E000202B
:103D700000EB0B01009003984944401A0390E003C4
:103D800006D453462146179A039800F0D2F9054409
:103D9000002706E001A85246C05D179990476D1CA8
:103DA0007F1C4F45F6DBE0030CD553462146179A9E
:103DB000039800F0BEF9054404E0302052461799FC
:103DC00090476D1C0099481E00900029F5DC08E022
:103DD0000298029952460078491C0291179990471F
:103DE0006D1CBBF10001ABF1010BF1DC5BE100F0FC
:103DF00077F90544761C307800287FF40DAE19B0B1
:103E00002846BDE8F08F0000092801003031323328
:103E10003435363738396162636465660000000006
:103E200030313233343536373839414243444546F0
:103E300000000000600700D4062708F1070020F00A
:103E40000700F0E80223804603F0004C5FEA0C0014
:103E500001D097A009E0200501D596A005E0E00774
:103E600001D095A001E0AFF24C001390307823F020
:103E7000004365280CD006DC452809D046281DD013
:103E800047287FD13BE0662818D067287AD136E0F2
:103E90000021112F01DB112000E0781CCDE9000189
:103EA00004A90CA8FFF7ECFADDE90D010C9A4FF01C
:103EB000000B07F10109109200914EE04FF0004015
:103EC0000097CDE9011004A90CA8FFF7D9FADDE9A4
:103ED0000D020C9B0F994FF0000B9146109300922E
:103EE00011B9791C00EB0109B7EB090003D4C0F14B
:103EF000FF3B07F10109A9EB0700019042E0012F08
:103F000000DA01270021112F01DD112000E03846E1
:103F1000CDE9000104A90CA8FFF7B2FADDE90D0113
:103F20000C9A00914FF0000BB946109221070FD464
:103F3000009A4A4503DA914601E0A9F10109B9F175
:103F4000010F05DD109AA9F10101515C3029F4D06F
:103F5000B84202DA10F1040F03DA0121CDE90110B1
:103F600010E0002803DC8344A9EB000102E0411CBF
:103F7000494500DD8946A0EB0B00401C01904FF045
:103F800000400290200705D40198484502DB4FF01D
:103F9000FF30019000208DF84B0002980DF14B0787
:103FA000B0F1004F25D002200C902B200D900298EC
:103FB00000280CDA404202902D200D9007E00A21E3
:103FC0000298FEF727FB3031029007F8011D0C998B
:103FD000481E0C900029F2DC02980028EFD1791ECF
:103FE0000D980870307800F0200040F0450007F888
:103FF000020D11A8C01BC01D02901398007800B1DB
:10400000012000EB0901019801EBE07102980144E5
:104010000398401A401E0390E00306D453462146FD
:10402000179A039800F085F805441398007818B1A2
:104030005246179990476D1CE00323D553462146FD
:10404000179A039800F075F805441BE0BBF1000FC8
:1040500007DB0098584504DD1098179910F80B00FD
:1040600001E0179930205246904701980BF1010B5F
:10407000401E05F10105019004D12E2052461799EA
:1040800090476D1CB9F10001A9F10109DEDC05E0E2
:1040900017F8010B5246179990476D1C0299481E5C
:1040A00002900029F4DC53462146179A03989EE6B5
:1040B0002D0000002B000000200000002DE9F04141
:1040C000044600251E461746880404D405E03946F8
:1040D0002020B0476D1C641EF9D52846BDE8F0814C
:1040E0002DE9F041044600251E461746880404D4F5
:1040F00005E039462020B0476D1C641EF9D52846DE
:10410000BDE8F0812DE9F041044600251E469046A9
:10411000C80301D5302700E02027880404D505E036
:1041200041463846B0476D1C641EF9D52846BDE8A7
:10413000F0812DE9F041044600251E469046C80353
:1041400001D5302700E02027880404D505E041464A
:104150003846B0476D1C641EF9D52846BDE8F0818D
:104160000A68531C0B601070704700002DE9F05F67
:10417000064600880B46C0F30B00834605F012FA92
:104180000400707875884FEA10170AD005F104080A
:10419000984509D02A1DBDE8F05F19463448FFF75D
:1041A0005BB9594633A01DE001F0BAF907F00301ED
:1041B000002740F2031A6063012903D002292BD0A3
:1041C0003BA00FE0A08F58B14119B1F5827F0DD30C
:1041D0005B4652464648FFF73FF9A787BDE8F09F88
:1041E000594644A0BDE8F05FFFF736B9A16B2A46F7
:1041F0000844311D0E30FEF7C7F9A08F284481B264
:10420000A187E08F083081422ED3A06B0E3005F0DD
:1042100035FAE787A78727E0A08F20B159464448A1
:10422000FFF71AF9A787B788381D8146854205D35D
:104230001FFA88F1304605F021FA15E0FF2D07D965
:104240005B465246291DBDE8F05F3A48FFF704B9C6
:10425000A06B2A1D31460E30FEF796F9A4F83C807B
:10426000E787A16BA1F81090BDE8F05F05F066BD8F
:10427000D87202026863692E633A2061636C5F68DA
:10428000616E646C65722063616C6C656420776933
:104290007468206E6F6E2D726567697374657265E0
:1042A000642068616E646C65202575210000000043
:1042B0006863692E633A2061636C5F68616E646C49
:1042C00065722063616C6C6564207769746820692D
:1042D0006E76616C6964207061636B657420626FD7
:1042E000756E6461727920666C6167732025750054
:1042F0009473020241434C20436F6E7420467261F6
:10430000676D656E7420627574206E6F20666972C9
:10431000737420667261676D656E7420666F7220BB
:1043200068616E646C65203078253032780000005A
:1043300084720202E873020270B5054607484469B8
:10434000241D04EBC5004268002A05D141608800A5
:104350001BF068FC44F8350070BD00000000002030
:1043600010B505494FF6FF7302E084788C54C01CE9
:1043700002889A42F9D110BD0000124010B50B46D8
:10438000002803D11146184607F0A2FD10BD704762
:104390001CB506498C68002C07D0002100910191C2
:1043A000B0F806010B460322A0471CBDB000002058
:1043B00070B50D46002821D10A2D1FD2104C4FF4A4
:1043C000947654F8250020B9304600F0DFFF44F819
:1043D0002500040012D031462046FEF7FCF8A4F870
:1043E000065104F58071284603F022F806F06AFFB2
:1043F000A4F802014FF0FF30A4F8080170BD0000DE
:1044000014480020F8B51646028A069F521A94B244
:10441000C288D2050AD50B4A55683DB10093008980
:104420000A46014633463846A847F8BD9C4200D9A3
:104430001C464069224601443046FEF7A5F8204656
:10444000F8BD0000B0000020042106F039B80421B6
:1044500007F048B8024908600421024806F0B8BFD6
:10446000BC000020AD490002024948600421024816
:1044700006F0AEBFBC000020AD490002042106F0EA
:104480001FB8042107F02EB800B58BB0D0F8240176
:10449000009023E0684600F027FABDF808100029D4
:1044A0001ED0BDF806200FA0FEF7D2FFBDF8060013
:1044B0008005039808D506A91BF03EFD06A81FF04D
:1044C00073F8014611A001E0018811A0FEF7C0FFBA
:1044D000BDF8101010A0FEF7BBFF00980028D9D13E
:1044E0000BB000BD48616E646C653A2030782530B1
:1044F00034782C20666C6167733A2030782530342C
:10450000782C20757569643A20000000257300003E
:1045100025303478000000002C2076616C75655FD2
:104520006C656E3A2025752C2076616C75653A2095
:1045300000000000064A30B41468002C06D00B4678
:10454000A4460246002130BC0420604730BC7047BE
:10455000C40000207CB51446042819D120783E28D8
:104560003FD016DC052846D0082801D030280FD1CE
:10457000B2F80350284600F0BDF8040008D02846E1
:104580001CF0FDFB04F8FD0F28461CF0D1F860700C
:104590007CBDD7284CD0D8283BD0DA28F8D1608809
:1045A00000F0A8F80500F3D0B5F8060104F0FAFF12
:1045B0000600EDD02079317A8842E9D16946601D44
:1045C0001BF0C9FC062231466846FEF716F80028A3
:1045D000DED1E07A85F8FF00B5F80601FFF751FF5C
:1045E0007CBDA078012801D00A28F9D19188D07823
:1045F000FFF7DEFE7CBDB2F80340204600F07AF8FB
:104600000028F7D000F0C4FE0F49002041F8240034
:104610007CBD608800F06EF80500F9D0B4F80B009E
:1046200001B2A5F8081109A0FEF713FF284608E01B
:10463000508800F05FF80028EAD04FF0FF31A0F872
:10464000081100F095FA7CBD14480020534D5F45D9
:1046500056454E545F4944454E544954595F52455E
:10466000534F4C56494E475F535543434545444588
:1046700044206964202575003EB50C468DF808007D
:1046800000208DF8092000900190022302AA042145
:10469000204607F023F93EBD7FB50DF1200C1446EE
:1046A0009CE864008DF80800ADF80930ADF80B20E7
:1046B000ADF80D10CDE90056072302AA04212046CB
:1046C00007F00CF97FBD70B515000C4603D0D0F88B
:1046D0002401206008E0002070BD204600F004F9AD
:1046E0002089A84203D020680028F6D170BD01209F
:1046F00070BD00000A2803D2024951F8200070471B
:1047000000207047144800202DE9FF410F7815461E
:104710000024B0F800214E1DBC460E2F74D00BDCD7
:10472000A7F102070B2F15D2DFE807F01C142E1497
:1047300038144B145C146300182F6FD006DC102F54
:1047400070D0122F7FD0162F04D181E0522F68D065
:10475000D22F66D0614646A0FEF77AFE04B020460E
:10476000BDE8F081B1F80110B0F802218A4202D907
:10477000A0F8001101E0A0F8002103241C70B0F89B
:104780000001A3F80100E9E71C46B1F803300093EB
:10479000B1F80130214603F0FFFB10E01C46ED1F8D
:1047A000B1F80570B1F80360CB1DADB2CDE902538D
:1047B000CDE90067B1F80130214603F059FB04460A
:1047C000CCE70C461946072D01D8022300E0102340
:1047D000B4F80350CDE900530296B4F8013003F069
:1047E000BBFDECE71C46B1F80130214603F0D0FEDA
:1047F000E5E71C46B1F803300093B1F801302146DB
:1048000003F0A0FCDBE7FFE71C46491C6D1E00918E
:10481000C5F34F03214603F049FED0E71DE001E058
:1048200011E01FE00C461946072D01D8022300E0D5
:104830001023B4F80350CDE900530296B4F80130C8
:1048400003F0F0FCBBE700922A4603F02DFFB6E729
:1048500000922A4603F018FCB1E700922A4603F0C2
:10486000D5FAACE700922A4603F0EEFE76E70000A8
:10487000556E68616E646C65642041545420436FCA
:104880006D6D616E643A20253032582C20444154BD
:10489000413A20001CB50B4B1C68002C10D0B623ED
:1048A0008DF8003005238DF801308DF80200ADF849
:1048B0000310ADF80520072300216A460420A04715
:1048C0001CBD0000C400002010B580B2FFF712FF2D
:1048D000002808D0B0F80A21B0F80611BDE8104051
:1048E0009120FFF7D7BF10BD10B501680A888280FC
:1048F0006AB14B88C3808C8804818C1DC4609B0581
:104900000CD5A2F11603038201F116030BE000217E
:10491000C1800181C1600182416106E0A2F108030A
:10492000038201F1080311444361016010BD70B5B9
:10493000044600890D4600281BD0022A08D0E088D2
:1049400080050BD51022E068FDF757FE80B111E01D
:1049500009882046BDE8704000F00EB8084605F012
:1049600029FC002805D0E168A8890988884201D17E
:10497000012070BD002070BD70B5044600890D4651
:10498000002810D0E0888005E06808D505F012FC0A
:10499000002808D0E0688089A84203D004E000889D
:1049A000884201D1012070BD002070BD2DE9F04189
:1049B000194C06461F4615468846042809D0082E7D
:1049C00028D12878C00720D0D4F800C01FE0304696
:1049D000E047287878281DD1D4F804C0BCF1000F36
:1049E00008D03B462A4641463046E04704F0D6FC14
:1049F00000280FD02468002C0CD03B462A464146A4
:104A00003046A446BDE8F0416047D4F804C0BCF18C
:104A1000000FDCD1BDE8F081BC0000202DE9F041A1
:104A20000F461546044601461E46127828A0FEF79A
:104A300010FD042C0CD0082C48D13846FFF75AFE44
:104A4000040043D029781E2909D0522919D01FE02B
:104A5000287878283AD1BDE8F04100F011B9B4F8CF
:104A60000A01A8B104F5867000F05CFDB4F80A21D3
:104A70000020A4F80A01B4F80611BDE8F041FFF7E0
:104A800009BF32462946BDE8F0410023FFF73CBE8E
:104A9000FB2E06D93246BDE8F041FB231948FEF74C
:104AA000D8BC227822B1BDE8F0411748FEF7D1BC4E
:104AB00001202070A4F8046132462946A01CFDF7AD
:104AC00063FD2046BDE8F04100F052B8BDE8F0813A
:104AD0006174745F7061636B65745F68616E646C50
:104AE00065723A2074797065203078253032782CE0
:104AF000207061636B65745B305D203078253032E7
:104B000078000000707102022471020210B5B0F842
:104B10000001029CC01E80B21970A3F801208442DB
:104B200000D8204610BD1FB514468DF80800069A1F
:104B3000ADF80930ADF80B20ADF80D100020009055
:104B40000190072302AA0421204606F0C7FE1FBDDC
:104B50003EB50C468DF80800ADF809200020009005
:104B60000190032302AA0421204606F0B7FE3EBDB1
:104B70002DE9FF410446017824A0FEF76AFC207865
:104B800001282DD1A078D22808D003202070B4F8B5
:104B9000060104B0BDE8F041FFF773BC1BF09AFFBB
:104BA0000027E0B1B4F804010F2818D3B4F80601C7
:104BB0001CF06CFB002813D1B4F9080107F03EF893
:104BC00005000CD0B4F80411A4F10A000E58696C69
:104BD000324611A0FEF73DFC686CB04202D9277046
:104BE000BDE8FF8102202070B4F803201749601D42
:104BF000CDE90006CDE90214B4F80401A1780F381C
:104C000083B205F134001BF06FFFE9E76174745F54
:104C100072756E3A20256400415454205369676EC2
:104C200065642057726974652C20444220636F7557
:104C30006E7465722025752C207061636B6574201D
:104C4000636F756E7465722025750000114F000248
:104C5000FFF714BC0EB50B21CDE900238DF8081029
:104C6000012302AA042106F039FE0EBD00B5FFF7AC
:104C700041FD10B1B0F8000100BD172000BD0000DB
:104C80002DE9F8430025144F144EA84657F8254047
:104C9000E4B1207803280BD1204600F0A7F838B102
:104CA000607898B1B4F80601BDE8F843FFF7E9BBB6
:104CB000607858B10AA084F80180006800903468D8
:104CC00024B1022300216A460420A0476D1C0A2D4E
:104CD000DCD3BDE8F883000014480020C4000020A5
:104CE000B70000002DE9FE431F4616460D468046DC
:104CF000FFF700FD040005D0B4F80A0120B19020B0
:104D0000BDE8FE835920FBE74046FFF7B7FB88B1BB
:104D100002AB2A461D2120460097FFF7F7FECDE99A
:104D20000060032302AA0421404606F0D7FD0600D6
:104D300002D014E05720E3E7A4F80A5104F5867086
:104D400042460849044600F023FC47F2305240F244
:104D50008241204600F004FC204600F0D3FB3046A0
:104D6000CEE70000C948000270B505460B480A4C62
:104D70000E46446004F0E6FA0848083044601BF030
:104D80007BFA0748FFF770FB284600F0B5F830467D
:104D9000BDE8704000F0B6B855450002C8000020DC
:104DA0001D4A00022DE9FE431E4615460F46804669
:104DB000FFF7A0FC040014D04046FFF75FFB90B162
:104DC00002AB3A461B2120460096FFF79FFECDE935
:104DD0000050032302AA0421404606F07FFDBDE8EF
:104DE000FE835920FBE75720F9E700002DE9FC413D
:104DF0002F4E002707700446B0F804213346811C6B
:104E0000FFF782FC0546A0F57F40FF3823D0042D34
:104E10000FD3307801280CD13079082809D194F8C3
:104E2000FE0030B1B4F806011BF0A9FC78B10128EE
:104E300011D085B100970197B4F806012B46324690
:104E4000042106F04BFD3078032807D02DE0B4F89C
:104E500006011CF0B3FE0020BDE8FC81154AB4F841
:104E60000611B4F80001156875B1B5228DF800205F
:104E700004228DF80120ADF80210ADF804000623DD
:104E800000216A460420A847B4F8060100F084F81F
:104E900009480078C00708D0B4F800010022001DBE
:104EA00081B2B4F8060101F0E9FC0120D4E700006A
:104EB000CC4D0020C4000020D8000020014908602B
:104EC00070470000C400002010B50246FFF712FC36
:104ED000002806D001214170BDE810401046FFF7C0
:104EE000D0BA10BD10B50C46FFF704FC002801D065
:104EF000C0F8244110BD000001494860704700001F
:104F0000B00000200149886070470000B000002018
:104F10007CB5044600780A4602280ED16946104640
:104F20001BF016F8B4F80411A01F014408226846CB
:104F3000FDF763FB10B1002020707CBDB4F80411B4
:104F4000A4F10A000E58B4F9080106F077FE050036
:104F500001D0012000E00020E52207A1FFF70EFAB2
:104F600045B1761C6E6403202070B4F80601FFF78B
:104F700088FA7CBD72B6FEE76174745F7365727601
:104F800065722E63000000000A6882654968C16589
:104F90003521017002F0E0BB70B5054602F026FF36
:104FA00004000BD02846FFF7A5FB002806D0E28AB4
:104FB000B0F800118A4202D9A0F8002170BDE18248
:104FC00070BD0000F8B50446C0880E46C0050BD57C
:104FD00006484568002D07D0002000900346024691
:104FE00021893046A8472082F8BD0000B00000208B
:104FF0007CB50E46C98804460D0B00D06D1C94F894
:10500000FD2094F8FE00CDE9000294F8FF302A4616
:105010001048FEF71DFAF088410502D594F8FE10FD
:1050200079B1000502D594F8FF0060B1002D02DDD2
:1050300094F8FD0048B194F8FD00A84207DA0C206E
:105040007CBD05207CBD08207CBD0F207CBD0020E0
:105050007CBD0000B47002023EB50C468DF808001D
:105060000699ADF80920CDE90013032302AA042113
:10507000204606F033FC3EBD2DE9F0479946174621
:105080000C460646DFF8608011E0301900EBD07066
:10509000451049462846B847404502D1A8B2BDE868
:1050A000F08702D905F1010601E0A5F10104A6424D
:1050B000EBDD49463046B847054649462046B847E5
:1050C000094B014640465B42854201D3EA1800E0A5
:1050D000421B814201D3C81801E0A8EB01008242C3
:1050E00000D83446A0B2DAE780841E000622FDF71D
:1050F00084BA0A68026089888180704710B50C49BB
:10510000002203463A24985C000900F044FB087032
:10511000985C00F00F0000F03EFB48708C70C91CDA
:10512000521C062AEFDB002001F8010C004810BDDC
:10513000614800200844008840BA70474218405C2B
:105140005378528852BA63F31F4242EA00607047B4
:10515000130A4354491C89B242547047130E4354F6
:10516000491C89B2130C4354491C89B2130A435495
:10517000491C89B24254704710B512F05FFA80F0B2
:10518000010010BD10B519F0C7F8022801D30120A5
:1051900010BD002010BD000010B50446FDF71EFD37
:1051A00003480188A1430180BDE81040FDF720BD00
:1051B0003404002010B503F025FCBDE810400120A8
:1051C00000F008B810B5012100F050FCBDE8104017
:1051D00004F050BF10B50446FDF700FD03480188F8
:1051E00021430180BDE81040FDF702BD34040020DA
:1051F00003480078C00701D119F0C8B97047000012
:105200003404002008B50020009008480068C1055B
:105210000748006803D069461FF0D6F908BD00238F
:105220001A4619461FF0BAF808BD000004ED00E068
:105230001000002010B504460E480078C00718D0B2
:10524000FDF7CCFC4CB103210B4818F0EBFE03F04A
:10525000DBFB11F06FFB0CF051FF0120FFF79CFF0F
:1052600012F0C0FB032019F0C3FABDE81040FDF7AF
:10527000BFBC10BD340400206100030070B50D48B0
:105280000088A0B912F0C0FA40F2E2450446A842F4
:105290000DD30948406D50B918F0F2FF38B919F034
:1052A0007BFBA84203D3A04200D3204670BD002060
:1052B00070BD000034040020000011400149086066
:1052C00070470000D80000200268134602E08A42BE
:1052D00004D01268002AFAD10B600160704702E026
:1052E0008A4205D010460268002AF9D10A6001609E
:1052F0007047006808B1002070470120704704E043
:10530000884201D10120704700680028F8D1704719
:105310000268816832B140680068884200D108683C
:1053200008B9704709B1012070470020704700227A
:10533000C0E90021096881607047016851B1416886
:105340000A6881688A4203D141600968816003E08C
:10535000826001E00121016080687047816809680E
:105360008160426811600021016070474FF0FF3397
:1053700051B107E002688A4203D109680160002048
:10538000704710460028F5D1184670471AF04ABCFD
:105390001EF0A2BAFFF7FCBF7820FFF7F7BF10B5E9
:1053A0000446806B06F0D8FC2046BDE81040FFF7AD
:1053B000EFBF70B59820FFF7E9FF04000CD040F272
:1053C000111006F0FBFC050008D098212046FDF7DF
:1053D00002F92046A56370BD002070BD2046FFF78E
:1053E000D7FFF9E77047FFF7D3BF5420FFF7CEBFD1
:1053F000FFF7CEBF1420FFF7C9BF2DE9F0410646E5
:105400000020984617460C460546306005E02146C8
:10541000304600F007F844446D1CBD42F7DBBDE8A0
:10542000F081000030B40268134607E08B4204D1DB
:10543000024630BC04A0FEF70DB81B68002BF5D166
:105440000A60016030BC70476274737461636B5FA3
:105450006D656D6F72795F706F6F6C5F6672656599
:105460003A20626C6F636B202570206672656564FC
:1054700020747769636520666F7220706F6F6C208F
:1054800025700000016819B10A680260084670477B
:1054900000207047FFF77CBF0C20FFF777BF0000AC
:1054A00000B589B00DF1080C01900E480068059216
:1054B0008CE80B000C4800684FF00003C005029810
:1054C00004D0002269461FF01FF804E04FF0FF32BD
:1054D00069461EF063FF012802D0012009B000BD1B
:1054E0000020FBE72C00002004ED00E013460A46F4
:1054F00001460A20FFF7D4BF13460A4601460C2096
:10550000FFF7CEBF38B504461FF04EFC02464FF001
:10551000FF3000900023012160691FF0A3FE38BD19
:105520000020704738B50446406948B14FF0FF315C
:10553000002300911A4605211FF094FE00206061AF
:10554000002038BD38B504461FF02EFC02464FF04F
:10555000FF3000900023022160691FF083FE38BDF8
:1055600038B50446816090024FF47A71B0FBF1F1D6
:10557000044800902346002203A01FF007FE60614C
:1055800038BD0000753000026800000001617047FE
:10559000C0E90312704708B54FF0FF3100910023B6
:1055A00040691A4603211FF05DFE08BD2DE9F04158
:1055B0000746114815460E46046898463888B4F8E0
:1055C000E02034F8DE1F00F07DF938806288218801
:1055D000308800F077F93080E288A188288800F0D0
:1055E00071F9288062892189B8F8000000F06AF911
:1055F000A8F80000BDE8F0810054020270B50C006C
:10560000054601D0012000E000206A2206A1FEF735
:10561000B5FE284600F034F810B100206C60206020
:10562000286820602C6070BD6C6973745F62617360
:1056300069632E630000000070B50C00054601D0C0
:10564000012000E00020532207A1FEF797FE284624
:1056500000F016F808B12C6001E0686804600020D2
:105660006C60206070BD00006C6973745F62617370
:1056700069632E63000000000021016041607047F3
:10568000006808B10020704701207047006808B129
:105690000020704701207047016819B10A68026054
:1056A00012B103E00022FAE7002242600846704788
:1056B00070B5054600680C4600B10120C32209A15F
:1056C000FEF75CFE206800B10120C42205A1FEF7B0
:1056D00055FE696820680860606868600020206086
:1056E000606070BD6C6973745F62617369632E631F
:1056F000000000000448D0F8A81141F00201C0F8F1
:10570000A81118F04DBC00000000104070B5034611
:1057100000200246012513F80240002105FA01F697
:10572000344201D0401C80B2491CC9B20829F5D3CB
:10573000521CD2B2052AEED370BD70B50446008962
:105740001AF040FC2521B0FBF1F201FB1201CA085E
:1057500001F00705A25C0123AB401A4201D00846C4
:1057600070BDE18841432046BDE87040C1F3074168
:1057700002F00CBB30B504461068206010790D466D
:1057800000F01F0020712046FFF7C0FFE08085EA8F
:105790001540208130BD0A2801DA303003E00A3894
:1057A000062802DA4130C0B270473F20704770B51A
:1057B0000446C08E88B0002822D0258F94F834305B
:1057C000A2268DF800601A268DF80160A6890A4687
:1057D000ADF80400ADF8082004F11C01ADF802603A
:1057E000ADF80650ADF80A30102203A8FCF7CCFE45
:1057F000A1891C236A46A06800F090F90020E08689
:1058000008B070BD04481144814203D901201860DA
:1058100003207047002070478F4D0020234810B5AB
:10582000016841F470010160214CD4F8A80120F412
:10583000C050C4F8A801D4F8000180072FD5FDF7A7
:105840007DFC1C4881681C4A21F4F04111438160B1
:10585000016921F080010161816921F000418161CC
:10586000C16841F00401C160D4F800118907FBD47C
:105870004169124A01F0C04111434161016921F0BF
:1058800078410161BFF34F8F08487C3801680C4AAA
:1058900001F4E06111430160BFF34F8FFEE7D4F8DC
:1058A0002C0140F08000C4F82C0110BD88ED00E010
:1058B000000010400020104000280080C7E8948AB3
:1058C0000400FA0519B1884201D208467047002A3F
:1058D000FCD09042FAD91046704700000249CA6DC8
:1058E00082430243CA6570470000114043688B42FF
:1058F00004D18068904201D1012070470020704798
:105900003EB5144D0022202140206C691EF0A6FCFB
:10591000E8620322002101201EF0A0FC28610E4A4B
:105920000E2061688DE8070000230CA10C48A268D6
:105930001FF0EEF9084A286354320220E1688DE82E
:105940000700002307A1084822691FF0E1F96863F6
:105950003EBD000000000020F804002063000000AD
:10596000592B00027000000085F1010210B5087883
:105970000C4648B10848007800070AD50022BDE867
:105980001040022004F0BABB04F0EFFB00222146D5
:10599000F5E7002010BD00000000002070B50646AD
:1059A000401E1D460C460A2809D2207829688842E4
:1059B00005D10622211D6868FCF71FFE08B10020F2
:1059C00070BDC5E90264032070BD00000248417A41
:1059D000491C4172704700004C01002010B504467C
:1059E00003F0FEF8002010F091FF11F009FE10F016
:1059F000D5FD08F047FB0CF097FF13F051FB17F0B3
:105A0000F3FB002C03D0BDE8104012F0ECBB10BD3E
:105A100070B50446B0F1A53F19D0B4F1C33F16D01C
:105A200001239A0205211D2018F01EFD0546B4F140
:105A3000F23F09D0922206A10020FEF79FFC2846E3
:105A4000BDE8704018F082BE07202870F7E770BDEF
:105A50006474626C652E630003484FF40031C164C6
:105A60004FF420318164704700001140F8B50546BD
:105A70001B480E460021018011F03CF81DF002F891
:105A800018F09AFC684611F077F80446009842F244
:105A900054614FF47667884201D3012000E0002072
:105AA000842210A1FEF76AFC3A462146002018F035
:105AB000EFFC009804F57661A0F5766082B20120D3
:105AC00018F0E6FC1CF046FF3046FFF787FF002D7C
:105AD00004D02846BDE8F840FFF79ABFF8BD0000A3
:105AE00034040020647469702E63000009490120A9
:105AF000096809B1002070470749CA69002AF9D12D
:105B0000044A283212688968491E8A42F3D1022069
:105B1000704700009C0900204800002030B40400B9
:105B200003D0A44630BC0420604730BC7047FEB5AB
:105B30001E4617460C46054602F058F9002816D0B6
:105B4000011D6846FFF7F3FB0CE06846FFF7F5FB25
:105B50000189A14206D1D0F804C033463A4629460D
:105B60000420E0476846FFF7D3FB0028EDD1FEBDD7
:105B70001CB5A0228DF8002003228DF80120828917
:105B8000ADF802208DF804108189806805236A46EB
:105B9000FFF7C4FF1CBD30B587B00446A3250A98A3
:105BA0008DF8005018258DF80150A589ADF8041026
:105BB000ADF806200146ADF80250ADF808301022CD
:105BC0000DF10A00FCF7E0FCA1891A236A46A068DF
:105BD000FFF7A4FF07B030BD10B586B00446A12082
:105BE0008DF8000016208DF80100A089ADF8041092
:105BF000ADF80200ADF806201022194602A8FCF705
:105C0000C3FCA18918236A46A068FFF787FF06B086
:105C100010BD00002DE9F05F00249246894605463C
:105C20002746264626E000BF05EB8400B0F90210A7
:105C300035F924001AF0F4F9834605EB8800B0F931
:105C4000021035F928001AF0EBF9ABEB000043F62F
:105C5000FF71884203DBA0F5FE40FF3806E043F603
:105C6000FF71C84202DC47F6FF710844074404EBA9
:105C70004904761C04EB0908D045D5DB97FBF6F008
:105C8000BDE8F09F2DE9F04342780446901C89B0AE
:105C90000E46814206D009B0EA48BDE8F043921CA6
:105CA000FDF7DABB2178E8A0FDF7D6FB2078DFF816
:105CB000A8834FF00009122874D00CDC0E2811D0F4
:105CC00004DC05286FD0082852D17AE00F2846D08E
:105CD00010284DD198E0132851D03E2870D0572875
:105CE00046D190E1D8F80000A278454690F86610B9
:105CF000DAA0FDF7B1FB6179E1A0FDF7ADFB296802
:105D0000A07881F86600E349B4F803000988884266
:105D10002AD0E1490988884226D0E049098888428A
:105D200022D0DF49098888421ED0DE49098888428E
:105D300003D12968601D48310EE0DB49098888429B
:105D400003D12968601D4C3106E04FF601418842BD
:105D50000AD12968601D503103F010FB04E0D8F827
:105D60000000E17880F86610D8F80010A1F89A9049
:105D7000D8F8000090F87C00012878D04FE1032586
:105D8000002719E0635BAD1C625B1846AD1C03F095
:105D900009FC48B190F8401091420AD3891A80F862
:105DA000401008E035E026E01946C0A0FDF754FB9E
:105DB00001E080F840907F1CA078B842E2DCD7E791
:105DC00033E0B4F80350284603F0ECFB0028CFD0B2
:105DD000A17849B961790029816902D041F4004173
:105DE00001E021F40041816100F036FC01462846C3
:105DF00003F0BCFCBCE7B4F8030003F0D3FB0028BD
:105E0000B6D007214174B3E703F01CFF03F02EFF67
:105E1000AEE7A0780028ABD1B4F8030003F0C2FBD2
:105E20000028A5D0617A0174A2E7A07806287CD06A
:105E300012DC012820D004289AD1E078002875D1FE
:105E4000A08803F0AFFB002870D0A17980F88910FA
:105E5000012180F888108BE70A280DD0122887D1FD
:105E60002079082884D2E178002972D000E0D2E0BD
:105E70009CA0FDF7F1FA7BE7E07800289FD1A78886
:105E80000A2F27D2D8F8000000EB8705686910B9FF
:105E9000FFF78FFA686105001CD0EF800220C5F87B
:105EA0001890A8742A46984905F11C00FFF770FB6A
:105EB000FFF736FB6863E0792872294604F1080091
:105EC0001AF049F805206874A0792874A0780A2887
:105ED00004D012E0A08800F0AFF949E7D4F80E1022
:105EE000C5F88A10618AA5F88E106169C5F890100E
:105EF000218B05F18000A5F89410E089A5F85200E7
:105F0000287C60B9D8F8001091F86410E973D8F8CB
:105F1000000005F1090190F8640000F047FA2846F6
:105F2000FFF7ECF80246E98801E013E070E077A0A3
:105F3000FDF792FA03F0F0FBD8F8000090F8720039
:105F4000C00688D5E98840F6B832784803F060FC8E
:105F50000EE72DE034F8037F384603F023FB0500FD
:105F60006088ADF81400A088ADF81000E088ADF8A6
:105F700018002089ADF81C00A4F10304ADD007ABD4
:105F800006AA04A905A8FFF711FBBDF81800B5F88B
:105F90005630B5F85420BDF81C108DE80F00BDF840
:105FA0001030BDF814203946614803F031FCDFE6BB
:105FB000B4F80520104603F0F5FA054621795DA0F6
:105FC000FDF74AFA2079D8F80020C0EBC00111444F
:105FD00091F8A510E97369B12179D8F80000C1EBF7
:105FE000C101014401F18000D1F8A61045F8091F54
:105FF000408D06E0D8F80000816D45F8091FB0F823
:106000005C00A880B4E6608803F0CCFA00289FD139
:1060100009B0BDE8F083B1B2204603F09FFCB1B2F5
:10602000204603F051FB2078052806D1B4F8030080
:1060300003F0B8FA08B103F06FFF09B0BDE8F04310
:1060400003F07CBE347302024843493A4556454E3C
:10605000543A25303278000000540202434D445F28
:10606000434F4D504C45544520636D6473206F6C15
:1060700064202575202D206E657720257500000091
:10608000636D645F636F6D702073746174757320EA
:1060900025750000C8550202D0550202B055020213
:1060A000C055020250550202585502026863695FEA
:1060B0006E756D6265725F636F6D706C657465643B
:1060C0005F7061636B6574206C6973747320756EA7
:1060D0007573656420636F6E2068616E646C652003
:1060E0002575000061647620736574207465726D97
:1060F000696E61742064756520746F2063617573C7
:106100006520307825780A00BD9500024E6577201D
:10611000636F6E6E656374696F6E3A2068616E645A
:106120006C652025752C202573000000F0540202B8
:10613000785502026164762068616E646C65722035
:106140003078257820636F6E6E65637465642074A3
:106150006F20636F6E2068616E646C6520307825F7
:10616000780A000010B5044603F0F8FF204610BD81
:1061700070B5064615460C460C20FFF707F9014698
:106180003046C1E90145BDE87040FFF7A8B80000FE
:1061900013460A460146014803F03ABB2056020264
:1061A0000246014803F034BB2055020270B588B0A6
:1061B0000C461D461646694619F0BEFE04A9204647
:1061C00019F0BAFE04AA6946074803F021FB04004F
:1061D00006D106482A46314600684830FFF7C8FF16
:1061E00008B0204670BD0000505502020054020263
:1061F000014803F00DBB000018550202014803F0EE
:1062000007BB0000D0550202014803F001BB0000AB
:1062100030560202014803F0FBBA0000105502029A
:1062200008B5009313460A460146024803F0F0FA07
:1062300008BD00006454020210B5034603F0B2F931
:1062400040B10621417413221946054803F0E0FAD3
:10625000002010BD0021184603F022FAF8E70000E4
:10626000D854020238B54FF0FF30ADF80200ADF857
:10627000000006250DE0684603F0E4F90446407C82
:10628000062806D0E1881322054803F0C1FA00B9B8
:106290006574684603F0B6F90028ECD138BD0000FB
:1062A000D85402022DE9FF4FDFF8A8A085B00024E2
:1062B000DAF80020DDE912691268DFF894808B4675
:1062C0000A2000EB061153692746B8F8000003AA1C
:1062D0009847050001D001210FE0562009B0BDE824
:1062E000F08F00BF04EBC40219F81220521E01FA0D
:1062F00002F03843641CC7B2E4B2B442F2D3DDE921
:1063000007018DE883005B46D8F804102846059AFB
:1063100003F03FF9C7B200240DE000BF04EBC40155
:1063200009EB4101E8191022891CFCF72DF91037FF
:10633000641CFFB2E4B2B442F0D3DAF80010404675
:1063400081F864B02946039A03F0ACFD0020C5E74C
:10635000005602020054020270B506460D46074878
:1063600003F056FA040006D105482A463146006873
:106370004C30FFF7FDFE204670BD0000585502026C
:10638000005402020248006890F89C007047000028
:10639000005402020449096851F8DE2F02604A687D
:1063A000426089688160704700540202074A0028F1
:1063B000106804D050F85E2F0A60808803E0826D78
:1063C0000A60B0F85C008880704700000054020248
:1063D0000146014803F01CBA40550202034909680E
:1063E0008A6D0260B1F85C1081807047005402022F
:1063F00010B50446014604A0FDF72EF8022C01D981
:10640000012010BD002010BD6761705F6D69746D63
:106410005F70726F74656374696F6E5F72657175BA
:10642000697265645F666F725F73656375726974C4
:10643000795F6C6576656C20257500007FB50DF180
:10644000200C9CE870008DE8780013460A4601464F
:10645000024803F0DDF904B070BD000008560202E6
:10646000014803F0D5B900001056020213460A464F
:106470000146014803F0CCB95454020213460A46BF
:106480000146014803F0C4B94C5402021CB5049CF7
:10649000CDE9003413460A460146024803F0B8F934
:1064A0001CBD00005C5402020146014803F0B0B973
:1064B000185602020448817A012903D1022181720F
:1064C0001BF0E0BB704700004C010020074810B5EE
:1064D000026C40F282210648FFF742F80448FFF7B9
:1064E00011F8BDE81040FFF7E5BF00004C010020A7
:1064F000184F002010B5002207490848FFF748F858
:10650000074840F28221026C0448FFF729F8BDE8F1
:1065100010400248FEF7F6BFCD640002184F00207D
:106520004C010020014803F073B900000855020235
:10653000014803F06DB900003C540202014803F029
:1065400067B90000385602020146014803F060B9FD
:10655000885502020146014803F05AB94855020223
:106560000146014803F054B9E054020201460148D3
:1065700003F04EB9F85402020246014803F048B94C
:10658000285502022DE9F0410E46074603F00AF8AD
:10659000050010D0384600F055F804460246314652
:1065A00008A0FCF759FFB44207D321463846BDE89E
:1065B000F04103F0DBB80121F8E7AE74BDE8F0412B
:1065C00003F0BCBB6761705F726571756573745F62
:1065D00073656375726974795F6C6576656C202587
:1065E000752C2063757272656E74206C6576656CAF
:1065F000202575000146014803F00AB9C85502027A
:1066000013460A460146014803F002B92856020221
:1066100013460A460146014803F0FAB874540202D0
:10662000F0B585B00DF1280C9CE8F0008DE8F8007D
:1066300013460A460146024803F0EAF805B0F0BDE9
:106640008454020210B502F0ADFF18B1BDE810404D
:1066500000F002B8012010BD10B1008B000401D47D
:10666000012070470220704702207047074BC0EBA3
:10667000C0021B681A440B6842F8A63F8B889380BF
:106680000A460146024803F0C3B800000054020263
:10669000A055020200B101200249096881F89C005E
:1066A00070470000005402020149096848657047BC
:1066B000005402021CB5049CCDE9003413460A467E
:1066C0000146024803F0A4F81CBD00002C5402024D
:1066D0000A460146014803F09BB800003454020208
:1066E0002DE9FE4F144E8846A6F11C011D4609688F
:1066F0001746814609683088DDF830A04B6902AA48
:10670000691D9847040014D0CDE9007543464A46F8
:10671000716802F03EFFC0B220442A465146FBF7A2
:1067200033FF21463046029A03F0BCFB0020BDE84F
:10673000FE8F5620FBE700001C5402022DE9FC47A7
:10674000124D0F46A5F12401994609681646804668
:106750000968288801AA4B69311D9847040013D0A5
:1067600000963B464246696802F013FFC0B22044DF
:1067700032464946FBF708FF21462846019A03F0B6
:1067800091FB0020BDE8FC875620FBE72454020261
:1067900004490268096841F8DE2F42684A6080684F
:1067A00088607047005402020A460146014803F01F
:1067B0002FB800000C5402022DE9FF5F154D8946E9
:1067C000291FDDE90E6B09681F469046096882465D
:1067D00028884B6903AA711D9847040018D0CDF88A
:1067E0000080CDE901764B4652462046696802F0AA
:1067F000D0FEC0B2204432465946FBF7C5FE2146C2
:106800002846039A03F04EFB002004B0BDE8F09F39
:106810005620FAE7045402022DE9FF5F164D89461F
:10682000A5F11401DDE90E6B09681F469046096861
:10683000824628884B6903AAB11D9847040018D0E6
:10684000CDF80080CDE901764B4652462046696876
:1068500002F09FFEC0B2204432465946FBF794FE38
:1068600021462846039A03F01DFB002004B0BDE832
:10687000F09F5620FAE70000145402020AB944F2CD
:10688000902213460A460146014802F0C1BF0000AB
:106890008055020213460A460146014802F0B8BF7D
:1068A0009055020208B50B460092024600210248AC
:1068B00000F070F808BD0000B05502022DE9FC4759
:1068C00091461B4A194F88461268044602211268F5
:1068D00001EB88013888536901AA9847060007D060
:1068E00043462246796802F054FEC5B2002414E003
:1068F0005620BDE8FC8700BF04EB440009EB4001D3
:106900000A7900924B8819F81020701909A102F039
:1069100040FE2D1D641CEDB2E4B24445ECD331467B
:106920003846019A03F0BEFA0020E2E7C0550202A1
:1069300000540202313231002DE9F04F8DB01AAF10
:10694000DFF848C097E8604FDCF800C0C0EBC00734
:106950006744179C87F8A54008AF87E8004EDDF82C
:1069600064C005AFCDF810C087E86001169E189D81
:10697000CDE9003613460A4601460548CDE90245F1
:1069800002F046FF0DB0BDE8F08F00000054020297
:10699000A85502022DE9FC471C460A9D1746884669
:1069A0008146F72B26D9F720CDE900050B460122B9
:1069B0003946484602F02CFF002823D1F73CA4B208
:1069C000F73515E0F72C01D3F72600E02646A01B8B
:1069D000CDE900650404240C01D0002200E002226D
:1069E00043463946484602F013FF00280AD1354491
:1069F000002CE7D14346032239464846CDE90045FD
:106A000002F006FFBDE8FC8708B5009313460A466E
:106A10000146024802F0FCFE08BD0000F8550202E3
:106A20002DE9FC4716460F4602EB8601244ADFF8A3
:106A30008C8099461268824600241268B8F80000DB
:106A4000C91C536901AA9847050002D00020012201
:106A50000DE05620BDE8FC8700EB400319F8133029
:106A60005B1E02FA03F12143401CCCB2C0B2B0421B
:106A7000F2D300943B4652462846D8F8041002F060
:106A800088FDC7B200240FE004EB440109EB41008C
:106A90008188009143884278E8190AA102F079FDC3
:106AA0007F1D641CFFB2E4B2B442EDD329464046D8
:106AB000019A03F0F7F90020CCE70000F05502023C
:106AC000005402023132320008B50B4600920246F1
:106AD00000210248FFF75EFF08BD0000B855020222
:106AE0000A460146014802F093BE000038550202F2
:106AF0002DE9F843194F15460C468046F82923D94D
:106B00000146F82301223846009502F081FE002854
:106B100021D1F83CA4B2F83514E0F82C01D3F826C2
:106B200000E02646A01B0404240C009501D000229E
:106B300000E0022233464146384602F069FE002852
:106B400009D13544002CE8D123460322414638467A
:106B5000009502F05DFEBDE8F8830000E0550202FA
:106B60000A460146014802F053BE0000E855020201
:106B700008B5009313460A460146024802F048FE53
:106B800008BD0000D85502020A460146014802F03D
:106B90003FBE0000445402021CB5049CCDE9003401
:106BA00013460A460146024802F032FE1CBD0000B0
:106BB0009855020205490268096841F85E2F8288EB
:106BC0008A800146024802F023BE000000540202FF
:106BD000005502020249096881F86500704700000B
:106BE000005402022DE9F04788B00DF10C0EDDE9EA
:106BF0001367DDE91145DDE916A9DDF854C0DDF8BC
:106C000040808DE8081113468EE8F0000A460146E0
:106C1000084802F0FDFD040007D106484A466C38DA
:106C2000514600685030FFF7A3FA08B02046BDE88F
:106C3000F08700006C540202014802F0E9BD000038
:106C40009454020208B5009313460A4601460248CE
:106C500002F0DEFD08BD00007C540202F0B587B0F2
:106C60000DF1300E9EE8F0108DE8F81013460A463C
:106C70000146024802F0CCFD07B0F0BD8C54020280
:106C80002DE9FF410D46DDE90A4780460C9E02F0E2
:106C900089FC002806D0007C38B129464046009483
:106CA00004F03FFC04B0BDE8F08103968DE8980045
:106CB00013462A464146024802F0AAFDF2E70000C8
:106CC0003055020208B59200921C0B460092014614
:106CD0000722024802F09CFD08BD00009C540202FD
:106CE0002DE9F047DFF88CA48AB01E461546884689
:106CF00004280AD008287DD128781B280FD01D2809
:106D000008461FD001F072F81EE02978782971D169
:106D1000DAF80040002C50D04146A0474DE0B5F8CD
:106D200001700C46DE1E3946A720D21C19F08CFAE1
:106D30000246F61C0AB0B3B239462046BDE8F04719
:106D4000FEF7F5BE18F058FA040053D02978771EE4
:106D50004FF001090D2973D009DC0C2915D2DFE8A9
:106D600001F014EF143114EE14ED148614F0172909
:106D700067D006DC0F2978D0112952D0132904D10D
:106D800067E1192972D01D295CD0FBA0FCF763FBD9
:106D900028788DF808908DF80900002006218DF8DC
:106DA0000A008DF80C108DF80B0000900190A0895E
:106DB000052302AA042104F091FD0AB0BDE8F047C2
:106DC00000F0CABCB5F8015004F07CFA854200D24C
:106DD0002846E08284F81890DAF8005095B1AB208C
:106DE0008DF8000004208DF80100A089ADF80200A4
:106DF000E08A00E0F7E1ADF804000623A1896A46C5
:106E00000420A8474046FEF7C7F8E6480078800708
:106E1000D3D4E08A0022001D81B2A089FFF72EFDA5
:106E2000CBE720780228C8D132462946204619F0FF
:106E300045F869782046711A294401224988A7E05B
:106E40000FE13CE14746B5F80180EA1C4146A82025
:106E5000F61E19F0F9F9F61C0246B3B2414638465F
:106E6000FEF765FE84F85190A7E76AE15BE12078C0
:106E70000C281BD011DC062801D008289DD13246F1
:106E80002946204618F0CDFF3146284600F0B8FFCD
:106E9000014620461CF0C4F98FE7142833D024287B
:106EA0008BD16888A4F84C0025203AE195F8018040
:106EB000B8F1070F07D26888A085A8882086E888DF
:106EC00060860D202DE1022716E000BFE91935F894
:106ED00007904A8822868A886286C98801A81CF0A1
:106EE0008FFB01A80090638E228E49462046FEF754
:106EF00052FE07EB080087B2B742E7D36978204615
:106F0000711A695A43E095F8018000210227A8F11F
:106F1000020A0DE035F80790EA191FFA8AF349468C
:106F20002046921C18F06EFF07EB0800494687B216
:106F3000B742EFD3204613222AE002E035E04CE0CE
:106F400009E120780E2814D0102824D028288BD1CD
:106F5000204600F07DFA218F6A1CA92019F074F9EF
:106F600002460837BBB2A189A068FEF7D7FD002111
:106F700035E101A9681C18F0DFFFA18D01AA00927C
:106F80002046638E228EFEF706FEA18D20460B2240
:106F90001CF066F911E7204600F05AFABBB2218FC7
:106FA0006A1C204618F02EFFE1E74FF004094FF667
:106FB000FF78012704F11C0A09E0E819E95B408821
:106FC0005346804602462046FEF706FE4F44B7422F
:106FD000F3DB204641460322DAE7687804270228DB
:106FE00000D11227F01BB61E1FFA86F835F800A054
:106FF0000026AD1C22E000BF35F80690042F05EBFB
:10700000060021D006A9801C18F096FFA4228DF856
:10701000002014228DF80120A289ADF8022006A9D3
:10702000ADF8049010220DF10600FBF7ADFAA1892E
:1070300016236A46A068FEF771FD3E444645DBDB39
:10704000204651460922A3E7418806A81CF0D8FA39
:10705000DCE72078182803D0262801D02C2899D1E5
:10706000ACE0761E2078B6B2761DBFB2122815D0DD
:107070002A288FD1218F628F6B1CAA20009719F0CC
:10708000F1F8020004D0B3B2A189A068FEF746FD72
:107090003A46292120461CF0ABF88EE6218F628FFC
:1070A0006B1CA620009719F0DDF8020004D0B3B2E3
:1070B000A189A068FEF732FD3A461121EAE720785F
:1070C0001A2812D01C281CD02E2814D03228E4D123
:1070D000204600F0BDF932462946204603F090F8DC
:1070E00000287FF461AF7E2179E0B5F803001D220E
:1070F0006087192110E0B5F803002F2260872D2149
:107100000AE032462946204603F07AF840B1B5F845
:1071100003001D2260871B2120461CF090F84CE6DE
:107120002120207049E620781E2847D0202845D00D
:10713000222802D03028B0D140E0204600F088F963
:10714000D1E720781628A8D1BBB26A1C00212046BE
:1071500018F058FE32E029790A292BD12078082826
:1071600030D021DC022829D0042827D0062821D1BC
:1071700028E00000DC0000204154542048616E6487
:107180006C65722C20756E68616E646C656420722B
:107190006573706F6E736520747970652030782523
:1071A00030327800D80000200A2807D00C2805D0FB
:1071B00014280CD0204600F0BEFAFEE5204600F070
:1071C00047F9D4E6E18D2046FEF7F1FAF6E72046CE
:1071D00000F03EF9A08D218E8842F2D10A2120468E
:1071E000FEF7C6FCE9E50AB0BDE8F08710B5044635
:1071F000084618F03BF818B1017819B1952010BD78
:10720000562010BD1F218460017000F0A5FA0020F7
:1072100010BD70B505461446084618F027F818B199
:10722000017819B1952070BD562070BD85606188C8
:10723000A288914203D10021FEF79AFC07E0491C85
:107240008185A188C1850921017000F085FA00209F
:1072500070BD2DE9F04107461D4616460846DDF88B
:10726000188018F003F8040004D0207820B195208D
:10727000BDE8F0815620FBE7A760A685E5850120E3
:1072800084F85000002565831022414604F11C005B
:10729000FBF77AF9E5860720207000F05DFA002000
:1072A000E6E72DE9F04107461D4616460846DDF89B
:1072B000188017F0DBFF040004D0207820B195205F
:1072C000BDE8F0815620FBE7A760A685E585012093
:1072D00084F85000A4F81A80414604F11C001CF008
:1072E0008FF90020E0860720207000F035FA00209A
:1072F000E6E770B506461C461546084617F0B6FF89
:1073000018B1017819B1952070BD562070BD866006
:107310008585C485002180F85010C1860521017043
:1073200000F01AFA002070BD10B50446084617F0A8
:107330009DFF18B1017819B1952010BD562010BDE0
:107340000121846081854FF6FF72C28501700021A2
:10735000418300F001FA002010BD70B505461646C5
:10736000084617F083FF040003D0207818B1952059
:1073700070BD562070BD0120A560A0854FF6FF703E
:10738000E085002060831022314604F11C00FBF7E9
:10739000FBF80320207000F0DFF9002070BD70B50D
:1073A00005461446084617F061FF18B1017819B177
:1073B000952070BD562070BD0121856081854FF6F6
:1073C000FF71C185032100F81A1B214620F8024BEA
:1073D0001CF016F900F0C0F9002070BD10B504468D
:1073E000084617F043FF18B1017819B1952010BD78
:1073F000562010BD1D218460017000F0ADF9002001
:1074000010BD70B506461C461546084617F02EFFFF
:1074100018B1017819B1952070BD562070BD8660F5
:107420008585C4850B21017000F096F9002070BDA0
:1074300000B50A4600F0DAFC10B1017E012903D044
:1074400017201080952000BDC08A1080002000BD4C
:1074500010B5002101700446818904A0FBF7FBFFF1
:1074600004F16000BDE81040FEF75CB84741545499
:1074700020636C69656E742074696D656F75742026
:1074800073746F702C2068616E646C652030782591
:107490003032780070B5042817D11078052810D143
:1074A000B2F80350284600F0A1FC040009D01F21C7
:1074B00000F041F90549002041F825002046FDF77C
:1074C00069FFBDE8704000F047B970BD7448002006
:1074D000064910B504484860084601F033FFBDE88E
:1074E00010400348FCF7B6BF95740002E00000208E
:1074F000E16C000210B517F07FFE002802D0007882
:1075000008B1002010BD012010BD70B504460D4625
:10751000104600F06BFC002807D0656023812146EF
:10752000BDE87040001DFDF7CFBE70BD2DE9F041F4
:107530000646DDE906781C461546084617F096FE15
:1075400020B1017821B19520BDE8F0815620FBE7FC
:1075500086600587878744873121C0F840800170A5
:1075600000F0FAF80020EFE770B50546144608462B
:1075700017F07CFE18B1017819B1952070BD562026
:1075800070BD856004872721017000F0E5F80020B8
:1075900070BD0023AFF3008070B506461C4615464B
:1075A000084617F063FE18B1017819B1952070BD37
:1075B000562070BD8660058744872921017000F040
:1075C000CBF8002070BD0023AFF3008070B50646F5
:1075D0001C461546084617F049FE18B1017819B146
:1075E000952070BD562070BD8660058744871121A7
:1075F000017000F0B1F8002070BD70B506461D4660
:107600001446084617F032FE18B1017819B19520DA
:1076100070BD562070BD8660A0F844401521856479
:10762000017000F099F8002070BD70B50546144651
:10763000084617F01BFE18B1017819B1952070BDEE
:10764000562070BD85600487002141870F2101709D
:1076500000F082F8002070BD2DE9F04107461D467C
:1076600016460846DDF8188017F000FE040004D026
:10767000207820B19520BDE8F0815620FBE7A76077
:10768000A685E58526866586002060831022414612
:1076900004F11C00FAF778FF1320207000F05CF86A
:1076A0000020E8E72DE9F04107461D46164608464A
:1076B000DDF8188017F0DAFD040004D0207820B13E
:1076C0009520BDE8F0815620FBE7A760A685E585FB
:1076D00026866586A4F81A80414604F11C001BF03A
:1076E0008FFF1320207000F037F80020E9E700003A
:1076F0000149086070470000DC0000202DE9F041DE
:1077000006461C4615460846069F17F0AFFD20B1F9
:10771000017821B19520BDE8F0815620FBE7866015
:1077200005878487002141871B210764017000F0D1
:1077300013F80020EFE770B5044600780D460028E6
:1077400008D02046FFF784FE29462046BDE8704059
:10775000FEF70EBA70BD00002DE9F04F002789B08A
:107760004FF01E094FF0040A4FF0020B3D464FF058
:107770000808CE4850F82740002C70D0A089FCF7AC
:1077800063FE40B12278217EC9A0FBF764FE207E13
:10779000012864D105E0A08909B0BDE8F04FFCF7ED
:1077A00056BE94F8510050B184F85150A08901237D
:1077B0008DF80890009502AA042101958CE02078AC
:1077C000172801D02B2818D1204617F001FAA18FD5
:1077D000C01E884211DA204617F0FAF90246A18F3E
:1077E000C1A0FBF738FE2046FFF732FE09B0204665
:1077F000BDE8F04F0D21FEF7BBB9606D04F01EFA35
:1078000006462178C3A0FBF726FE2078362826D22C
:10781000DFE800F09E1B9E269E469E499E519E6577
:107820009E719E759E779E799EA39EB69EB89EBCC5
:107830009EBE9EC19EC39ECB9EED9ED39EDD9EE5C9
:107840009EFE9EFC9EBA9EFB9EFA84F800B0E08DE0
:107850000090A38DA2894FF42051102048E077E0DA
:1078600084F800A0608B4FF4205530B1ADF81C00B7
:10787000E18D07AA8DE8060809E003A904F11C00C0
:1078800018F05AFBE08D102203A98DE80700A38DA4
:10789000A28929460620FCF7FFFE09B0BDE8F08F5B
:1078A0000620207001E084F8008009B02046BDE881
:1078B000F04F18F04CBC84F80080A689A18DE08DB3
:1078C0008DF808A0ADF80910ADF80B000095052360
:1078D00002AA04213046019504F000F8DDE70C20EF
:1078E0002070E08D0090A38DA28942F6020108204D
:1078F000FDF719F9D1E70E202070228E60E01020EC
:107900005CE0122064E014202070618B204639B1C5
:10791000C28D0092838DA2890820FDF704F917E03B
:1079200000F11C028689818DE08D8DF80880ADF80C
:107930000910ADF80B000DF10D01104618F0FCFA1E
:107940000095152302AA04213046019503F0C6FFD5
:107950007F1C0A2FFFF40DAF9FE716202070A0892F
:10796000B4F844100E23A26C8DF808304FF6FF7364
:1079700003EA4101CDE90021012302AA0421E5E740
:1079800018202DE01A2044E0322042E01C2040E084
:1079900084F8009046E0202000E02220207009B00A
:1079A0002046BDE8F04F18F0CDBB2420207009B070
:1079B0002046BDE8F04F18F00ABC28202070228F26
:1079C000A18909B00A20BDE8F04FFDF7C1B82A200F
:1079D000207009B02046BDE8F04F18F0E3BB2C2022
:1079E000207009B02046BDE8F04F18F0FBBB262000
:1079F000207004F14E000090B4F84C20A1890223BD
:107A00001220FDF729FB48E727E011E008E0FFE737
:107A10002E20207009B02046BDE8F04F18F0A7BB1B
:107A20003020207009B02046BDE8F04F18F09ABB16
:107A300019F050F800288FD034202070B06D216CE0
:107A400001AB0091394A83E81500A38F228FD22120
:107A500006F1480019F048F81FE736202070B16D94
:107A6000B4F80C90228FB4F83C80D223276C8DF8A8
:107A70001030ADF81120059104F158000DF1140AF1
:107A800006A918F065FA0C20CDE902A0CDE900782E
:107A9000032304AA0421484603F068FF257020460A
:107AA000FFF7D6FCB06D401CB065F6E674480020C8
:107AB0002D2068616E646C655F70657269706865C1
:107AC00072616C5F6C6973742C206D7475207374B3
:107AD0006174652025752C20636C69656E74207354
