:020000040000FA
:1040000000F00020294200002D4A0000D5400000A9
:104010002D4A00002D4A00002D4A0000000000003B
:10402000000000000000000000000000EF40000061
:104030004B42000000000000314100003D4C0000F8
:1040400051DE010089DE010051E001005142000013
:1040500061E0010071E0010081E0010051420000D7
:104060005142000091E00100514200005142000025
:104070005142000051420000A1E00100B1E0010006
:10408000C1E00100D1E00100E1E00100F1E0010048
:1040900051420000514200005142000051420000D4
:1040A000514200005142000005E101005142000070
:1040B0000100091500800200DFF80CD000F0D6FBEB
:1040C00000480047E9D1010000F0002030B58047EA
:1040D00030BD00BF1EF0040F0CBFEFF30880EFF3FC
:1040E000098081694EF68132C0F201021047224BED
:1040F00019680868B0E8F00F80F30988BFF36F8F84
:104100004FF0000080F311884EF00D0E704700BF95
:104110000000000005480068006880F3088862B667
:1041200061B6BFF34F8FBFF36F8F00DF1000002029
:10413000EFF30980BFF36F8F0F4B1A6820E9F00F80
:10414000106008B54FF0200080F31188BFF34F8F47
:10415000BFF36F8F1FF0A8F94FF0000080F31188B4
:10416000BDE8084019680868B0E8F00F80F30988D6
:10417000BFF36F8F704700BF44000020EFF305804E
:10418000704700002DE9FF5FEFF31080EFF311811E
:10419000EFF31282EFF313830FB443F27830C2F2DD
:1041A00000001A490160EFF30881EFF30982EFF391
:1041B0001483EFF3038441608260C3600461144898
:1041C000016841F00101016044F6206000BF401E1B
:1041D000FCD1104841688268C368046981F308888B
:1041E00082F3098883F3148884F30388BFF34F8F25
:1041F000BFF36F8F0FBC80F3108881F3118882F3B7
:10420000128883F31388BDE8FF5F7047D341000035
:10421000040309407833002040BA704740BA704721
:10422000C0BA7047C0BA70470A48016811F0010F60
:104230001CBF21F00101016002D00748006800475F
:1042400006480047FEE7FEE7FEE7FEE7FEE7FEE77B
:10425000FEE700006401044078330020B94000000C
:104260002DE9F0035FEA930C67D000BF30F9024BF1
:1042700031F9026B30F9025B31F9027B04FB06F87D
:1042800005FB07F94FEA6848A8EB69487C4322F828
:10429000028B6414754304EB654422F8024B30F939
:1042A000024B31F9026B30F9025B31F9027B04FBFE
:1042B00006F805FB07F94FEA6848A8EB69487C4314
:1042C00022F8028B6414754304EB654422F8024B18
:1042D00030F9024B31F9026B30F9025B31F9027BA4
:1042E00004FB06F805FB07F94FEA6848A8EB6948A4
:1042F0007C4322F8028B6414754304EB654422F876
:10430000024B30F9024B31F9026B30F9025B31F9A3
:10431000027B04FB06F805FB07F94FEA68487C437B
:10432000A8EB69486414754322F8028B04EB6544DA
:1043300022F8024BBCF1010C98D113F0030304BF27
:10434000BDE8F003704700BF30F9024B31F902CBF2
:1043500030F9025B31F9026B04FB0CF77F1405FBAB
:1043600006F87443A7EB6847641422F8027B05FB48
:104370000CFC04EB6C4C22F802CB5B1EE4D1BDE8D4
:10438000F00370472DE9F05F0546002092469B46FA
:1043900088460646814640241BE02846414647465B
:1043A000224600F09EF853465A46C01A914110D357
:1043B00011461846224600F085F82D1A67EB0108D1
:1043C0004F4622460120002100F07CF817EB00093F
:1043D0004E41201EA4F10104DFDC484631462A4646
:1043E0004346BDE8F09F00000649074A086850436D
:1043F00043F23902104408604008704701490860E0
:1044000070470000000300206D4EC64110B5431AEE
:10441000934209D28318881803E010F8011D03F8AD
:10442000011D521EF9D210BD40EA01039B0703D0C3
:1044300009E008C9121F08C0042AFAD203E011F8E3
:10444000013B00F8013B521EF9D210BDD2B201E08F
:1044500000F8012B491EFBD270470022F6E710B589
:1044600013460A4604461946FFF7F0FF204610BDE2
:10447000421C10F8011B0029FBD1801A704730B58F
:1044800004460020034600E05B1C934203D2E05C3C
:10449000CD5C401BF8D030BD30B50B460146002046
:1044A0002022012409E021FA02F59D4205D303FAF6
:1044B00002F5491B04FA02F52844151EA2F1010277
:1044C000F1DC30BD202A04DB203A00FA02F10020A2
:1044D00070479140C2F1200320FA03F31943904042
:1044E0007047202A04DB203A21FA02F000217047AD
:1044F00021FA02F3D040C2F120029140084319464C
:1045000070472DE9FE4F804681EA0300C00F0C463C
:10451000009021F0004123F00045B8EB0200A941D2
:1045200005D24046214690461C460B46024623F0E3
:104530000040104304D14046214603B0BDE8F08F4F
:10454000270DC7F30A00C3F30A510290401A0190E5
:10455000402866DAC3F3130040F4801B00989246AB
:1045600020B10023D2EB030A63EB0B0B01985946F1
:10457000C0F140025046FFF7A5FF06460D465046E3
:104580005946019A00F084F910EB080061410024BB
:1045900087EA115284EAE7731A433BD0009A3AB390
:1045A000019A012A4FEA075210DC001B61EB02015D
:1045B0004FF0004202EA0752CDE90042001C41F5EB
:1045C000801132462B4600F082F9B6E7001B61EB02
:1045D0000201001C41F5801300185B412018A2F570
:1045E000001747EB030140EAD570B6196D4111E0A1
:1045F0006D084FEA360645EAC0754FEA0752001BC0
:1046000061EB0201001C41F5801149084FEA3000BE
:104610000019514132462B4603B0BDE8F04F00F07F
:1046200049B90098012240000023D0EB020263EB5D
:10463000E073009821464FEAE074B8EB000061EBAC
:104640000401E9E783F000435BE781F0004158E7AC
:104650002DE9FE4F81EA030404F0004421F00041FB
:1046600000944FF0000B23F0004350EA010402D005
:1046700052EA030404D10020014603B0BDE8F08FE4
:10468000C3F30A54C1F30A552C44A4F2F334019441
:10469000A0FB0254C1F3130141F48011C3F31303CF
:1046A00043F4801301FB024400FB034E840A970A83
:1046B00044EA815447EA8357A4FB076802958D0AB0
:1046C00005FB07854FEA932C04FB0C542705029D3C
:1046D0004FEA065847EA1637B5EB08056EEB070CAC
:1046E000870E920E47EA811742EA8312A7FB020166
:1046F000B6EB0B0164EB00042B0D43EA0C335E18A0
:1047000044EB1C50DA465146E7FB0201C5F31304A3
:104710004FEA0B3343EA14534FEA0432019C43EA55
:104720000603A4F10C040294009CCDE900B400F04F
:10473000CEF8A2E72DE9F04D81EA030404F0004B26
:1047400021F0004514464FF0000A23F0004150EAE2
:10475000050220D054EA01021DD0C5F30A570246D3
:10476000C5F31303C1F31300C1F30A5640F48015D7
:1047700043F48013A7EB0608101BD64608F2FD3859
:1047800073EB050002D308F1010801E092185B41C8
:10479000B8F1000F03DA00200146BDE8F08D0020DB
:1047A0004FF48011064684460EE0171B73EB050795
:1047B00005D3121B63EB050306434CEA010C4908C1
:1047C0004FEA300092185B4150EA0107EDD152EAFE
:1047D000030012D082EA040083EA0501084303D1F2
:1047E00000224FF0004308E0101BAB4102D201222F
:1047F000002302E06FF0010253101AEB06004CEBAD
:10480000085110EB0A0041EB0B01BDE8F04D00F040
:1048100051B8C1F30A52C1F3130140F2FF3341F41E
:1048200080119A4202DA00200146704740F2334379
:104830009A42A2F2334202DC5242FFF752BEFFF725
:1048400041BE000030B5002904DB4FF00044404277
:1048500064EB0101002B04DB4FF00044524264EB97
:104860000303994208BF904230BD0000064C074D3B
:1048700006E0E06840F0010394E807009847103430
:10488000AC42F6D3FFF71CFC10610200306102005D
:10489000202A06DBCB17203A41FA02F043EAE07304
:1048A00006E041FA02F3D040C2F1200291400843F1
:1048B0001946704710B5002B08DA401C41F1000181
:1048C00092185B411A4301D120F0010010BD2DE97F
:1048D000F04D92469B4611B1B1FA81F202E0B0FA76
:1048E00080F220329046FFF7EDFD04460F4640EA85
:1048F0000A0041EA0B0153465A46084303D12046B9
:104900003946BDE8F08D114653EA010015D0C8F1D3
:1049100040025046FFF7E5FD05460E465046594613
:104920004246FFF7CFFD084301D0012000E0002000
:10493000054346EAE0762C4337430A984FEA44534E
:10494000A0EB08004FEAD4240A304FF0000244EAFA
:1049500047544FEAD72502D500200146D1E701058B
:1049600010196941DDE9084500196941BDE8F04DBC
:10497000A0E770B501EB020410F8015B15F0070326
:1049800001D110F8013B2A1106D110F8012B03E0E8
:1049900010F8016B01F8016B5B1EF9D12B0705D4F0
:1049A0000023521E0FD401F8013BFAE710F8013B37
:1049B00002F10202A1EB030303E013F8015B01F82B
:1049C000015B521EF9D5A142D6D3002070BD000074
:1049D00070B51349D1E9000105F010FD002001F088
:1049E000ADFD104C4FF0FF360F4D11E02078000662
:1049F00004D50022114604201DF0F0FD01F0BCFD9D
:104A00002078000604D50022114605201DF0E6FDA1
:104A1000314628681FF088FA0028E7D170BD0000F1
:104A2000B04702003C0000200C0000200448006851
:104A30000122C0F30801891E092006F04BBC0000CA
:104A400004ED00E003480068C00501D11EF078B90C
:104A50007047000004ED00E003480068C00501D184
:104A60001EF090B97047000004ED00E010B5C36877
:104A7000D9B280290FD98468E06800B101204B22A7
:104A800013A100F08FFEE16819B12069BDE8104064
:104A9000084772B6FEE70446008A616982B2D8B25E
:104AA000124B1B68984706F0DBF800280FD1E0682E
:104AB000022806D004280AD1A069BDE8104006F0FB
:104AC000C9B8A08BA169BDE8104006F0C1B810BDFF
:104AD0004863695F696E7465726E616C5F74726160
:104AE0006E73706F72742E6300000000B8010020B6
:104AF0001FB541680A2914D007DC09B1052923D163
:104B000004B0BDE81040FFF7B1BF0B291DD00C2940
:104B10001AD1018AC268406904B089B2BDE8104068
:104B200010470E4991E81C00C968CDE90023CDE982
:104B30000241C168019141690291008AADF80C00FF
:104B40001021684605F0A2FE1FBD018A8AB24169A4
:104B5000C06804B0BDE8104007F090BCDC4E020015
:104B6000074A131D5980116860F30701116010682E
:104B700040F40070106010688005FCD4704700009D
:104B80000804094000F01F020121914040094FF044
:104B9000E02202EB8000C0F88012704700F01F0294
:104BA0000121914040094FF0E02202EB8000C0F863
:104BB000001170474907090E002803DA00F00F00C2
:104BC000024A00E0024A81547047000014ED00E000
:104BD00000E400E0024A11400143024801607047CE
:104BE00080FFFF1F08ED00E000B589B01AF0B2FBAE
:104BF000816803910021CDE9011004480B464A1E4B
:104C0000694600681EF014FE09B000BD28000020AF
:104C1000014800F003B8000068010440014608683C
:104C20000A688242FBD10A688242F8D170470000CC
:104C300001494872704700005001002010B5202043
:104C400080F31188BFF34F8FBFF36F8F1FF004FB0A
:104C500018B104494FF080500860002080F311889B
:104C600010BD000004ED00E00FB4054B10B503A922
:104C7000044A029800F0EAF810BC5DF814FB00004A
:104C800041740000040300200FB4084B10B504A9C0
:104C900002AA039800F0DAF8044602A9002000F006
:104CA00078FC204610BC5DF814FB00009355000012
:104CB000014B024A00F0CAB841740000040300200E
:104CC000704770477047704770477047704770472C
:104CD00002E008C8121F08C1002AFAD170477047C5
:104CE000002001E001C1121F002AFBD17047000023
:104CF0002DE9FF5FDDE90220010DDDF838B0024348
:104D000010D10F9801244CA2012808D0002100984E
:104D10000F9BC0E90021C0E90243BDE8FF9F6FEA95
:104D20000B01F4E7A1F2FF3144F6105041430D149A
:104D30000F9801280ED0A5EB0B00401C4FF000048B
:104D40003E4EDFF8FC90B0F1000AA04605DACAF149
:104D5000000717E0CBF10000F0E7074612E0F80784
:104D600007D02246334640464946FFF771FC80464D
:104D700089462246334610461946FFF769FC044629
:104D80000E467F10002FEAD1DDE90201BAF1000FD3
:104D900042464B4602DAFFF75BFC01E0FFF7CAFC34
:104DA00004460E460022274BFFF74CFD03D84FF078
:104DB000FF30014607E00022234B20463146FFF733
:104DC000A0FBFFF726FD102409E0002C0ADB0A22D5
:104DD0000023FFF7D7FA019B30321A55641E50EAC0
:104DE0000102F2D1641C019AC4F1110314440F9A18
:104DF000012A09D00122084301D15B450FDD4FF0A4
:104E0000000205F101050DE0084303D1A3EB0B05FA
:104E10006D1E09E000204FF0110B0F9088E701DABA
:104E200000226D1E002A83D000980F99C0E902313C
:104E3000C0E9004571E70000300000000000244098
:104E40000000F03F0000F0430000E03F2DE9FF4F7D
:104E500095B09B4689460646002512E2252878D162
:104E60000024761CF94A2746012105943378203B1B
:104E700001FA03F0104202D00443761CF6E73078C2
:104E80002A2811D06FF02F033078A0F13002092AC0
:104E900016D8059A44F0020402EB820203EB4202A8
:104EA0001044761C0590EFE759F8042B0592002A70
:104EB00003DA504244F40054059044F00204761C96
:104EC00030782E2816D116F8010F44F004042A2851
:104ED0000DD06FF02F023078A0F13003092B09D8E4
:104EE00007EB870302EB4303C718761CF3E759F877
:104EF000047B761C30786C280FD006DC4C2817D049
:104F000068280DD06A2814D104E0742810D07A28BB
:104F10000FD10DE044F400140AE044F4801401E0E1
:104F200044F440147278824202D1761C04F5801455
:104F3000761C307866280BD013DC582877D009DC33
:104F4000002875D04528F6D04628F4D047281AD135
:104F50009FE118E0632835D0642879D0652812D104
:104F600097E1702873D008DC6728F1D069286FD0EA
:104F70006E280DD06F2806D1B5E073282CD0752887
:104F800075D0782874D05A46179990476D1C76E1F1
:104F9000C4F30250022809D003280DD0D9F800101C
:104FA00004280DD00D6009F1040968E1D9F800105A
:104FB000EA17C1E90052F6E7D9F800100D80F2E7D0
:104FC0000D70F0E719F8041B8DF8001000208DF823
:104FD0000100EA46012003E059F804AB4FF0FF302E
:104FE00061074FF0000102D40DE008F1010188468D
:104FF000B9420FDA8045F8DB1AF808100029F4D11D
:1050000008E008F1010188468142FADB1AF808102D
:105010000029F6D105985B46A0EB080721463846E3
:10502000179A00F09EFA284400EB080507E04DE0CF
:105030002BE10DE01AF8010B5A4617999047B8F189
:105040000108F7D25B4621463846179A14E142E040
:105050000A220092C4F302524FF0000A022A08D03A
:1050600059F804CB032A4FEAEC710AD00DE029E08D
:105070002AE009F1070121F00702F2E802C1914696
:1050800009E00FFA8CFC4FEAEC71042A03D14FFAC5
:105090008CFC4FEAEC71002907DA0A460021DCF1AA
:1050A000000C61EB02012D2202E0220504D52B2227
:1050B0008DF80420012203E0E20701D02022F7E767
:1050C000904653E00A2102E010220DE010214FF03B
:1050D000000A00910BE010224FF0000A44F0040493
:1050E0000827009203E008224FF0000A0092C4F360
:1050F0000252022A05D059F804CB0021032A08D015
:1051000009E009F1070121F00702F2E802C1914626
:1051100005E01FFA8CFC042A01D10CF0FF0C4FF0C3
:105120000008220722D5702827D0009B83F01003A7
:1051300053EA0A0309D15CEA010206D030228DF855
:1051400004208DF8050002229046009B83F008039E
:1051500053EA0A030AD15CEA010201D1620705D5CC
:1051600030228DF804204FF001087F1E582809D006
:1051700037A003900EA8029013E040228DF804207F
:105180000122E1E737A0F4E753466046009AFFF7B3
:10519000F9F884460398825C0298A0F1010002901D
:1051A00002705CEA0100EFD1029806A9A1EB0000B1
:1051B00000F1200A600702D524F4803400E00127C2
:1051C000574502DDA7EB0A0000E0002000EB0A01D2
:1051D000009005984144A0EB01000590E00306D43F
:1051E0005B462146179A059800F0BBF90544002755
:1051F00006E001A85A46C05D179990476D1C7F1CB8
:105200004745F6DBE0030CD55B462146179A059827
:1052100000F0A7F9054404E030205A46179990475A
:105220006D1C0099481E00900029F5DC08E00298EA
:1052300002995A460078491C0291179990476D1CB3
:10524000BAF10001AAF1010AF1DC6BE109280100C1
:1052500030313233343536373839616263646566EC
:1052600000000000303132333435363738394142AE
:10527000434445460000000000F060F9054406F193
:105280000106307800287FF4E9AD19B02846BDE862
:10529000F08F620700D4062709F1070222F0070CFD
:1052A000FCE80223E14603F000485FEA080C02D064
:1052B0000FF27C2C0DE05FEA045C02D50FF2742C37
:1052C00007E05FEAC47C02D00FF26C2C01E0AFF281
:1052D000700C4FF0FF3823F00043CDF850C0652824
:1052E0000CD006DC452809D046281DD047283ED1E1
:1052F0003EE0662818D0672839D139E00021112F07
:1053000001DB112000E0781CCDE9000106A90EA800
:10531000FFF7EEFCDDE90F010E9A039100210092E8
:1053200007F1010A04914EE04FF000400097CDE9EB
:10533000011006A90EA8FFF7DBFCDDE90F020392BE
:105340000E9B11990022DDF80CA00093049219B96C
:1053500007F1010100EB010AB7EB0A0004D4C0F128
:10536000FF3007F1010A0490AAEB0700019046E024
:10537000012F00DA01270021112F01DD112000E0AB
:105380003846CDE9000106A90EA8FFF7B1FCDDE91A
:105390000F010E9A0391002104910092BA46210751
:1053A0000CD40399514500DA8A46BAF1010F05DDA4
:1053B000009AAAF10101515C302908D0B84202DA02
:1053C00010F1040F06DA0121CDE9011017E0AAF16E
:1053D0000101E9E7002805DC049901440491AAEBE6
:1053E000000102E0411C514500DD8A460499A0EB12
:1053F000010000F1010001904FF0004002902007F1
:1054000004D40198504501DBCDF8048000208DF8CC
:105410004F0002980DF14F07B0F1004F25D02B201F
:105420000E9002984FF0020800280CDA40420290D9
:105430002D200E9007E00A210298FFF72DF8303159
:10544000029007F8011DB8F10001A8F10108F2DC93
:1054500002980028EFD1791E0E980870307800F07D
:10546000200040F0450007F8020D12A8A0EB07004D
:1054700000F107081498007800B1012000EB0A0140
:10548000019801EBE07105984144A0EB0100A0F107
:1054900001000590E00306D45B462146179A059863
:1054A00000F05FF805441498007820B15A46179927
:1054B000904705F10105E00323D55B462146179A85
:1054C000059800F04EF805441BE00498002807DB1F
:1054D000DDE90301884203DD0098405C179901E093
:1054E000179930205A46904704986D1C401C049030
:1054F0000198401E019004D12E205A4617999047DA
:105500006D1CBAF10001AAF1010ADEDC05E017F812
:10551000010B5A46179990476D1CB8F10001A8F18C
:105520000108F4DC5B462146179A0598A4E60000C2
:105530002D0000002B000000200000002DE9F041AC
:10554000044600251E461746880405D406E0394661
:105550002020B04705F10105641EF8D52846BDE8B6
:10556000F0812DE9F041044600251E469046C8030F
:1055700001D5302700E02027880405D506E0414604
:105580003846B04705F10105641EF8D52846BDE848
:10559000F0810A68531C0B60107070472DE9F05FB2
:1055A00006460088C0F30B00824605F0DFF80400D1
:1055B000707875884FEA101709D005F104088845FE
:1055C00008D02A1DBDE8F05F3548FFF77DBB514686
:1055D00034A01EE001F068F907F00301002740F253
:1055E000031B6063012903D002292CD03CA010E0EA
:1055F000A08F60B14119B1F5827F0ED32848534680
:105600005A465C30FFF760FBA787BDE8F09F514624
:1056100043A0BDE8F05FFFF757BBA16B2A460844E3
:105620000E30311DFEF7F2FEA08F284481B2A18713
:10563000E08F083081422FD3A06B0E3005F000F9C7
:10564000E787A78728E0A08F28B115485146B030DA
:10565000FFF73AFBA787B788381D8146854205D3F7
:105660001FFA88F1304605F0EBF815E0FF2D07D959
:1056700053465A46291DBDE8F05F3848FFF724BB62
:10568000A06B2A1D0E303146FEF7C0FEA4F83C8008
:10569000E787A16BA1F81090BDE8F05F05F01EBC94
:1056A000A44B02006863692E633A2061636C5F68F3
:1056B000616E646C65722063616C6C6564207769EF
:1056C0007468206E6F6E2D7265676973746572659C
:1056D000642068616E646C652025752100000000FF
:1056E0006863692E633A2061636C5F68616E646C05
:1056F00065722063616C6C656420776974682069E9
:105700006E76616C6964207061636B657420626F92
:10571000756E6461727920666C616773202575000F
:1057200041434C20436F6E7420467261676D656E15
:105730007420627574206E6F2066697273742066BF
:105740007261676D656E7420666F722068616E6449
:105750006C6520307825303278000000A84C0200BB
:1057600070B5054607480469241D04EBC50042686E
:10577000002A05D14160880019F06CFD44F835001D
:1057800070BD00000000002010B505494FF6FF7302
:1057900002E084788C54C01C02889A42F9D110BD72
:1057A00000000A4010B50B46002803D111461846E8
:1057B00007F06CFC10BD70471CB506498C68002CC6
:1057C00007D0002100910191B0F806010B46032299
:1057D000A0471CBDAC00002070B50D4600281FD1AD
:1057E000002D1DD10F4C4FF49476206818B9304627
:1057F00000F090FF2060040012D031462046FEF7F2
:105800002CFEA4F8065104F58071284602F07DFFB5
:1058100006F032FEA4F802014FF0FF30A4F80801B0
:1058200070BD0000C0000020F8B51646028A069F31
:10583000A2EB010294B2C288D2050AD50A4A556881
:105840003DB1009300890A46014633463846A847D1
:10585000F8BD9C4200D91C464069224601443046AE
:10586000FEF7D4FD2046F8BDAC000020042105F071
:105870000DBF042106F010BF024908600421024850
:1058800006F080BEB8000020C95D000002494860F3
:105890000421024806F076BEB8000020C95D000071
:1058A000042105F0F3BE042106F0F6BE00B58BB06E
:1058B000D0F82401009023E0684600F021FABDF8FA
:1058C000081000291ED0BDF806200FA0FFF7F8F938
:1058D000BDF806008005039808D506A919F040FE1A
:1058E00006A81DF0D3F8014611A001E0018811A01F
:1058F000FFF7E6F9BDF8101010A0FFF7E1F90098E6
:105900000028D9D10BB000BD48616E646C653A20A7
:105910003078253034782C20666C6167733A2030FB
:1059200078253034782C20757569643A20000000A1
:105930002573000025303478000000002C207661AB
:105940006C75655F6C656E3A2025752C2076616CF0
:1059500075653A2000000000064A30B45468002CF7
:1059600006D00B46A4460246002130BC0420604706
:1059700030BC7047C00000207CB51446042819D103
:1059800020783E283FD016DC052846D0082801D0D4
:1059900030280FD1B2F80350284600F0BDF80400BB
:1059A00008D028461AF0D5FC04F8FD0F28461AF056
:1059B000A5F960707CBDD7284CD0D8283BD0DA2818
:1059C000F8D1608800F0A8F80500F3D0B5F806011A
:1059D00004F0CCFE0600EDD02079317A8842E9D17E
:1059E0006946601D19F0CBFD062231466846FEF778
:1059F00046FD0028DED1E07A85F8FF00B5F8060103
:105A0000FFF751FF7CBDA078012801D00A28F9D109
:105A10009188D078FFF7E0FE7CBDB2F803402046C5
:105A200000F07AF80028F7D000F076FE0F49002049
:105A300041F824007CBD608800F06EF80500F9D0C4
:105A4000B4F80B0001B2A5F8081109A0FFF739F965
:105A5000284608E0508800F05FF80028EAD04FF0B0
:105A6000FF31A0F8081100F08FFA7CBDC0000020C3
:105A7000534D5F4556454E545F4944454E54495435
:105A8000595F5245534F4C56494E475F5355434318
:105A90004545444544206964202575003EB50C46C3
:105AA0008DF8080000208DF8092000900190022355
:105AB00002AA0421204606F0E3FF3EBD7FB50DF1AA
:105AC000200C1446BCE864008DF80800ADF80930DD
:105AD000ADF80B20ADF80D10CDE90056072302AA52
:105AE0000421204606F0CCFF7FBD70B515000C46A2
:105AF00003D0D0F82401206008E0002070BD2046CB
:105B000000F0FEF82089A84203D020680028F6D1D2
:105B100070BD012070BD000008B100207047014831
:105B200000687047C00000202DE9FF41164691F83B
:105B300000C00024B0F800214F1D1D46BCF10E0F1F
:105B400072D00CDCACF1020EBEF10B0F1BD2DFE801
:105B50000EF0221A341A3C1A4C1A5C1A6200BCF17C
:105B6000180F70D009DCBCF1100F66D0BCF1120F19
:105B700076D0BCF1160F06D177E0BCF1520F7ED083
:105B8000BCF1D20F7BD061463FA0FFF799F804B07B
:105B90002046BDE8F081B1F80110B0F802218A4238
:105BA00002D9A0F8001101E0A0F8002103242C7014
:105BB000B0F80001A5F80100E9E7491C4B88009303
:105BC0000B88294603F01EFB0DE0CB1D491CF61F78
:105BD000B4B28F884E88CDE90243CDE900670B88C7
:105BE000294603F07BFA0446D1E70C462946072EE6
:105BF00001D8022300E01023641C6588CDE900531E
:105C00000297238803F0DEFCEDE7B1F80130294666
:105C100003F0F2FDE7E7491C4B8800930B88294607
:105C200003F0C6FBDFE7FFE7491C761E0091C6F3D1
:105C30004F03294603F06EFDD5E70C461946072EA3
:105C400003D8022302E015E00AE01023641C6588F3
:105C5000CDE900530297238803F01AFCC3E70EE056
:105C60000092324603F054FEBDE70092324603F044
:105C700041FBB8E70092324603F0FEF9B3E7009229
:105C8000324603F015FE82E7556E68616E646C65FE
:105C9000642041545420436F6D6D616E643A202539
:105CA0003032582C20444154413A20001CB50B4B53
:105CB0005C68002C10D0B6238DF8003005238DF8D9
:105CC00001308DF80200ADF80310ADF80520072370
:105CD00000216A460420A0471CBD0000C00000202F
:105CE00010B580B2FFF718FF002808D0B0F80A21DD
:105CF000B0F80611BDE810409120FFF7D7BF10BDE6
:105D000010B501680A88828072B14B88C3808C8884
:105D1000048101F10604C4609B050CD5A2F11603B1
:105D2000038201F116030BE00021C1800181C160F3
:105D30000182416106E0A2F10803038201F1080338
:105D400011444361016010BD70B5044600890D46E1
:105D500000281BD0022A08D0E08880050BD510222D
:105D6000E068FEF78CFB80B111E009882046BDE8B1
:105D7000704000F00EB8084605F00AFB002805D078
:105D8000E168A8890988884201D1012070BD0020FE
:105D900070BD70B5044600890D46002810D0E0881B
:105DA0008005E06808D505F0F3FA002808D0E0681F
:105DB0008089A84203D004E00088884201D10120F4
:105DC00070BD002070BD00002DE9F041194C064661
:105DD0001F4615468846042809D0082E28D1287861
:105DE000C00720D0D4F800C01FE03046E047287834
:105DF00078281DD1D4F804C0BCF1000F08D03B4670
:105E00002A4641463046E04704F0A8FB00280FD060
:105E10002468002C0CD03B462A4641463046A44616
:105E2000BDE8F0416047D4F804C0BCF1000FDCD1FC
:105E3000BDE8F081B80000202DE9F0410F4615467D
:105E4000044601461E46127828A0FEF73AFF042CAD
:105E50000CD0082C48D13846FFF75EFE040043D032
:105E600029781E2909D0522918D01EE028787828D0
:105E70003AD1BDE8F04100F00FB9B4F80A01A0B181
:105E800004F5867000F012FD04F583740020A288EA
:105E9000A0802188BDE8F041FFF708BF32462946BF
:105EA000BDE8F0410023FFF73FBEFB2E06D9324686
:105EB000BDE8F041FB231A48FEF703BF22782AB160
:105EC000BDE8F04116485030FEF7FBBE01202070BF
:105ED000A4F8046132462946A01CFEF797FA204632
:105EE000BDE8F04100F050B8BDE8F0816174745F26
:105EF0007061636B65745F68616E646C65723A2093
:105F000074797065203078253032782C2070616388
:105F10006B65745B305D203078253032780000008E
:105F20008C49020010B5B0F80001029CC01E80B27E
:105F30001970A3F80120844200D8204610BD1FB577
:105F400014468DF80800069AADF80930ADF80B201C
:105F5000ADF80D10002000900190072302AA042143
:105F6000204606F08DFD1FBD3EB50C468DF808009D
:105F7000ADF80920002000900190032302AA04211B
:105F8000204606F07DFD3EBD2DE9FF410446017827
:105F900024A0FEF796FE207801282DD1A078D228E3
:105FA00008D003202070B4F8060104B0BDE8F04129
:105FB000FFF779BC1AF074F80027E0B1B4F80401D7
:105FC0000F2818D3B4F806011AF04AFC002813D1A0
:105FD000B4F9080106F0ECFE05000CD0B4F8041189
:105FE000A4F10A000E58696C324611A0FEF769FE52
:105FF000686CB04202D92770BDE8FF810220207092
:10600000B4F803201749601DCDE90006CDE902145C
:10601000B4F80401A1780F3883B205F134001AF006
:1060200049F8E9E76174745F72756E3A202564007F
:10603000415454205369676E6564205772697465D2
:106040002C20444220636F756E7465722025752C78
:10605000207061636B657420636F756E7465722068
:10606000257500001D630000FFF71ABC0EB50B215B
:10607000CDE900238DF80810012302AA042106F0BF
:10608000FFFC0EBD00B5FFF747FD10B1B0F80001F1
:1060900000BD172000BD000038B513480468002C6F
:1060A00020D0207803280CD1204600F0A5F840B17C
:1060B0006078002816D0B4F80601BDE83840FFF734
:1060C000F2BB607800280DD00020607007A0006847
:1060D000009005484468002C04D0022300216A4641
:1060E0000420A04738BD0000C0000020B700000019
:1060F0002DE9FE431F4616460D468046FFF70CFD70
:10610000040005D0B4F80A0120B19020BDE8FE8358
:106110005920FBE74046FFF7C3FB88B102AB2A4694
:106120001D2120460097FFF7FDFECDE90060032307
:1061300002AA0421404606F0A3FC060002D014E0A7
:106140005720E3E7A4F80A5104F58670424608494F
:10615000044600F0E1FB47F2305240F28241204613
:1061600000F0C2FB204600F091FB3046CEE7000075
:10617000E15C000070B505460B480A4C0E464460D1
:1061800004F0C0F908480830446019F05BFB074888
:10619000FFF77CFB284600F0B5F83046BDE87040BC
:1061A00000F0B6B879590000C8000020395E000040
:1061B0002DE9FE431E4615460F468046FFF7ACFC10
:1061C000040014D04046FFF76BFB90B102AB3A4697
:1061D0001B2120460096FFF7A5FECDE900500323C2
:1061E00002AA0421404606F04BFCBDE8FE8359207C
:1061F000FBE75720F9E700002DE9FC412F4E00276F
:1062000007700446B0F804213346811CFFF78CFC6C
:106210000546A0F57F40FF3823D0042D0FD33078FA
:1062200001280CD13079082809D194F8FE0030B14A
:10623000B4F8060119F089FD78B1012811D085B1B3
:1062400000970197B4F806012B463246042106F068
:1062500017FC3078032807D02DE0B4F806011AF0B7
:1062600097FF0020BDE8FC81154AB4F80611B4F888
:106270000001556875B1B5228DF8002004228DF813
:106280000120ADF80210ADF80400062300216A4693
:106290000420A847B4F8060100F084F80948007803
:1062A000C00708D0B4F800010022001D81B2B4F884
:1062B000060101F04FFC0120D4E70000982F0020D8
:1062C000C0000020D800002001494860704700004D
:1062D000C000002010B50246FFF71EFC002806D0C3
:1062E00001214170BDE810401046FFF7DCBA10BD37
:1062F00010B50C46FFF710FC002801D0C0F824416F
:1063000010BD00000149486070470000AC0000204B
:106310000149886070470000AC0000207CB504464D
:1063200000780A4602280ED16946104619F024F971
:10633000B4F80411A01F014408226846FEF79FF834
:1063400010B1002020707CBDB4F80411A4F10A0043
:106350000E58B4F9080106F02BFD050001D001200C
:1063600000E00020E52207A1FFF71CFA45B1761CEA
:106370006E6403202070B4F80601FFF794FA7CBD28
:1063800072B6FEE76174745F7365727665722E6330
:10639000000000000A6882654968C1653521017006
:1063A00002F032BB70B5054602F058FE04000BD077
:1063B0002846FFF7B1FB002806D0E28AB0F80011AA
:1063C0008A4202D9A0F8002170BDE18270BD0000B0
:1063D000F8B50446C0880E46C0050BD5064845688A
:1063E000002D07D000200090034602462189304648
:1063F000A8472082F8BD0000AC0000207CB50E4606
:10640000C98804460D0B00D06D1C14F8FD2F607870
:10641000CDE90002A378FD3C2A461048FEF750FC67
:10642000F088410502D594F8FE1079B1000502D537
:1064300094F8FF0060B1002D02DD94F8FD0048B132
:1064400094F8FD00A84207DA0C207CBD05207CBD35
:1064500008207CBD0F207CBD00207CBD8848020048
:106460003EB50C468DF808000699ADF80920CDE937
:106470000013032302AA0421204606F001FB3EBDBF
:106480000622FDF7FCBF0A68026089888180704798
:1064900010B50C49002203463A24985C000900F02C
:1064A00033FB0870985C00F00F0000F02DFB487083
:1064B0008C70C91C521C062AEFDB002001F8010C6D
:1064C000004810BD792C00200844008840BA70476D
:1064D0004218405C5378528852BA63F31F4242EA32
:1064E00000607047130A4354491C89B242547047F4
:1064F000130E4354491C89B2C2F307434354491C49
:1065000089B2C2F307234354491C89B242547047ED
:1065100010B50446FEF796FA03480188A1430180AE
:10652000BDE81040FEF798BA8802002010B503F0CD
:106530008CFBBDE81040012000F010B810B50649F2
:106540000A68C2F30312022AFAD1012100F000FC0A
:10655000BDE8104004F076BE0400044010B50446C7
:10656000FEF770FA0348018821430180BDE810401E
:10657000FEF772BA8802002003480078C00701D1F4
:1065800017F08CB9704700008802002008B5002081
:10659000009008480068C1050748006803D06946B4
:1065A0001DF05CFA08BD00231A4619461DF040F99B
:1065B00008BD000004ED00E00C00002010B504460A
:1065C0000E480078C00718D0FEF73CFA4CB1032102
:1065D0000B4816F0B9FE03F03AFB0FF03BFD0BF051
:1065E000EBFE0120FFF794FF10F056FD032017F09B
:1065F00087FABDE81040FEF72FBA10BD88020020D0
:106600005000030070B50D480088A0B910F058FC88
:1066100040F2E2450446A8420DD30948406D50B906
:1066200017F042FB38B117F047FBA84203D3A04252
:1066300000D3204670BD002070BD000088020020FD
:10664000000009400149086070470000D8000020A0
:106650000268134602E08A4204D01268002AFAD186
:106660000B600160704702E08A4205D01046026864
:10667000002AF9D10A6001607047006808B1002063
:1066800070470120704704E0884201D10120704723
:1066900000680028F8D170470268816832B140680C
:1066A0000068884200D1086808B9704709B1012024
:1066B0007047002070470022C0E90021096881600E
:1066C0007047016851B141680A6881688A4203D104
:1066D00041600968816003E0826001E0012101609E
:1066E0008068704781680968816042681160002194
:1066F000016070474FF0FF3351B107E002688A42F2
:1067000003D1096801600020704710460028F5D1C8
:106710001846704718F09EBD1CF04EBBFFF7FCBF3B
:106720007820FFF7F7BF10B50446806B06F0BCFB7E
:106730002046BDE81040FFF7EFBF70B59820FFF787
:10674000E9FF04000CD040F2111006F0DFFB050059
:1067500008D098212046FDF780FE2046A56370BD35
:10676000002070BD2046FFF7D7FFF9E77047FFF71D
:10677000D3BF5420FFF7CEBFFFF7CEBF1420FFF7E3
:10678000C9BF2DE9F04106460020984617460C4641
:106790000546306005E02146304600F007F84444E5
:1067A0006D1CBD42F7DBBDE8F081000030B402682B
:1067B000134607E08B4204D1024630BC04A0FEF72A
:1067C00081BA1B68002BF5D10A60016030BC7047AC
:1067D0006274737461636B5F6D656D6F72795F7006
:1067E0006F6F6C5F667265653A20626C6F636B20D9
:1067F000257020667265656420747769636520661C
:106800006F7220706F6F6C2025700000016819B1E5
:106810000A6802600846704700207047FFF77CBF97
:106820000C20FFF777BF000000B589B00DF1080C10
:1068300001900E4800680592ACE80B000C48006817
:106840004FF00003C005029804D0002269461DF0F5
:10685000A5F804E04FF0FF3269461CF0E9FF01287B
:1068600002D0012009B000BD0020FBE72800002075
:1068700004ED00E013460A4601460A20FFF7D4BFA4
:1068800013460A4601460C20FFF7CEBF38B5044632
:106890001DF0D4FC02464FF0FF3000900023012190
:1068A00060691DF029FF38BD0020704738B50446E7
:1068B000406948B14FF0FF31002300911A4605218D
:1068C0001DF01AFF00206061002038BD38B5044675
:1068D0001DF0B4FC02464FF0FF300090002302216F
:1068E00060691DF009FF38BD38B50446816090022B
:1068F0004FF47A71B0FBF1F1044800902346002276
:1069000003A01DF08DFE606138BD0000E94B000062
:106910006800000001617047C0E90312704708B5C4
:106920004FF0FF310091002340691A4603211DF00A
:10693000E3FE08BD2DE9F0410746114815460E4615
:1069400004689846BA3438886288218800F020F9B3
:10695000388062882188308800F01AF93080E28817
:10696000A188288800F014F9288062892189B8F864
:10697000000000F00DF9A8F80000BDE8F08100006B
:10698000CC4A020070B50C00054601D0012000E0A1
:1069900000206A2206A1FEF705FF284600F034F821
:1069A00010B100206C602060286820602C6070BDF1
:1069B0006C6973745F62617369632E630000000029
:1069C00070B50C00054601D0012000E000205322E4
:1069D00007A1FEF7E7FE284600F016F808B12C6084
:1069E00001E06868046000206C60206070BD0000F9
:1069F0006C6973745F62617369632E6300000000E9
:106A00000021016041607047006808B100207047B4
:106A100001207047006808B10020704701207047CE
:106A2000016819B10A68026012B103E00022FAE7B6
:106A3000002242600846704770B5054600680C4663
:106A400000B10120C32209A1FEF7ACFE206800B10D
:106A50000120C42205A1FEF7A5FE69682068086030
:106A60006068686000202060606070BD6C6973744D
:106A70005F62617369632E630000000070B50346B6
:106A800000200246012513F80240002105FA01F614
:106A9000344201D0401C80B2491CC9B20829F5D348
:106AA000521CD2B2052AEED370BD70B504460089DF
:106AB00042F6554290472521B0FBF1F201FB12014D
:106AC000CA0801F00705A25C0123AB401A4201D0BD
:106AD000084670BDE18841432046BDE87040C1F3DF
:106AE000074102F093BA30B504461068206010796F
:106AF0000D4600F01F0020712046FFF7BFFFE08029
:106B000085EA1540208130BD0A2801DA303003E0E3
:106B10000A38062802DA4130C0B270473F20704779
:106B200070B50446C08E88B0002822D0258F94F816
:106B30003430A2268DF800601A268DF80160A689EF
:106B40000A46ADF80400ADF8082004F11C01ADF8C8
:106B50000260ADF80650ADF80A30102203A8FDF728
:106B600055FCA1891C236A46A06800F049F9002061
:106B7000E08608B070BD000004481144814203D98A
:106B80000120186003207047002070475B2F002011
:106B900019B1884201D208467047002AFCD09042C1
:106BA000FAD91046704700000249CA6D8243024379
:106BB000CA6570470000094043688B4204D1806871
:106BC000904201D101207047002070473EB5144D1E
:106BD0000022202140202C691CF08AFDA86203229B
:106BE000002101201CF084FDE8600E4A0E2061683F
:106BF0008DE8070000230CA10C48A2681DF0D2FA12
:106C0000084AE86254320220E1688DE80700002358
:106C100007A1084822691DF0C5FA28633EBD00009F
:106C2000000000205403002063000000D149000050
:106C300070000000A1E7010010B508780C4648B1CB
:106C40000848007800070AD50022BDE8104002205D
:106C500004F040BB04F079FB00222146F5E7002058
:106C600010BD00000000002070B51D4606460C4611
:106C7000012809D120782968884205D10622211DE2
:106C80006868FDF7FCFB08B1002070BDC5E902642F
:106C9000032070BD0248417A491C417270470000D0
:106CA0005001002010B5044603F0A8F800200FF0B2
:106CB000BFF910F015F80FF007F808F013F90BF012
:106CC000F7FE11F0F3FC15F055FC002C03D0BDE8E5
:106CD000104010F09EBD10BD70B50446B0F1A53F48
:106CE00019D0B4F1C33F16D001231A0205211C208C
:106CF00016F042FD0546B4F1F23F09D0922206A1FA
:106D00000020FEF74FFD2846BDE8704016F0A6BEF5
:106D100007202870F7E770BD6474626C652E63000D
:106D200070B50A4C4FF42020074DE0641BF050F979
:106D3000800602D54FF4803001E04FF40040284433
:106D4000C0F31300A06470BD00000A4000000940B9
:106D5000F8B505461B480E46002101800FF04CFA9D
:106D60001BF054F916F0B0FC68460FF087FA0446A1
:106D7000009840F68C114FF4A567884201D301209A
:106D800000E00020852210A1FEF70CFD3A462146C6
:106D9000002016F005FD009804F5A561A0F5A5609A
:106DA00082B2012016F0FCFC1BF0BCF83046FFF765
:106DB00079FF002D04D02846BDE8F840FFF78CBFCE
:106DC000F8BD000088020020647469702E63000022
:106DD00009490120096809B1002070470749CA69BB
:106DE000002AF9D1044A283212688968491E8A4269
:106DF000F3D1022070470000F80700204400002073
:106E000030B4040003D0A44630BC0420604730BC3A
:106E10007047FEB51E4617460C46054602F01EF9A1
:106E2000002816D0011D6846FFF745FC0CE06846B7
:106E3000FFF747FC0189A14206D1D0F804C03346D0
:106E40003A4629460420E0476846FFF725FC00281B
:106E5000EDD1FEBD1CB5A0228DF8002003228DF8D7
:106E600001208289ADF802208DF8041081898068A4
:106E700005236A46FFF7C4FF1CBD30B587B0044642
:106E8000A3250A988DF8005018258DF80150A58982
:106E9000ADF80410ADF806200146ADF80250ADF88B
:106EA000083010220DF10A00FDF7B0FAA1891A236B
:106EB0006A46A068FFF7A4FF07B030BD10B586B0E2
:106EC0000446A1208DF8000016208DF80100A0894D
:106ED000ADF80410ADF80200ADF8062010221946F6
:106EE00002A8FDF793FAA18918236A46A068FFF764
:106EF00087FF06B010BD00002DE9F05F0024924628
:106F0000894605462746264624E000BF05EB840057
:106F1000B0F9021035F9240018F068FB834605EB40
:106F20008800B0F9021035F9280018F05FFBABEBD0
:106F3000000043F6FF71884203DBA0F5FE40FF38F6
:106F400004E00849884201DC490C0844074404EB8A
:106F50004904761C04EB0908D045D7DB97FBF6F013
:106F6000BDE8F09F01C0FFFF2DE9F04342780446E1
:106F7000901C89B00E46814206D009B0921CBDE833
:106F8000F043E748FDF7A0BE2178E6A0FDF79CFEA0
:106F90002078DFF8A0834FF00009122872D00CDCB3
:106FA0000E2811D004DC05286DD0082850D177E0D8
:106FB0000F2844D010284BD196E013284FD03E28FC
:106FC0007ED0572844D18CE1D8F80000A2784546FD
:106FD00090F84210D8A0FDF777FE6179DFA0FDF7A9
:106FE00073FE2968A07881F84200E149B4F80300F3
:106FF0000988884228D0DF490988884224D0DE49A0
:107000000988884220D0DD49098888421CD0DC49A3
:107010000988884202D1296824310CE0D9490988BD
:10702000884202D12968283105E04FF601418842A3
:107030000AD129682C31601D03F080FA04E0D8F8E9
:107040000000E17880F84210D8F80010A1F876909E
:10705000D8F8000090F85800012877D04DE10325BA
:10706000002719E0625BAD1C615BAD1C104603F0AC
:107070007DFB48B190F840208A420AD3511A80F82B
:10708000401008E035E026E01146BFA0FDF71CFEE9
:1070900001E080F840907F1CA078B842E2DCD7E79E
:1070A000B4F80350284603F061FB0028D0D0A17843
:1070B00051B961790029816903D041F4004102E0AE
:1070C00023E021F40041816100F032FC01462846B2
:1070D00003F02EFCBCE7B4F8030003F047FB0028E4
:1070E000B6D007214174B3E703F07CFE03F08EFEB7
:1070F000AEE7A0780028ABD1B4F8030003F036FB6C
:107100000028A5D0617A0174A2E7A07806287CD077
:1071100011DC01281FD004289AD1E078002875D10D
:10712000A08803F023FB002870D08830A17941703B
:10713000012101708CE70A280DD0122888D120790E
:10714000082885D2E178002973D000E0D1E09CA026
:10715000FDF7BAFD7CE7E0780028A0D1A7884FBBF7
:10716000D8F800004546406918B9FFF7E6FA2968E3
:1071700048612868A8464569E5B1EF800220C5F856
:107180001890A8742A46974905F11C00FFF7C4FB24
:10719000FFF78AFB6863E0792872294604F108004A
:1071A00018F0EDF905206874A0792874A0780A28F1
:1071B00004D012E0A08800F0ADF949E7D4F80E1031
:1071C000C5F88A10618AA5F88E106169C5F890101B
:1071D000218B05F18000A5F89410E089A5F85200F4
:1071E000287C60B9D8F8001091F84010E973D8F8FD
:1071F000000005F1090190F8400000F045FA28462A
:10720000FFF746F90246E98801E013E06EE076A058
:10721000FDF75AFD03F062FBD8F8000090F84E002D
:10722000C00687D5E98840F6B832774803F0D2FB2C
:107230000EE72CE034F8037F384603F097FA050098
:107240006088ADF81400A088ADF81000E088ADF8B3
:1072500018002089A4F10304ADF81C00ADD007ABE1
:1072600006AA04A905A8FFF765FB5435BDF8180068
:107270006B882A88BDF81C108DE80F00BDF810300F
:10728000BDF814203946614803F0A4FBE0E6B4F8E9
:107290000520104603F06AFA054621795CA0FDF747
:1072A00013FD2079D8F80020C0EBC001114491F8FB
:1072B0008110E97369B12179D8F80000C1EBC101EF
:1072C000014401F18000D1F8821045F8091FC088FF
:1072D00005E0D8F80000416B45F8091F008FA88031
:1072E000B6E6608803F042FA0028A1D109B0BDE8F3
:1072F000F083B1B2204603F009FCB1B2204603F09E
:10730000C5FA2078052806D1B4F8030003F02EFA58
:1073100008B103F0C9FE09B0BDE8F04303F0DEBDDB
:10732000144D02004843493A4556454E543A2530DB
:1073300032780000CC4A0200434D445F434F4D5029
:107340004C45544520636D6473206F6C6420257533
:10735000202D206E6577202575000000636D645F29
:10736000636F6D70207374617475732025750000F0
:10737000644E02006C4E02004C4E02005C4E020055
:10738000EC4D0200F44D02006863695F6E756D623A
:1073900065725F636F6D706C657465645F70616367
:1073A0006B6574206C6973747320756E7573656496
:1073B00020636F6E2068616E646C65202575000027
:1073C00061647620736574207465726D696E617492
:1073D0002064756520746F20636175736520307853
:1073E00025780A0081A700004E657720636F6E6ED6
:1073F000656374696F6E3A2068616E646C65202500
:10740000752C2025730000008C4D0200144E0200E4
:107410006164762068616E646C65722030782578CE
:1074200020636F6E6E656374656420746F20636F94
:107430006E2068616E646C6520307825780A0000E3
:1074400010B5044603F07AFF204610BD70B506461D
:1074500015460C460C20FFF75DF901463046C1E9A0
:107460000145BDE87040FFF7FEB8000013460A462C
:107470000146014803F0AEBABC4E02000246014884
:1074800003F0A8BABC4D020070B588B00C461D468A
:107490001646694618F064F804A9204618F060F80A
:1074A00004AA6946074803F095FA040006D1064885
:1074B0002A46314600682430FFF7C8FF08B020464E
:1074C00070BD0000EC4D0200CC4A0200014803F000
:1074D00081BA0000B44D0200014803F07BBA0000FD
:1074E0006C4E0200014803F075BA0000CC4E020059
:1074F000014803F06FBA0000AC4D020008B50093DC
:1075000013460A460146024803F064FA08BD00002B
:10751000304B020010B5034603F028F940B10621B4
:10752000417413221946054803F054FA002010BD97
:107530000021184603F096F9F8E70000744D0200A8
:1075400038B54FF0FF30ADF80200ADF80000062569
:107550000DE0684603F058F90446407C062806D042
:10756000E1881322054803F035FA00B965746846CE
:1075700003F02AF90028ECD138BD0000744D020058
:107580002DE9FF4FDFF8A8A085B00024DAF800202D
:10759000DDE912691268DFF894808B460A2000EB5F
:1075A000061153692746B8F8000003AA984705005A
:1075B00001D001210FE0562009B0BDE8F08F00BFD7
:1075C00004EBC40219F81220521E01FA02F03843EB
:1075D000641CC7B2E4B2B442F2D3DDE907018DE81E
:1075E00083005B46D8F804102846059A03F0B4F8E7
:1075F000C7B200240DE000BF04EBC40109EB410158
:10760000891CE8191022FCF701FF1037641CFFB237
:10761000E4B2B442F0D3DAF80010404681F840B04A
:107620002946039A03F008FD0020C5E79C4E02009E
:10763000CC4A020070B506460D46074803F0CAF969
:10764000040006D105482A46314600682830FFF775
:10765000FDFE204670BD0000F44D0200CC4A020041
:107660000248006890F8780070470000CC4A020099
:107670000449096851F8BA2F02604A684260896873
:1076800081607047CC4A0200064A0028106804D086
:10769000D0F83A200A60C08F02E0426B0A60008F87
:1076A00088807047CC4A02000146014803F092B935
:1076B000DC4D0200034909684A6B0260098F818032
:1076C00070470000CC4A020010B50446014604A0F1
:1076D000FDF7FAFA022C01D9012010BD002010BDDF
:1076E0006761705F6D69746D5F70726F74656374EC
:1076F000696F6E5F72657175697265645F666F72DE
:107700005F73656375726974795F6C6576656C200B
:10771000257500007FB50DF1200CBCE870008DE8E8
:10772000780013460A460146024803F053F904B0B4
:1077300070BD0000A44E0200014803F04BB90000E8
:10774000AC4E020013460A460146014803F042B916
:10775000204B020013460A460146014803F03AB99D
:10776000184B02001CB5049CCDE9003413460A46B0
:107770000146024803F02EF91CBD0000284B020010
:107780000146014803F026B9B44E02000448817A4C
:10779000012903D10221817219F05EBD70470000FA
:1077A00050010020074810B5026C40F282210648C3
:1077B000FFF79AF80448FFF769F8BDE81040FFF7B3
:1077C000E5BF000050010020E430002010B5002289
:1077D00007490848FFF7A0F8074840F28221026CE9
:1077E0000448FFF781F8BDE810400248FFF74EB8A3
:1077F000A5770000E430002050010020014803F08C
:10780000E9B80000A44D0200014803F0E3B800000D
:10781000084B0200014803F0DDB80000D44E02001E
:107820000146014803F0D6B8244E02000146014843
:1078300003F0D0B8E44D02000146014803F0CAB895
:107840007C4D02000146014803F0C4B8944D02008B
:107850000246014803F0BEB8C44D02002DE9F041D4
:107860000E46074602F082FF050010D0384600F0B1
:1078700055F804460246314608A0FDF725FAB44201
:1078800007D321463846BDE8F04103F051B8012145
:10789000F8E7AE74BDE8F04103F020BB6761705FAC
:1078A000726571756573745F7365637572697479F8
:1078B0005F6C6576656C2025752C2063757272652A
:1078C0006E74206C6576656C202575000146014854
:1078D00003F080B8644E020013460A460146014890
:1078E00003F078B8C44E020013460A460146014828
:1078F00003F070B8404B0200F0B585B00DF1280CD4
:10790000BCE8F0008DE8F80013460A46014602483C
:1079100003F060F805B0F0BD504B020010B502F066
:1079200025FF18B1BDE8104000F002B8012010BDDD
:1079300010B1008B000401D4012070470220704771
:1079400002207047074BC0EBC0021B681A440B684B
:1079500042F8823F8B8893800A460146024803F032
:1079600039B80000CC4A02003C4E020000B10120B0
:107970000249096881F8780070470000CC4A02008B
:107980000149096808637047CC4A02001CB5049C91
:10799000CDE9003413460A460146024803F01AF8BE
:1079A0001CBD0000F84A02000A460146014803F0E7
:1079B00011B80000004B02002DE9FE4F144E88461E
:1079C000A6F11C011D4609681746814609683088E2
:1079D000DDF830A04B6902AA691D9847040014D055
:1079E000CDE9007543464A46716802F0B5FEC0B263
:1079F00020442A465146FCF709FD21463046029AAA
:107A000003F01AFB0020BDE8FE8F5620FBE70000C4
:107A1000E84A02002DE9FC47124D0F46A5F124016A
:107A200099460968164680460968288801AA4B6964
:107A3000311D9847040013D000963B4642466968C2
:107A400002F08AFEC0B2204432464946FCF7DEFC12
:107A500021462846019A03F0EFFA0020BDE8FC8792
:107A60005620FBE7F04A020004490268096841F821
:107A7000BA2F42684A60806888607047CC4A02002A
:107A80000A460146014802F0A5BF0000D84A02009C
:107A90002DE9FF5F154D8946291FDDE90E6B096849
:107AA0001F4690460968824628884B6903AA711DC3
:107AB0009847040018D0CDF80080CDE901764B46F8
:107AC00052462046696802F047FEC0B22044324662
:107AD0005946FCF79BFC21462846039A03F0ACFA72
:107AE000002004B0BDE8F09F5620FAE7D04A02001B
:107AF0002DE9FF5F164D8946A5F11401DDE90E6BF6
:107B000009681F4690460968824628884B6903AA7F
:107B1000B11D9847040018D0CDF80080CDE901765A
:107B20004B4652462046696802F016FEC0B2204419
:107B300032465946FCF76AFC21462846039A03F070
:107B40007BFA002004B0BDE8F09F5620FAE7000061
:107B5000E04A02000AB944F2902213460A4601465E
:107B6000014802F037BF00001C4E020013460A46CF
:107B70000146014802F02EBF2C4E020008B50B460C
:107B8000009202460021024800F074F808BD00008F
:107B90004C4E02002DE9FC4791461B4A194F88467E
:107BA000126804460221126801EB88013888536983
:107BB00001AA9847060007D043462246796802F09A
:107BC000CBFDC5B2002414E05620BDE8FC8700BF01
:107BD00004EB440009EB40010A7900924B8819F844
:107BE0001020701909A102F0B7FD2D1D641CEDB223
:107BF000E4B24445ECD331463846019A03F01CFA0E
:107C00000020E2E75C4E0200CC4A02003132310033
:107C10002DE9F04F8DB0DFF854C0DDE91F89DDE9B3
:107C20001BBADCF800C0DDE91D56C0EBC007674495
:107C3000DDF868E0179C87F8814008AFA7E860038B
:107C4000DDF864C0CDE906BACDE904CE169E189DD4
:107C5000CDE9003613460A4601460548CDE90245FE
:107C600002F0B8FE0DB0BDE8F08F0000CC4A020073
:107C7000444E02002DE9FC471C460A9D17468846E3
:107C80008146F72B26D9F720CDE900050B460122C6
:107C90003946484602F09EFE002823D1F73CA4B2A4
:107CA000F73515E0F72C01D3F72600E02646A01B98
:107CB000CDE900650404240C01D0002200E002227A
:107CC00043463946484602F085FE00280AD135442D
:107CD000002CE7D14346032239464846CDE900450A
:107CE00002F078FEBDE8FC8708B5009313460A460B
:107CF0000146024802F06EFE08BD0000944E0200EC
:107D00002DE9FC4716460F4602EB8601244ADFF8B0
:107D10008C8099461268824600241268C91CB8F803
:107D20000000536901AA9847050002D000200122F3
:107D30000DE05620BDE8FC8700EB400319F8133036
:107D40005B1E02FA03F12143401CCCB2C0B2B04228
:107D5000F2D300943B4652462846D8F8041002F06D
:107D6000FBFCC7B200240FE004EB440109EB410027
:107D70008188009143884278E8190AA102F0ECFC5E
:107D80007F1D641CFFB2E4B2B442EDD329464046E5
:107D9000019A03F051F90020CCE700008C4E02005C
:107DA000CC4A02003132320008B50B46009202463E
:107DB00000210248FFF75EFF08BD0000544E02009C
:107DC0000A460146014802F005BE0000D44D0200FB
:107DD0002DE9F843194F15460C468046F82923D95A
:107DE0000146F82301223846009502F0F3FD0028F1
:107DF00021D1F83CA4B2F83514E0F82C01D3F826D0
:107E000000E02646A01B0404240C009501D00022AB
:107E100000E0022233464146384602F0DBFD0028EE
:107E200009D13544002CE8D1234603224146384687
:107E3000009502F0CFFDBDE8F88300007C4E020003
:107E40000A460146014802F0C5BD0000844E02000A
:107E500008B5009313460A460146024802F0BAFDEF
:107E600008BD0000744E02000A460146014802F0B7
:107E7000B1BD0000104B02001CB5049CCDE90034DC
:107E800013460A460146024802F0A4FD1CBD00004C
:107E9000344E0200054902680968C1F83A20828818
:107EA000CA870146024802F095BD0000CC4A020094
:107EB0009C4D02000249096881F8410070470000AA
:107EC000CC4A02002DE9F04788B00DF10C0EDDE937
:107ED0001367DDE91145DDE916A9DDF854C0DDF8C9
:107EE00040808DE808111346AEE8F0000A460146CE
:107EF000084802F06FFD040007D106484A466C3876
:107F0000514600682C30FFF7A1FA08B02046BDE8C2
:107F1000F0870000384B0200014802F05BBD000012
:107F2000604B020008B5009313460A46014602481A
:107F300002F050FD08BD0000484B0200F0B587B0CC
:107F40000DF1300EBEE8F0108DE8F81013460A4629
:107F50000146024802F03EFD07B0F0BD584B02005A
:107F60002DE9FF410446DDE90A570C9E02F0FEFBB5
:107F7000002805D0007C30B12046009504F0ABFB12
:107F800004B0BDE8F08103968DE8A80013460A46C8
:107F90002146024802F01EFDF2E70000CC4D02002F
:107FA00008B59200921C0B46009201460722024837
:107FB00002F010FD08BD0000684B02002DE9F047FB
:107FC000DFF88CA48AB01E461546884604280AD0DD
:107FD00008287DD128781B280FD01D2808461FD0DF
:107FE00001F03CF81EE02978782971D1DAF80040D8
:107FF000002C50D04146A0474DE0B5F801700C462A
:10800000D21CDE1E3946A72017F004FCF61C0246DF
:108010000AB0B3B239462046BDE8F047FEF7F9BED4
:1080200016F0F8FB040053D02978771E4FF00109B1
:108030000D2973D009DC0C2915D2DFE801F014EF0B
:10804000143114EE14ED148614F0172967D006DCF1
:108050000F2978D0112952D0132904D167E11929A9
:1080600072D01D295CD0FBA0FCF72DFE28788DF87E
:1080700008908DF80900002006218DF80A008DF87F
:108080000C108DF80B0000900190A089052302AA26
:10809000042104F0F5FC0AB0BDE8F04700F0B4BCE0
:1080A000B5F8015004F0E8F9854200D22846E08294
:1080B00084F81890DAF8005095B1AB208DF80000E4
:1080C00004208DF80100A089ADF80200E08A00E0EC
:1080D000F7E1ADF804000623A1896A460420A84709
:1080E0004046FEF75FF9E64800788007D3D4E08A7F
:1080F0000022001D81B2A089FFF72CFDCBE720787C
:108100000228C8D132462946204617F0EBF9697893
:108110002046711A294401224988A7E00FE13CE179
:108120004746B5F80180EA1CF61E4146A82017F024
:1081300071FB0246F61CB3B241463846FEF769FEB3
:1081400084F85190A7E76AE15BE120780C281BD006
:1081500011DC062801D008289DD132462946204648
:1081600017F073F93146284600F080FF014620469B
:108170001AF010FB8FE7142833D024288BD168889D
:10818000A4F84C0025203AE195F80180B8F1070FDA
:1081900007D26888A085A8882086E88860860D2098
:1081A0002DE1022716E000BFE91935F807904A884B
:1081B00022868A886286C98801A81AF093FC01A8E1
:1081C0000090638E228E49462046FEF756FE07EB4E
:1081D000080087B2B742E7D369782046711A695A16
:1081E00043E095F8018000210227A8F1020A0DE082
:1081F00035F80790EA191FFA8AF3921C494620467F
:1082000017F014F907EB0800494687B2B742EFD3DD
:10821000204613222AE002E035E04CE009E1207814
:108220000E2814D0102824D028288BD1204600F006
:108230007BFA218F6A1CA92017F0ECFA0246083756
:10824000BBB2A189A068FEF7DBFD002135E101A9E1
:10825000681C17F085F9A18D01AA00922046638E53
:10826000228EFEF70AFEA18D20460B221AF0B2FAEA
:1082700011E7204600F058FABBB2218F6A1C204655
:1082800017F0D4F8E1E74FF004094FF6FF78012723
:1082900004F11C0A09E0E819E95B4088534680466E
:1082A00002462046FEF70AFE4F44B742F3DB204663
:1082B00041460322DAE768780427022800D1122712
:1082C000F01B35F800A0AD1CB61E1FFA86F800267C
:1082D00022E000BF35F80690042F05EB060021D000
:1082E000801C06A917F03CF9A4228DF80020142266
:1082F0008DF80120A289ADF8022006A9ADF80490FE
:1083000010220DF10600FCF781F8A18916236A46B8
:10831000A068FEF775FD3E444645DBDB204651462E
:108320000922A3E7418806A81AF0DCFBDCE72078E5
:10833000182803D0262801D02C2899D1ACE0761E2D
:108340002078B6B2761DBFB2122815D02A288FD158
:10835000218F628F6B1CAA20009717F069FA020028
:1083600004D0B3B2A189A068FEF74AFD3A4629219C
:1083700020461AF0F7F98EE6218F628F6B1CA6203B
:10838000009717F055FA020004D0B3B2A189A06893
:10839000FEF736FD3A461121EAE720781A2812D076
:1083A0001C281CD02E2814D03228E4D1204600F0FE
:1083B000BBF932462946204603F00CF800287FF42A
:1083C00061AF7E2179E0B5F803001D226087192195
:1083D00010E0B5F803002F2260872D210AE0324615
:1083E0002946204602F0F6FF40B1B5F803001D22F1
:1083F00060871B2120461AF0DCF94CE62120207012
:1084000049E620781E2847D0202845D0222802D0CF
:108410003028B0D140E0204600F086F9D1E720783E
:108420001628A8D1BBB26A1C0021204616F0FEFF18
:1084300032E029790A292BD12078082830D021DC94
:10844000022829D0042827D0062821D128E00000BE
:10845000DC0000204154542048616E646C65722C2D
:1084600020756E68616E646C656420726573706FF0
:108470006E7365207479706520307825303278000D
:10848000D80000200A2807D00C2805D014280CD0CA
:10849000204600F0A8FAFEE5204600F045F9D4E6B3
:1084A000E18D2046FEF73CFBF6E7204600F03CF964
:1084B000A08D218E8842F2D10A212046FEF7CAFC07
:1084C000E9E50AB0BDE8F08710B50446084616F0A5
:1084D000D7F918B1017819B1952010BD562010BDFB
:1084E0001F218460017000F08FFA002010BD70B56C
:1084F00005461446084616F0C3F918B1017819B1BB
:10850000952070BD562070BD85606188A28891421B
:1085100003D10021FEF79EFC07E0491C8185A1885C
:10852000C1850921017000F06FFA002070BD2DE9AE
:10853000F04107461D4616460846DDF8188016F03D
:108540009FF9040004D0207820B19520BDE8F08187
:108550005620FBE7A760A685E585012084F850003A
:10856000002565831022414604F11C00FBF74EFFF5
:10857000E5860720207000F047FA0020E6E72DE9A5
:10858000F04107461D4616460846DDF8188016F0ED
:1085900077F9040004D0207820B19520BDE8F0815F
:1085A0005620FBE7A760A685E585012084F85000EA
:1085B000A4F81A80414604F11C001AF093FA002036
:1085C000E0860720207000F01FFA0020E6E770B573
:1085D00006461C461546084616F052F918B10178B1
:1085E00019B1952070BD562070BD86608585C48503
:1085F000002180F85010C1860521017000F004FAB6
:10860000002070BD10B50446084616F039F918B1BF
:10861000017819B1952010BD562010BD012184604C
:1086200081854FF6FF72C28501700021418300F001
:10863000EBF9002010BD70B505461646084616F049
:108640001FF9040003D0207818B1952070BD562082
:1086500070BD0120A560A0854FF6FF70E085002069
:1086600060831022314604F11C00FBF7CFFE03208B
:10867000207000F0C9F9002070BD70B505461446A1
:10868000084616F0FDF818B1017819B1952070BDB3
:10869000562070BD0121856081854FF6FF71C1852F
:1086A00003210170448321461C301AF01BFA00F0AC
:1086B000ABF9002070BD10B50446084616F0E0F88E
:1086C00018B1017819B1952010BD562010BD1D219B
:1086D0008460017000F098F9002010BD70B5064666
:1086E0001C461546084616F0CBF818B1017819B1AA
:1086F000952070BD562070BD86608585C4850B2190
:10870000017000F081F9002070BD00B500F0A6FCFA
:1087100010B1027E012A03D017200880952000BDE9
:10872000C08A0880002000BD10B5002101700446F9
:1087300081890448FCF7C7FA04F16000BDE81040E5
:10874000FEF7B4B8A44A020070B5042817D1107817
:10875000052810D1B2F80350284600F07FFC040031
:1087600009D01F2100F03FF90549002041F82500FC
:108770002046FDF7D3FFBDE8704000F045B970BD5D
:10878000E0000020064910B504484860084601F0A2
:10879000B9FEBDE810400348FDF76EB849870000F8
:1087A000E4000020BD7F000010B516F033F800286B
:1087B00002D0007808B1002010BD012010BD10B516
:1087C0000C460146104600F049FC002806D04C60DB
:1087D0000B81BDE81040001DFDF73ABF10BD2DE92B
:1087E000F0410646DDE906781C461546084616F0B7
:1087F00047F820B1017821B19520BDE8F0815620DD
:10880000FBE786600587878744873121C0F8408071
:10881000017000F0F9F80020EFE770B50546144646
:10882000084616F02DF818B1017819B1952070BDE1
:10883000562070BD856004872721017000F0E4F8A0
:10884000002070BD0023AFF3008070B506461C46C3
:108850001546084616F014F818B1017819B195209C
:1088600070BD562070BD8660058744872921017040
:1088700000F0CAF8002070BD0023AFF3008070B58F
:1088800006461C461546084615F0FAFF18B1017851
:1088900019B1952070BD562070BD8660058744874C
:1088A0001121017000F0B0F8002070BD70B50646CF
:1088B0001D461446084615F0E3FF18B1017819B1BA
:1088C000952070BD562070BD8660A0F844401521EB
:1088D0008564017000F098F8002070BD70B5054601
:1088E0001446084615F0CCFF18B1017819B195204F
:1088F00070BD562070BD85600487002141870F211F
:10890000017000F081F8002070BD2DE9F0410746AC
:108910001D4616460846DDF8188015F0B1FF040024
:1089200004D0207820B19520BDE8F0815620FBE7E7
:10893000A760A685E58526866586002060831022CF
:10894000414604F11C00FBF761FD1320207000F08C
:108950005BF80020E8E72DE9F04107461D46164682
:108960000846DDF8188015F08BFF040004D020784D
:1089700020B19520BDE8F0815620FBE7A760A685D1
:10898000E58526866586A4F81A80414604F11C0018
:108990001AF0A8F81320207000F036F80020E9E75C
:1089A0000149086070470000DC0000202DE9F0411B
:1089B00006461C4615460846069F15F061FF20B185
:1089C000017821B19520BDE8F0815620FBE7866053
:1089D00005878487002141871B210764017000F00F
:1089E00013F80020EFE770B5044600780D46002824
:1089F00008D02046FFF798FE29462046BDE8704083
:108A0000FEF728BA70BD00002DE9F04FC74889B0C5
:108A10000468002C7AD0A089FCF728FFB0B1227836
:108A2000217EC3A0FCF74FF9207E01286ED194F877
:108A3000510000254FF01E0970B184F85150A089F3
:108A40008DF8089000950123019595E0A08909B063
:108A5000BDE8F04FFCF70DBF2078172801D02B2878
:108A600018D1204615F099FBA18FC01E884211DA5B
:108A7000204615F092FB0246A18FBBA0FCF723F91C
:108A80002046FFF751FE09B02046BDE8F04F0D210A
:108A9000FEF7E0B9606D04F08BF906462178BDA0C1
:108AA000FCF711F994F800800427022008224FF403
:108AB00020514FF0100A4FF00C0B4FF00E0CB8F194
:108AC000360F3FD2DFE808F03E1B3E233E413E44D6
:108AD0003E4B3E5B3E643E683E6B3E6D3E923EA228
:108AE0003EA43EA83EAA3EAD3EAF3EB73ED93EBFF5
:108AF0003EC93ED13EE63EEE3EA63EF63EFE20702C
:108B0000E08D0090A38DA289102053E01AE0277019
:108B10000D46618B39B1ADF81C10E18D07AA0091AB
:108B2000CDE9012008E003A904F11C0016F018FDAE
:108B3000E18D03AA8DE80604A38DA28929460620AB
:108B4000FCF7BCFF09B0BDE8F08F0620207000E004
:108B5000227009B02046BDE8F04F16F0DEBD22704D
:108B6000A089A18DE28D8DF80870ADF80910ADF8DF
:108B70000B2000950523019502AA042133E084F817
:108B800000B0E08D0090A38DA28942F6020110E0B2
:108B900084F800C0228E59E084F800A055E012202D
:108BA0005CE014202070618B39B1E08D0090A38DC2
:108BB000A2890820FDF7C3F9C4E7A689A08DE18D3D
:108BC0008DF80820ADF8090004F11C03ADF80B1076
:108BD0000DF10D01184616F0C3FC0095152302AAED
:108BE00004213046019503F04BFFABE716202070BF
:108BF000B4F844104FF6FF73A089A26C03EA410158
:108C0000CDE900218DF808C00123B5E718202DE03B
:108C10001A2040E032203EE01C203CE084F8009026
:108C200042E0202000E02220207009B02046BDE86C
:108C3000F04F16F06DBD2420207009B02046BDE82D
:108C4000F04F16F0AABD28202070228FA18909B00C
:108C50000A20BDE8F04FFDF787B92A20207009B03F
:108C60002046BDE8F04F16F083BD2C20207009B0DF
:108C70002046BDE8F04F16F09BBD2620207004F181
:108C80004E000090B4F84C20A18902231220FDF779
:108C9000E7FB57E72E20207009B02046BDE8F04FD3
:108CA00016F04BBD3020207009B02046BDE8F04FD3
:108CB00016F03EBD17F0F4F9002896D0342020704D
:108CC0003A4A00E00CE0B06D216C01AB009115C395
:108CD000A38F228FD22106F1480017F0EBF931E77C
:108CE00036202070B16DB4F80C90228FB4F83C801F
:108CF000D223276C8DF81030ADF81120059104F1C6
:108D000058000DF1140A06A916F036FC8DE8800D06
:108D1000032304AA0421484603F0FAFE25702046E6
:108D2000FFF702FDB06D401CB0650BE7E0000020CE
:108D30002D2068616E646C655F706572697068652E
:108D400072616C5F6C6973742C206D747520737420
:108D50006174652025752C20636C69656E742073C1
:108D60007461746520257500676174745F636C6954
:108D7000656E745F72756E3A2076616C7565206CF5
:108D8000656E202575203E204D5455202575202DDB
:108D900020330A00676174745F636C69656E745F89
:108DA00073746174652025750000000095630000F0
:108DB0002DE9F04707461D46164689460846DDF868
:108DC000208015F027FD0446007850B9484617F07A
:108DD000FBFE014660650AA0FBF775FF606D002889
:108DE00002DA9520BDE8F087A7602687A5873320A3
:108DF000C4F840802070FFF707FE0020F2E7000073
:108E00006C655F6465766963655F6B65792069731E
:108E1000203A307825780A0070B50A4E05460024BD
:108E200056F82400A84207D1A98907A0FBF74BFFF9
:108E30007F212846FFF7D7FD641C2404240CEFD0C3
:108E400070BD0000E00000204741545420636C696D
:108E5000656E742074696D656F75742068616E64E9
:108E60006C652C2068616E646C652030782530322A
:108E7000780000002DE9F04106461C4615460846DC
:108E8000069F15F0FDFC20B1017821B19520BDE8C9
:108E9000F0815620FBE786600587848700214187A3
:108EA0002B2107640170FFF7AFFD0020EFE770B5DD
:108EB00006461D461446084615F0E2FC18B1017836
:108EC00019B1952070BD562070BDE90704D0A17975
:108ED000C90601D4982070BDA90704D5A1798906D7
:108EE00001D4992070BD866061888185A188C18583
:108EF000A0F84E5023210170FFF786FD002070BDC1
:108F00001CB5049CCDE90034002300F001F81CBD21
:108F10002DE9F0410646DDE906781C46154608466F
:108F200015F0AEFC20B1017821B19520BDE8F081AB
:108F30005620FBE786600587878744872D21C0F888
:108F400040800170FFF760FD0020EFE71CB5049C36
:108F5000CDE90034002300F001F81CBD2DE9F041FB
:108F60000646DDE906781C461546084615F088FCDD
:108F700020B1017821B19520BDE8F0815620FBE7B2
:108F800086600587878744871921C0F84080017073
:108F9000FFF73AFD0020EFE72DE9F04106461C46B9
:108FA00015460846069F15F06BFC20B1017821B1EB
:108FB0009520BDE8F0815620FBE786600587848711
:108FC000172107640170FFF71FFD0020F1E7F8B5D6
:108FD0001E4615460F4615F01DFC040003D02078F0
:108FE00018B19520F8BD5620F8BD204615F0D5F8EB
:108FF000C01EA84201DA9720F8BD0096A1892B4631
:109000003A465220FDF72CFAC0B2F8BDF0B5002464
:1090100023460125C65C002205FA02F73E4207D02E
:109020008C4203D102EBC300C0B2F0BD641CA4B2F9
:10903000521CD2B2082AEFD35B1CDBB2052BE9D35A
:10904000FF20F0BD10B580B215F0F2F819F0B2F9BA
:109050000028FBD1BDE8104019F09EB908B10020EE
:109060007047014800687047E00000204278891A84
:109070000844B0F8030070472DE9FC41164C18274E
:109080001E46D4F808C0BCF1000F11D04978D9B100
:109090002178002579B1FCF78FFB23786288257051
:1090A000658002B039463046BDE8F04116F0B8BBE5
:1090B00003230022F5E7002300950195B0F806018F
:1090C00002221946E04701E0FCF776FB19203070D8
:1090D0000120BDE8FC810000AC0000202DE9FF4F1D
:1090E00087B01D46DDE914738946824600264FF09D
:1090F000060B0124B0463A4629463248FBF7E0FD0C
:10910000BD4204D81DB1DAF82401009046E00123E5
:1091100051E06846FCF7F4FDBDF8080008B1A8422C
:109120003CD3B8423DD8CEB158B14FF42051684637
:10913000FCF72FFE28B942F601016846FCF729FE2C
:1091400060B1414620A0FBF7BBFD29F80480A41CB8
:10915000A4B209990026201D884222D8BDF8080033
:109160005FEA00081AD068461599FCF712FEA8B10C
:10917000BDF810201698824210D105991798FBF778
:109180007EF958B9BDF8081016A0FBF799FDBDF897
:10919000081029F80410A41CA4B201260098002885
:1091A000B7D1012C06D0072189F8001020460BB05A
:1091B000BDE8F08F0A232A465946484616F030FB90
:1091C000F5E70000F8480200456E64206F662067EE
:1091D000726F75702C2068616E646C652030782524
:1091E00030347800426567696E206F662067726F61
:1091F00075702C2068616E646C6520307825303481
:10920000780000002DE9F04F87B09346109F884604
:1092100081461E464FF0040A012400253A461946AD
:1092200028A0FBF74DFDBE4204D81EB1D9F8240199
:10923000009033E001233EE06846FCF761FDBDF895
:10924000080070B3B8422CD8B04227D3BDF806103E
:10925000880501D5102000E00220012C02D9A84287
:1092600021D109E008D10546880501D5022100E099
:10927000012188F8011002246019801C584510D87B
:10928000BDF8081028F80410A41CA4B208EB0400D0
:109290002A460399FBF7BAF8601984B200980028AF
:1092A000CAD1012C06D0052088F80000204607B05E
:1092B000BDE8F08F0A2332465146404616F0B0FA18
:1092C000F5E700004154545F46494E445F494E461D
:1092D0004F524D4154494F4E5F524551554553549D
:1092E0003A2066726F6D202530345820746F202527
:1092F000303458002DE9F04F2C4C8346B1F8015022
:10930000B1F803A0A06889B0984691460E4616278A
:1093100058B12A4602A95846FCF7E7FB38B1BDF818
:109320000E00010701D5C00503D403231DE001236E
:109330001BE002A95846FDF761F808B1034614E0A6
:10934000A9F10500711D80B2CDE90010D4F808C064
:10935000BBF80601534601222946E04710F0FF03FF
:1093600019D0072B09D00D2B07D02A463946404685
:1093700016F056FA09B0BDE8F08F0D2B02D0072B7E
:1093800006D008E020780D2805D02370658002E023
:1093900020780028F9D04A4631464046FBF736F897
:1093A000172188F800104846E4E70000AC000020D0
:1093B0002DE9F04387B016460E9D0C4607469946A8
:1093C0004FF00C082A46194625A0FBF779FC4A46BF
:1093D00001A93846FCF789FB28B1BDF80A008007CF
:1093E00003D4022307E0012305E001A93846FDF775
:1093F00005F8030007D04A464146204616F010FA09
:1094000007B0BDE8F083B7F8061101A8FCF7E0FF4C
:10941000BDF81400A0F57F41FF3902D10020ADF85E
:10942000140080B2A84201D20723E4E7401C401B8D
:10943000B04203DD7019401EADF81400B7F8060104
:109440000090BDF81400621C401B83B2294601A89D
:10945000FCF7EAF9401C0D2180B22170D0E7000032
:109460004154545F524541445F424C4F425F524524
:1094700051554553543A2068616E646C652025301F
:1094800034782C206F6666736574202575000000A3
:109490002DE9FF4F89B00024DDF858901020CDE968
:1094A00006041E468A460125A0460894A3464A465D
:1094B000314643480B9BFBF703FC4E4513D896B14E
:1094C000DDE91707022810D0384601F061FF40B1EE
:1094D000B7F80C004FF42057B84208D0791C8842E6
:1094E00005D0102366E0012364E03888F2E709988C
:1094F000D0F82401009050E06846FCF701FCBDF86C
:10950000080008B1B04248D3484549D8B8F1000F27
:1095100023D050B139466846FCF73BFC28B942F6E7
:1095200001016846FCF735FCB8B108992AF8051026
:10953000AD1CA8B22AF800B0801C85B20AEB050069
:10954000221F0799FAF762FF2819001F85B20B98AE
:1095500029194FF00008814222D8BDF808005FEABF
:10956000000B1AD0DDE917216846FCF7EDFBA0B12E
:10957000BDF81000001D80B2012D02D9A04211D10A
:1095800004E003D104468AF801000225BDF8080072
:10959000089005984FF00108079000980028ABD17B
:1095A000012D06D011208AF8000028460DB0BDE834
:1095B000F08F0A2332465046069916F031F9F5E746
:1095C000404902002DE9FF4F87B08846149F81462D
:1095D0004FF0000A1D464FF0080B012456463A464C
:1095E00019463FA0FBF76CFBBD4204D81DB1D9F86A
:1095F000240101905CE0012366E001A8FCF780FBF8
:10960000BDF80C00E8B3A84252D3B84253D8DDE904
:10961000152101A8FCF798FBA0B3BDF80A0080074C
:1096200003D47EBBBDF80C6042E001A94846FCF7BC
:10963000E5FE030002D0012C3FD845E0B9F8061141
:1096400001A8FCF7C5FEBDF81400A0F57F41FF3965
:109650002ED0801C80B2012C02D982452DD104E08D
:1096600003D1824688F801000224099804EB0A011C
:1096700081420AD9022C20D8001FADF81400801CAA
:1096800001E018E014E088F80100BDF80C1028F89B
:109690000410B9F80601A41C0090A4B2BDF814305F
:1096A00008EB0402002101A8FCF7BEF8204484B2B4
:1096B00001980028A1D1012C08D9092188F80010AF
:1096C00020460BB0BDE8F08F2A4602E036B10223F7
:1096D00032465946404616F0A3F8F2E70A23F3E76C
:1096E0004154545F524541445F42595F545950457B
:1096F0005F524551554553543A2066726F6D20258F
:1097000030345820746F20253034582C20747970F0
:10971000653A20002DE9FF4F87B0884683461F46F3
:109720004FF00E090124194628A0DDF850A0FBF7E0
:10973000C7FA002543E000BF3AF815605EB1324633
:1097400001A95846FCF7D1F928B1BDF80A008007F5
:1097500003D4022307E0012305E001A95846FCF7E2
:109760004DFE030007D032464946404616F058F8F1
:109770000BB0BDE8F08FBBF8061101A8FCF728FE7E
:10978000BDF81400A0F57F41FF3902D10020ADF8EB
:10979000140080B201190998814202D9401EADF827
:1097A0001400BBF806010090BDF8143008EB040269
:1097B000002101A8FCF738F8204484B26D1CBD429A
:1097C000BADB0F2188F800102046D1E74154545FDE
:1097D000524541445F4D554C5449504C455F5245AC
:1097E00051554553543A206E756D2068616E646C16
:1097F00065732025750000002DE9F04387B01546FC
:109800000C46064699464FF00A081A4601A9FCF78D
:109810006CF9074649461EA0FBF752FA2FB1BDF876
:109820000A00800703D4022307E0012305E001A911
:109830003046FCF7E3FD030007D04A464146204688
:1098400015F0EEFF07B0BDE8F083B6F8061101A8E9
:10985000FCF7BEFDBDF814004FF6FF71884201D140
:109860000846EFE7401CA84202D96D1EADF814501F
:10987000B6F806010090BDF81430621C002101A862
:10988000FBF7D2FF401C0B2180B22170DAE7000009
:109890004154545F524541445F52455155455354DC
:1098A0003A2068616E646C652025303478000000D1
:1098B0002DE9F041154F8046B1F80150B86888B0E5
:1098C00016460C4600281ED02A4602A94046FCF740
:1098D0000CF9002817D0BDF80E00C10513D54007BC
:1098E00011D502A94046FCF789FD00280BD1F61ED0
:1098F000E41CB0B2CDE900400023BC68B8F8060112
:109900001A462946A04708B0BDE8F081AC00002007
:109910002DE9F047B1F8015088B090460C461E463C
:1099200081464FF0120A2A4602A9FCF7DEF850B130
:10993000164FB86828B1BDF80E00010701D5C00563
:1099400003D4032316E0012314E002A94846FCF7E0
:1099500055FD03000ED1A8F1030080B2E41CCDE94F
:109960000040BC68B9F806011A462946A04710F025
:10997000FF0307D02A465146304615F051FF08B084
:10998000BDE8F087132030700120F8E7AC0000201C
:10999000AFF300802DE9F0411E4F002600F11304C3
:1099A00097F824103546491C87F82410017CB9B17A
:1099B000012923D0032917D0042925D040F2A11270
:1099C00015A10020FBF7EEFE0E202070E81C607051
:1099D00097F82400A070A4F80360681DBDE8F0812A
:1099E000806811491B3804E080681049A0F54030B8
:1099F0002B3801EBC00046884578E5E780680C49C4
:109A0000A0F580301A38F4E780680A49A0F1041004
:109A1000EFE7000090330020626C655F6863696364
:109A20005F6D73672E63000040560200E05602002F
:109A3000E8570200D85802002DE9F0411F4F0546B3
:109A400000F1120497F824000026401C87F8240037
:109A5000287CC0B1012820D0032817D0042824D0A6
:109A600040F2553216A10020FBF79CFE0F2020701B
:109A700004206070287EA07097F82400E070A68013
:109A80000620BDE8F0811249A86801E01149A868E4
:109A900001EBC00030F8D66CE8E70F49A86801EB8D
:109AA000C000A0F50020CE3806E00C49A86801EB04
:109AB000C000A0F500101E380688D7E790330020BC
:109AC000626C655F686369635F6D73672E63000036
:109AD00040560200E0560200E8570200D858020043
